{
  "contractName": "AliceAndBob",
  "abi": [
    {
      "constant": true,
      "inputs": [],
      "name": "aliceAddress",
      "outputs": [
        {
          "name": "",
          "type": "address"
        }
      ],
      "payable": false,
      "stateMutability": "view",
      "type": "function",
      "signature": "0x6d54f071"
    },
    {
      "constant": false,
      "inputs": [],
      "name": "renounceOwnership",
      "outputs": [],
      "payable": false,
      "stateMutability": "nonpayable",
      "type": "function",
      "signature": "0x715018a6"
    },
    {
      "constant": true,
      "inputs": [],
      "name": "owner",
      "outputs": [
        {
          "name": "",
          "type": "address"
        }
      ],
      "payable": false,
      "stateMutability": "view",
      "type": "function",
      "signature": "0x8da5cb5b"
    },
    {
      "constant": true,
      "inputs": [],
      "name": "jobId",
      "outputs": [
        {
          "name": "",
          "type": "bytes32"
        }
      ],
      "payable": false,
      "stateMutability": "view",
      "type": "function",
      "signature": "0xc2939d97"
    },
    {
      "constant": true,
      "inputs": [
        {
          "name": "_newOwner",
          "type": "address"
        }
      ],
      "name": "bobAddress",
      "outputs": [
        {
          "name": "",
          "type": "address"
        }
      ],
      "payable": false,
      "stateMutability": "view",
      "type": "function",
      "signature": "0x9a9d1111"
    },
    {
      "inputs": [
        {
          "name": "_newOwner",
          "type": "address"
        },
        {
          "name": "_oracle",
          "type": "address"
        },
        {
          "name": "_jobId",
          "type": "bytes32"
        },
        {
          "name": "_alice",
          "type": "address"
        },
        {
          "name": "_bob",
          "type": "address"
        }
      ],
      "payable": false,
      "stateMutability": "nonpayable",
      "type": "function",
      "constant": false,
      "name": "transferOwnership",
      "outputs": [],
      "signature": "0x09cad1bd"
    },
    {
      "payable": false,
      "stateMutability": "nonpayable",
      "type": "constructor",
      "inputs": [
        {
          "name": "_token",
          "type": "address"
        },
        {
          "name": "_oracle",
          "type": "address"
        },
        {
          "name": "_jobId",
          "type": "bytes32"
        },
        {
          "name": "_alice",
          "type": "address"
        },
        {
          "name": "_bob",
          "type": "address"
        }
      ],
      "signature": "constructor"
    },
    {
      "anonymous": false,
      "inputs": [
        {
          "indexed": false,
          "name": "amount",
          "type": "uint256"
        }
      ],
      "name": "DepositMade",
      "type": "fallback",
      "payable": true,
      "stateMutability": "payable"
    },
    {
      "anonymous": false,
      "inputs": [
        {
          "indexed": false,
          "name": "amount",
          "type": "uint256"
        }
      ],
      "name": "DepositMade",
      "type": "event",
      "signature": "0x4b5e331941ecaccdb150876050ec45085fa2dbe4937f81ee2d79a2958f477c62"
    },
    {
      "anonymous": false,
      "inputs": [
        {
          "indexed": false,
          "name": "rank",
          "type": "uint256"
        }
      ],
      "name": "RankingReturned",
      "type": "event",
      "signature": "0x63ee1195bab5b1bb5a6687c4958d2213de675fbd6829dd20d8935f2801e21547"
    },
    {
      "anonymous": false,
      "inputs": [
        {
          "indexed": true,
          "name": "previousOwner",
          "type": "address"
        },
        {
          "indexed": true,
          "name": "newOwner",
          "type": "address"
        }
      ],
      "name": "OwnershipRenounced",
      "type": "event",
      "signature": "0xb48f42c7a4b7d66b43c8fccc1aafdac7c8ca6d024c15bb1d427d547f00024380"
    },
    {
      "anonymous": false,
      "inputs": [
        {
          "indexed": true,
          "name": "previousOwner",
          "type": "address"
        },
        {
          "indexed": true,
          "name": "newOwner",
          "type": "address"
        }
      ],
      "name": "OwnershipTransferred",
      "type": "event",
      "signature": "0x8be0079c531659141344cd1fd0a4f28419497f9722a3daafe3b4186f6b6457e0"
    },
    {
      "anonymous": false,
      "inputs": [
        {
          "indexed": true,
          "name": "id",
          "type": "bytes32"
        }
      ],
      "name": "ChainlinkRequested",
      "type": "event",
      "signature": "0xb5e6e01e79f91267dc17b4e6314d5d4d03593d2ceee0fbb452b750bd70ea5af9"
    },
    {
      "anonymous": false,
      "inputs": [
        {
          "indexed": true,
          "name": "id",
          "type": "bytes32"
        }
      ],
      "name": "ChainlinkFulfilled",
      "type": "event",
      "signature": "0x7cc135e0cebb02c3480ae5d74d377283180a2601f8f644edf7987b009316c63a"
    },
    {
      "constant": false,
      "inputs": [
        {
          "indexed": true,
          "name": "id",
          "type": "bytes32"
        }
      ],
      "name": "ChainlinkCancelled",
      "outputs": [],
      "payable": false,
      "stateMutability": "nonpayable",
      "type": "event",
      "anonymous": false,
      "signature": "0xe1fe3afa0f7f761ff0a8b89086790efd5140d2907ebd5b7ff6bfcb5e075fd4c5"
    },
    {
      "constant": false,
      "inputs": [],
      "name": "checkSiteListing",
      "outputs": [],
      "payable": false,
      "stateMutability": "nonpayable",
      "type": "function",
      "signature": "0xc37403c5"
    },
    {
      "constant": false,
      "inputs": [
        {
          "name": "_requestId",
          "type": "bytes32"
        },
        {
          "name": "_ranking",
          "type": "uint256"
        }
      ],
      "name": "fulfillRanking",
      "outputs": [],
      "payable": false,
      "stateMutability": "nonpayable",
      "type": "function",
      "signature": "0xb70da504"
    },
    {
      "constant": false,
      "inputs": [
        {
          "name": "_requestId",
          "type": "bytes32"
        },
        {
          "name": "_price",
          "type": "uint256"
        }
      ],
      "name": "fulfillEthereumPrice",
      "outputs": [
        {
          "name": "",
          "type": "address"
        }
      ],
      "payable": false,
      "stateMutability": "nonpayable",
      "type": "function",
      "signature": "0x92cdaaf3"
    },
    {
      "constant": true,
      "inputs": [],
      "name": "getChainlinkToken",
      "outputs": [
        {
          "name": "",
          "type": "address"
        }
      ],
      "payable": false,
      "stateMutability": "view",
      "type": "function",
      "signature": "0x165d35e1"
    },
    {
      "constant": true,
      "inputs": [],
      "name": "getOracle",
      "outputs": [
        {
          "name": "",
          "type": "address"
        }
      ],
      "payable": false,
      "stateMutability": "view",
      "type": "function",
      "signature": "0x833b1fce"
    },
    {
      "constant": false,
      "inputs": [],
      "name": "withdrawLink",
      "outputs": [],
      "payable": false,
      "stateMutability": "nonpayable",
      "type": "function",
      "signature": "0x8dc654a2"
    }
  ],
  "bytecode": "0x6080604052600160045534801561001557600080fd5b5060405160a08061159f8339810160409081528151602083015191830151606084015160809094015160068054600160a060020a0319163317905591939091610066856401000000006100b2810204565b610078846401000000006100d4810204565b60099290925560078054600160a060020a03928316600160a060020a03199182161790915560088054929093169116179055506100f69050565b60028054600160a060020a031916600160a060020a0392909216919091179055565b60038054600160a060020a031916600160a060020a0392909216919091179055565b61149a806101056000396000f3006080604052600436106100a05763ffffffff60e060020a600035041663165d35e1811461015d5780636d54f0711461018e578063715018a6146101a3578063833b1fce146101ba5780638da5cb5b146101cf5780638dc654a2146101e457806392cdaaf3146101f9578063b70da50414610214578063c2939d971461022f578063c37403c514610256578063cd922de21461026b578063f2fde38b14610280575b600754600160a060020a03163314610128576040805160e560020a62461bcd02815260206004820152602a60248201527f4f6e6c7920746865206465706f7369746f72206d61792063616c6c207468697360448201527f2066756e6374696f6e2e00000000000000000000000000000000000000000000606482015290519081900360840190fd5b6040805134815290517f4b5e331941ecaccdb150876050ec45085fa2dbe4937f81ee2d79a2958f477c629181900360200190a1005b34801561016957600080fd5b506101726102a1565b60408051600160a060020a039092168252519081900360200190f35b34801561019a57600080fd5b506101726102b0565b3480156101af57600080fd5b506101b86102bf565b005b3480156101c657600080fd5b5061017261032d565b3480156101db57600080fd5b50610172610337565b3480156101f057600080fd5b506101b8610346565b34801561020557600080fd5b506101b86004356024356104d4565b34801561022057600080fd5b506101b860043560243561063d565b34801561023b57600080fd5b5061024461076c565b60408051918252519081900360200190f35b34801561026257600080fd5b506101b8610772565b34801561027757600080fd5b506101726108e0565b34801561028c57600080fd5b506101b8600160a060020a03600435166108ef565b60006102ab61090f565b905090565b600754600160a060020a031681565b600654600160a060020a031633146102d657600080fd5b600654604051600160a060020a03909116907ff8df31144d9c2f0f6b59d69b8b98abd5459d07f2742c4df920b25aae33c6482090600090a26006805473ffffffffffffffffffffffffffffffffffffffff19169055565b60006102ab61091e565b600654600160a060020a031681565b600654600090600160a060020a0316331461036057600080fd5b61036861090f565b604080517f70a082310000000000000000000000000000000000000000000000000000000081523060048201529051919250600160a060020a0383169163a9059cbb91339184916370a082319160248083019260209291908290030181600087803b1580156103d657600080fd5b505af11580156103ea573d6000803e3d6000fd5b505050506040513d602081101561040057600080fd5b50516040805160e060020a63ffffffff8616028152600160a060020a03909316600484015260248301919091525160448083019260209291908290030181600087803b15801561044f57600080fd5b505af1158015610463573d6000803e3d6000fd5b505050506040513d602081101561047957600080fd5b505115156104d1576040805160e560020a62461bcd02815260206004820152601260248201527f556e61626c6520746f207472616e736665720000000000000000000000000000604482015290519081900360640190fd5b50565b6000828152600560205260408120548390600160a060020a0316331461056a576040805160e560020a62461bcd02815260206004820152602860248201527f536f75726365206d75737420626520746865206f7261636c65206f662074686560448201527f2072657175657374000000000000000000000000000000000000000000000000606482015290519081900360840190fd5b600081815260056020526040808220805473ffffffffffffffffffffffffffffffffffffffff191690555182917f7cc135e0cebb02c3480ae5d74d377283180a2601f8f644edf7987b009316c63a91a26105e4836105d8603268056bc75e2d6310000063ffffffff61092d16565b9063ffffffff61095c16565b91503031821161063757600854604051600160a060020a039091169083156108fc029084906000818181858888f19350505050158015610628573d6000803e3d6000fd5b50600754600160a060020a0316ff5b50505050565b6000828152600560205260409020548290600160a060020a031633146106d3576040805160e560020a62461bcd02815260206004820152602860248201527f536f75726365206d75737420626520746865206f7261636c65206f662074686560448201527f2072657175657374000000000000000000000000000000000000000000000000606482015290519081900360840190fd5b600081815260056020526040808220805473ffffffffffffffffffffffffffffffffffffffff191690555182917f7cc135e0cebb02c3480ae5d74d377283180a2601f8f644edf7987b009316c63a91a26040805183815290517f63ee1195bab5b1bb5a6687c4958d2213de675fbd6829dd20d8935f2801e215479181900360200190a1600a82101561076757610767610971565b505050565b60095481565b61077a611421565b6009546107a890307fb70da50400000000000000000000000000000000000000000000000000000000610b36565b90506108506040805190810160405280600381526020017f75726c0000000000000000000000000000000000000000000000000000000000815250606060405190810160405280602181526020017f68747470733a2f2f706173746562696e2e636f6d2f7261772f4e50584c33336d81526020017f6a0000000000000000000000000000000000000000000000000000000000000081525083610b619092919063ffffffff16565b604080518082018252600481527f70617468000000000000000000000000000000000000000000000000000000006020808301919091528251808401909352600783527f72616e6b696e6700000000000000000000000000000000000000000000000000908301526108ca9183919063ffffffff610b6116565b6108dc81670de0b6b3a7640000610b8b565b5050565b600854600160a060020a031681565b600654600160a060020a0316331461090657600080fd5b6104d181610bac565b600254600160a060020a031690565b600354600160a060020a031690565b600082151561093e57506000610956565b5081810281838281151561094e57fe5b041461095657fe5b92915050565b6000818381151561096957fe5b049392505050565b610979611421565b6009546109a790307f92cdaaf300000000000000000000000000000000000000000000000000000000610b36565b9050610a756040805190810160405280600381526020017f75726c0000000000000000000000000000000000000000000000000000000000815250608060405190810160405280604781526020017f68747470733a2f2f6d696e2d6170692e63727970746f636f6d706172652e636f81526020017f6d2f646174612f70726963653f6673796d3d455448267473796d733d5553442c81526020017f4555522c4a50590000000000000000000000000000000000000000000000000081525083610b619092919063ffffffff16565b604080518082018252600481527f70617468000000000000000000000000000000000000000000000000000000006020808301919091528251808401909352600383527f455552000000000000000000000000000000000000000000000000000000000090830152610aef9183919063ffffffff610b6116565b60408051808201909152600581527f74696d657300000000000000000000000000000000000000000000000000000060208201526108ca908290606463ffffffff610c2a16565b610b3e611421565b610b46611421565b610b588186868663ffffffff610c5416565b95945050505050565b6080830151610b76908363ffffffff610ca616565b6080830151610767908263ffffffff610ca616565b600354600090610ba590600160a060020a03168484610cc3565b9392505050565b600160a060020a0381161515610bc157600080fd5b600654604051600160a060020a038084169216907f8be0079c531659141344cd1fd0a4f28419497f9722a3daafe3b4186f6b6457e090600090a36006805473ffffffffffffffffffffffffffffffffffffffff1916600160a060020a0392909216919091179055565b6080830151610c3f908363ffffffff610ca616565b6080830151610767908263ffffffff610f6016565b610c5c611421565b610c6c8560800151610100610f89565b5050918352600160a060020a031660208301527bffffffffffffffffffffffffffffffffffffffffffffffffffffffff1916604082015290565b610cb38260038351610fc3565b610767828263ffffffff6110c016565b6000306004546040516020018083600160a060020a0316600160a060020a03166c01000000000000000000000000028152601401828152602001925050506040516020818303038152906040526040518082805190602001908083835b60208310610d3f5780518252601f199092019160209182019101610d20565b51815160209384036101000a6000190180199092169116179052604080519290940182900390912060045460608a015260008181526005909252838220805473ffffffffffffffffffffffffffffffffffffffff1916600160a060020a038c1617905592519295508594507fb5e6e01e79f91267dc17b4e6314d5d4d03593d2ceee0fbb452b750bd70ea5af99350919050a2600254600160a060020a0316634000aea08584610ded876110da565b6040518463ffffffff1660e060020a0281526004018084600160a060020a0316600160a060020a0316815260200183815260200180602001828103825283818151815260200191508051906020019080838360005b83811015610e5a578181015183820152602001610e42565b50505050905090810190601f168015610e875780820380516001836020036101000a031916815260200191505b50945050505050602060405180830381600087803b158015610ea857600080fd5b505af1158015610ebc573d6000803e3d6000fd5b505050506040513d6020811015610ed257600080fd5b50511515610f50576040805160e560020a62461bcd02815260206004820152602360248201527f756e61626c6520746f207472616e73666572416e6443616c6c20746f206f726160448201527f636c650000000000000000000000000000000000000000000000000000000000606482015290519081900360840190fd5b6004805460010190559392505050565b60008112610f7957610f7482600083610fc3565b6108dc565b6108dc8260018360001903610fc3565b610f91611456565b6020820615610fa65760208206602003820191505b506020828101829052604080518085526000815290920101905290565b60178111610fe557610fdf8360ff84811660200216831761125b565b50610767565b60ff811161101957611006836018602060ff8616021763ffffffff61125b16565b50610fdf8382600163ffffffff61127316565b61ffff811161104e5761103b836019602060ff8616021763ffffffff61125b16565b50610fdf8382600263ffffffff61127316565b63ffffffff81116110855761107283601a602060ff8616021763ffffffff61125b16565b50610fdf8382600463ffffffff61127316565b67ffffffffffffffff8111610767576110ad83601b602060ff8616021763ffffffff61125b16565b506106378382600863ffffffff61127316565b6110c8611456565b610ba583846000015151848551611294565b8051602080830151604080850151606086810151608088015151935160006024820181815260448301829052606483018a9052600160a060020a03881660848401527bffffffffffffffffffffffffffffffffffffffffffffffffffffffff19861660a484015260c48301849052600160e48401819052610100610104850190815288516101248601528851969b7f40429946000000000000000000000000000000000000000000000000000000009b949a8b9a91999098909796939591949361014401918501908083838e5b838110156111bf5781810151838201526020016111a7565b50505050905090810190601f1680156111ec5780820380516001836020036101000a031916815260200191505b5060408051601f198184030181529190526020810180517bffffffffffffffffffffffffffffffffffffffffffffffffffffffff167bffffffffffffffffffffffffffffffffffffffffffffffffffffffff19909d169c909c17909b5250989950505050505050505050919050565b611263611456565b610ba5838460000151518461134a565b61127b611456565b61128c848560000151518585611395565b949350505050565b61129c611456565b6000806000855185111515156112b157600080fd5b876020015185880111156112db576112db886112d38a602001518a89016113f3565b60020261140a565b8751805188602083010194508089880111156112f75788870182525b60208801935050505b602085106113225781518352601f199094019360209283019290910190611300565b505181516020949094036101000a600019018019909116931692909217909152509192915050565b611352611456565b6020840151831061136e5761136e84856020015160020261140a565b835180516020858301018481538186141561138a576001820183525b509495945050505050565b61139d611456565b6000856020015185840111156113bc576113bc8686850160020261140a565b6001836101000a03905085518386820101858319825116178152815185880111156113e75784870182525b50959695505050505050565b600081831115611404575081610956565b50919050565b81516114168383610f89565b5061063783826110c0565b6040805160c081018252600080825260208201819052918101829052606081019190915260808101611451611456565b905290565b604080518082019091526060815260006020820152905600a165627a7a72305820852582d9c2ac9163e4bdcb32d5c801ff0f5fa133b891b7eec8d6d02d9a3325d10029",
  "source": "pragma solidity ^0.4.24;\r\n\r\nimport \"openzeppelin-solidity/contracts/ownership/Ownable.sol\";\r\nimport \"chainlink/contracts/Chainlinked.sol\";\r\n\r\ncontract AliceAndBob is Chainlinked, Ownable {\r\n    using SafeMath for uint256;\r\n    uint256 constant private ORACLE_PAYMENT = 1 * LINK; // solium-disable-line zeppelin/no-arithmetic-operations\r\n\r\n    address public aliceAddress;\r\n    address public bobAddress;\r\n    bytes32 public jobId;\r\n\r\n    uint256 constant ESCROW_AMOUNT_USD = 50;\r\n\r\n    event DepositMade(uint256 amount);\r\n    event RankingReturned(uint256 rank);\r\n\r\n    constructor(\r\n        address _token,\r\n        address _oracle,\r\n        bytes32 _jobId,\r\n        address _alice,\r\n        address _bob\r\n    ) Ownable() public {\r\n        setLinkToken(_token);\r\n        setOracle(_oracle);\r\n        jobId = _jobId;\r\n        aliceAddress = _alice;\r\n        bobAddress = _bob;\r\n    }\r\n\r\n    function()\r\n    external\r\n    payable\r\n    onlyDepositor\r\n    {\r\n        emit DepositMade(msg.value);\r\n    }\r\n\r\n    function checkSiteListing() public {\r\n        Chainlink.Request memory req = newRequest(jobId, this, this.fulfillRanking.selector);\r\n        req.add(\"url\", \"https://pastebin.com/raw/NPXL33mj\");\r\n        req.add(\"path\", \"ranking\");\r\n        chainlinkRequest(req, ORACLE_PAYMENT);\r\n    }\r\n\r\n    function fulfillRanking(bytes32 _requestId, uint256 _ranking)\r\n    public\r\n    recordChainlinkFulfillment(_requestId)\r\n    {\r\n        emit RankingReturned(_ranking);\r\n        if (_ranking < 10) {\r\n            requestEthereumPrice();\r\n        }\r\n    }\r\n\r\n    function requestEthereumPrice()\r\n    internal\r\n    {\r\n        Chainlink.Request memory req = newRequest(jobId, this, this.fulfillEthereumPrice.selector);\r\n        req.add(\"url\", \"https://min-api.cryptocompare.com/data/price?fsym=ETH&tsyms=USD,EUR,JPY\");\r\n        req.add(\"path\", \"EUR\");\r\n        req.addInt(\"times\", 100);\r\n        chainlinkRequest(req, ORACLE_PAYMENT);\r\n    }\r\n\r\n    function fulfillEthereumPrice(bytes32 _requestId, uint256 _price)\r\n    public\r\n    recordChainlinkFulfillment(_requestId)\r\n    {\r\n        uint256 transferAmount = ESCROW_AMOUNT_USD.mul(10**20).div(_price);\r\n        if (transferAmount <= address(this).balance) {\r\n            bobAddress.transfer(transferAmount);\r\n            selfdestruct(aliceAddress);\r\n        }\r\n    }\r\n\r\n    function getChainlinkToken() public view returns (address) {\r\n        return chainlinkToken();\r\n    }\r\n\r\n    function getOracle() public view returns (address) {\r\n        return oracleAddress();\r\n    }\r\n\r\n    function withdrawLink() public onlyOwner {\r\n        LinkTokenInterface link = LinkTokenInterface(chainlinkToken());\r\n        require(link.transfer(msg.sender, link.balanceOf(address(this))), \"Unable to transfer\");\r\n    }\r\n\r\n    modifier onlyDepositor() {\r\n        require(msg.sender == aliceAddress, \"Only the depositor may call this function.\");\r\n        _;\r\n    }\r\n\r\n}",
  "sourcePath": "/home/jonny/dev/linkpool/example-chainlinks/contracts/AliceAndBob.sol",
  "compiler": {
    "name": "solc",
    "version": "0.4.24+commit.e67f0147.Emscripten.clang"
  },
  "schemaVersion": "3.0.8",
  "updatedAt": "2020-03-04T15:04:04.452Z",
  "devdoc": {
    "methods": {
      "renounceOwnership()": {
        "details": "Allows the current owner to relinquish control of the contract."
      },
      "transferOwnership(address)": {
        "details": "Allows the current owner to transfer control of the contract to a newOwner.",
        "params": {
          "_newOwner": "The address to transfer ownership to."
        }
      }
    }
  },
  "userdoc": {
    "methods": {
      "renounceOwnership()": {
        "notice": "Renouncing to ownership will leave the contract without an owner. It will not be possible to call the functions with the `onlyOwner` modifier anymore."
      }
    }
  }
}