{
  "contractName": "AlphaVantageConsumer",
  "abi": [
    {
      "constant": true,
      "inputs": [
        {
          "name": "",
          "type": "bytes32"
        }
      ],
      "name": "prices",
      "outputs": [
        {
          "name": "",
          "type": "uint256"
        }
      ],
      "payable": false,
      "stateMutability": "view",
      "type": "function",
      "signature": "0x60846bc6"
    },
    {
      "constant": false,
      "inputs": [],
      "name": "renounceOwnership",
      "outputs": [],
      "payable": false,
      "stateMutability": "nonpayable",
      "type": "function",
      "signature": "0x715018a6"
    },
    {
      "constant": true,
      "inputs": [],
      "name": "owner",
      "outputs": [
        {
          "name": "",
          "type": "address"
        }
      ],
      "payable": false,
      "stateMutability": "view",
      "type": "function",
      "signature": "0x8da5cb5b"
    },
    {
      "constant": true,
      "inputs": [],
      "name": "jobId",
      "outputs": [
        {
          "name": "",
          "type": "bytes32"
        }
      ],
      "payable": false,
      "stateMutability": "view",
      "type": "function",
      "signature": "0xc2939d97"
    },
    {
      "constant": false,
      "inputs": [
        {
          "name": "_newOwner",
          "type": "address"
        }
      ],
      "name": "transferOwnership",
      "outputs": [],
      "payable": false,
      "stateMutability": "nonpayable",
      "type": "function",
      "signature": "0xf2fde38b"
    },
    {
      "inputs": [
        {
          "name": "_oracle",
          "type": "address"
        },
        {
          "name": "_jobId",
          "type": "bytes32"
        }
      ],
      "payable": false,
      "stateMutability": "nonpayable",
      "type": "constructor",
      "signature": "constructor"
    },
    {
      "anonymous": false,
      "inputs": [
        {
          "indexed": true,
          "name": "requestId",
          "type": "bytes32"
        },
        {
          "indexed": false,
          "name": "price",
          "type": "uint256"
        }
      ],
      "name": "RequestFulfilled",
      "type": "event",
      "signature": "0x1ca8663227a7fe9919713a01d344afbb434e234f35a3e540a6ad924f88771f38"
    },
    {
      "anonymous": false,
      "inputs": [
        {
          "indexed": true,
          "name": "previousOwner",
          "type": "address"
        }
      ],
      "name": "OwnershipRenounced",
      "type": "event",
      "signature": "0xf8df31144d9c2f0f6b59d69b8b98abd5459d07f2742c4df920b25aae33c64820"
    },
    {
      "anonymous": false,
      "inputs": [
        {
          "indexed": true,
          "name": "previousOwner",
          "type": "address"
        },
        {
          "indexed": true,
          "name": "newOwner",
          "type": "address"
        }
      ],
      "name": "OwnershipTransferred",
      "type": "event",
      "signature": "0x8be0079c531659141344cd1fd0a4f28419497f9722a3daafe3b4186f6b6457e0"
    },
    {
      "anonymous": false,
      "inputs": [
        {
          "indexed": true,
          "name": "id",
          "type": "bytes32"
        }
      ],
      "name": "ChainlinkRequested",
      "type": "event",
      "signature": "0xb5e6e01e79f91267dc17b4e6314d5d4d03593d2ceee0fbb452b750bd70ea5af9"
    },
    {
      "anonymous": false,
      "inputs": [
        {
          "indexed": true,
          "name": "id",
          "type": "bytes32"
        }
      ],
      "name": "ChainlinkFulfilled",
      "type": "event",
      "signature": "0x7cc135e0cebb02c3480ae5d74d377283180a2601f8f644edf7987b009316c63a"
    },
    {
      "anonymous": false,
      "inputs": [
        {
          "indexed": true,
          "name": "id",
          "type": "bytes32"
        }
      ],
      "name": "ChainlinkCancelled",
      "type": "event",
      "signature": "0xe1fe3afa0f7f761ff0a8b89086790efd5140d2907ebd5b7ff6bfcb5e075fd4c5"
    },
    {
      "constant": false,
      "inputs": [
        {
          "name": "_from",
          "type": "string"
        },
        {
          "name": "_to",
          "type": "string"
        }
      ],
      "name": "requestExchangeRate",
      "outputs": [],
      "payable": false,
      "stateMutability": "nonpayable",
      "type": "function",
      "signature": "0xf935ae8b"
    },
    {
      "constant": false,
      "inputs": [
        {
          "name": "_requestId",
          "type": "bytes32"
        },
        {
          "name": "_payment",
          "type": "uint256"
        },
        {
          "name": "_callbackFunctionId",
          "type": "bytes4"
        },
        {
          "name": "_expiration",
          "type": "uint256"
        }
      ],
      "name": "cancelRequest",
      "outputs": [],
      "payable": false,
      "stateMutability": "nonpayable",
      "type": "function",
      "signature": "0xec65d0f8"
    },
    {
      "constant": false,
      "inputs": [
        {
          "name": "_requestId",
          "type": "bytes32"
        },
        {
          "name": "_price",
          "type": "uint256"
        }
      ],
      "name": "fulfill",
      "outputs": [],
      "payable": false,
      "stateMutability": "nonpayable",
      "type": "function",
      "signature": "0x4357855e"
    }
  ],
  "bytecode": "0x6080604052600160045534801561001557600080fd5b506040516040806113b983398101604052805160209091015160068054600160a060020a031916331790556100667320fe562d797a42dcb3399062ae9546cd06f63280640100000000610081810204565b610078826401000000006100a3810204565b600755506100c5565b60028054600160a060020a031916600160a060020a0392909216919091179055565b60038054600160a060020a031916600160a060020a0392909216919091179055565b6112e5806100d46000396000f3006080604052600436106100745763ffffffff60e060020a6000350416634357855e811461007957806360846bc614610096578063715018a6146100c05780638da5cb5b146100d5578063c2939d9714610106578063ec65d0f81461011b578063f2fde38b14610146578063f935ae8b14610167575b600080fd5b34801561008557600080fd5b506100946004356024356101fe565b005b3480156100a257600080fd5b506100ae60043561035b565b60408051918252519081900360200190f35b3480156100cc57600080fd5b5061009461036d565b3480156100e157600080fd5b506100ea6103db565b60408051600160a060020a039092168252519081900360200190f35b34801561011257600080fd5b506100ae6103ea565b34801561012757600080fd5b50610094600435602435600160e060020a0319604435166064356103f0565b34801561015257600080fd5b50610094600160a060020a0360043516610419565b34801561017357600080fd5b506040805160206004803580820135601f810184900484028501840190955284845261009494369492936024939284019190819084018382808284375050604080516020601f89358b018035918201839004830284018301909452808352979a99988101979196509182019450925082915084018382808284375094975061043c9650505050505050565b6000828152600560205260409020548290600160a060020a031633146102ab57604080517f08c379a000000000000000000000000000000000000000000000000000000000815260206004820152602860248201527f536f75726365206d75737420626520746865206f7261636c65206f662074686560448201527f2072657175657374000000000000000000000000000000000000000000000000606482015290519081900360840190fd5b600081815260056020526040808220805473ffffffffffffffffffffffffffffffffffffffff191690555182917f7cc135e0cebb02c3480ae5d74d377283180a2601f8f644edf7987b009316c63a91a260408051838152905184917f1ca8663227a7fe9919713a01d344afbb434e234f35a3e540a6ad924f88771f38919081900360200190a250600082815260086020818152604080842080548552600983529084209490945593825290925255565b60096020526000908152604090205481565b600654600160a060020a0316331461038457600080fd5b600654604051600160a060020a03909116907ff8df31144d9c2f0f6b59d69b8b98abd5459d07f2742c4df920b25aae33c6482090600090a26006805473ffffffffffffffffffffffffffffffffffffffff19169055565b600654600160a060020a031681565b60075481565b600654600160a060020a0316331461040757600080fd5b61041384848484610805565b50505050565b600654600160a060020a0316331461043057600080fd5b61043981610903565b50565b61044461126c565b6060600061045f60075430634357855e60e060020a02610981565b604080518082018252600881527f66756e6374696f6e0000000000000000000000000000000000000000000000006020808301919091528251808401909352601683527f43555252454e43595f45584348414e47455f5241544500000000000000000000908301529194506104db91859163ffffffff6109ac16565b60408051808201909152600d81527f66726f6d5f63757272656e63790000000000000000000000000000000000000060208201526105219084908763ffffffff6109ac16565b60408051808201909152600b81527f746f5f63757272656e637900000000000000000000000000000000000000000060208201526105679084908663ffffffff6109ac16565b6040805160028082526060820190925290816020015b606081526020019060019003908161057d5790505091506040805190810160405280601f81526020017f5265616c74696d652043757272656e63792045786368616e67652052617465008152508260008151811015156105d957fe5b906020019060200201819052506040805190810160405280601081526020017f352e2045786368616e676520526174650000000000000000000000000000000081525082600181518110151561062b57fe5b906020019060200201819052506106826040805190810160405280600881526020017f636f70795061746800000000000000000000000000000000000000000000000081525083856109db9092919063ffffffff16565b60408051808201909152600581527f74696d657300000000000000000000000000000000000000000000000000000060208201526106c9908490606463ffffffff610a4e16565b6106e36106d4610a78565b84670de0b6b3a7640000610a87565b905084846040516020018083805190602001908083835b602083106107195780518252601f1990920191602091820191016106fa565b51815160209384036101000a600019018019909216911617905285519190930192850191508083835b602083106107615780518252601f199092019160209182019101610742565b6001836020036101000a038019825116818451168082178552505050505050905001925050506040516020818303038152906040526040518082805190602001908083835b602083106107c55780518252601f1990920191602091820191016107a6565b51815160209384036101000a6000190180199092169116179052604080519290940182900390912060009687526008909152919094205550505050505050565b600084815260056020526040808220805473ffffffffffffffffffffffffffffffffffffffff1981169091559051600160a060020a039091169186917fe1fe3afa0f7f761ff0a8b89086790efd5140d2907ebd5b7ff6bfcb5e075fd4c59190a2604080517f6ee4d5530000000000000000000000000000000000000000000000000000000081526004810187905260248101869052600160e060020a031985166044820152606481018490529051600160a060020a03831691636ee4d55391608480830192600092919082900301818387803b1580156108e457600080fd5b505af11580156108f8573d6000803e3d6000fd5b505050505050505050565b600160a060020a038116151561091857600080fd5b600654604051600160a060020a038084169216907f8be0079c531659141344cd1fd0a4f28419497f9722a3daafe3b4186f6b6457e090600090a36006805473ffffffffffffffffffffffffffffffffffffffff1916600160a060020a0392909216919091179055565b61098961126c565b61099161126c565b6109a38186868663ffffffff610d3b16565b95945050505050565b60808301516109c1908363ffffffff610d7816565b60808301516109d6908263ffffffff610d7816565b505050565b60808301516000906109f3908463ffffffff610d7816565b610a008460800151610d95565b5060005b8151811015610a4157610a398282815181101515610a1e57fe5b6020908102909101015160808601519063ffffffff610d7816565b600101610a04565b6104138460800151610da0565b6080830151610a63908363ffffffff610d7816565b60808301516109d6908263ffffffff610dab16565b600354600160a060020a031690565b6000306004546040516020018083600160a060020a0316600160a060020a03166c01000000000000000000000000028152601401828152602001925050506040516020818303038152906040526040518082805190602001908083835b60208310610b035780518252601f199092019160209182019101610ae4565b51815160209384036101000a6000190180199092169116179052604080519290940182900390912060045460608a015260008181526005909252838220805473ffffffffffffffffffffffffffffffffffffffff1916600160a060020a038c1617905592519295508594507fb5e6e01e79f91267dc17b4e6314d5d4d03593d2ceee0fbb452b750bd70ea5af99350919050a2600254600160a060020a0316634000aea08584610bb187610dd8565b6040518463ffffffff1660e060020a0281526004018084600160a060020a0316600160a060020a0316815260200183815260200180602001828103825283818151815260200191508051906020019080838360005b83811015610c1e578181015183820152602001610c06565b50505050905090810190601f168015610c4b5780820380516001836020036101000a031916815260200191505b50945050505050602060405180830381600087803b158015610c6c57600080fd5b505af1158015610c80573d6000803e3d6000fd5b505050506040513d6020811015610c9657600080fd5b50511515610d2b57604080517f08c379a000000000000000000000000000000000000000000000000000000000815260206004820152602360248201527f756e61626c6520746f207472616e73666572416e6443616c6c20746f206f726160448201527f636c650000000000000000000000000000000000000000000000000000000000606482015290519081900360840190fd5b6004805460010190559392505050565b610d4361126c565b610d538560800151610100610f2f565b5050918352600160a060020a03166020830152600160e060020a031916604082015290565b610d858260038351610f6f565b6109d6828263ffffffff61106c16565b61043981600461108d565b61043981600761108d565b60008112610dc457610dbf82600083610f6f565b610dd4565b610dd48260018360001903610f6f565b5050565b8051602080830151604080850151606086810151608088015151935160006024820181815260448301829052606483018a9052600160a060020a0388166084840152600160e060020a0319861660a484015260c48301849052600160e48401819052610100610104850190815288516101248601528851969b7f40429946000000000000000000000000000000000000000000000000000000009b949a8b9a91999098909796939591949361014401918501908083838e5b83811015610ea8578181015183820152602001610e90565b50505050905090810190601f168015610ed55780820380516001836020036101000a031916815260200191505b5060408051601f198184030181529190526020810180517bffffffffffffffffffffffffffffffffffffffffffffffffffffffff16600160e060020a0319909d169c909c17909b5250989950505050505050505050919050565b610f376112a1565b6020820615610f4c5760208206602003820191505b506020808301829052604080518085526000815283019091019052815b92915050565b60178111610f9157610f8b8360ff8481166020021683176110a6565b506109d6565b60ff8111610fc557610fb2836018602060ff8616021763ffffffff6110a616565b50610f8b8382600163ffffffff6110be16565b61ffff8111610ffa57610fe7836019602060ff8616021763ffffffff6110a616565b50610f8b8382600263ffffffff6110be16565b63ffffffff81116110315761101e83601a602060ff8616021763ffffffff6110a616565b50610f8b8382600463ffffffff6110be16565b67ffffffffffffffff81116109d65761105983601b602060ff8616021763ffffffff6110a616565b506104138382600863ffffffff6110be16565b6110746112a1565b611086838460000151518485516110df565b9392505050565b6109d682601f602060ff8516021763ffffffff6110a616565b6110ae6112a1565b6110868384600001515184611195565b6110c66112a1565b6110d78485600001515185856111e0565b949350505050565b6110e76112a1565b6000806000855185111515156110fc57600080fd5b87602001518588011115611126576111268861111e8a602001518a890161123e565b600202611255565b8751805188602083010194508089880111156111425788870182525b60208801935050505b6020851061116d5781518352601f19909401936020928301929091019061114b565b505181516020949094036101000a600019018019909116931692909217909152509192915050565b61119d6112a1565b602084015183106111b9576111b9848560200151600202611255565b83518051602085830101848153818614156111d5576001820183525b509495945050505050565b6111e86112a1565b6000856020015185840111156112075761120786868501600202611255565b6001836101000a03905085518386820101858319825116178152815185880111156112325784870182525b50959695505050505050565b60008183111561124f575081610f69565b50919050565b81516112618383610f2f565b50610413838261106c565b6040805160c08101825260008082526020820181905291810182905260608101919091526080810161129c6112a1565b905290565b604080518082019091526060815260006020820152905600a165627a7a72305820deddf081dc56e23c63cbf05b1106da34fd9d9cb81c651b65254c1719c89f59870029",
  "source": "pragma solidity ^0.4.24;\r\n\r\nimport \"openzeppelin-solidity/contracts/ownership/Ownable.sol\";\r\nimport \"chainlink/contracts/Chainlinked.sol\";\r\n\r\ncontract AlphaVantageConsumer is Chainlinked, Ownable {\r\n    // solium-disable-next-line zeppelin/no-arithmetic-operations\r\n    uint256 constant private ORACLE_PAYMENT = 1 * LINK;\r\n\r\n    bytes32 public jobId;\r\n\r\n    event RequestFulfilled(\r\n        bytes32 indexed requestId,\r\n        uint256 price\r\n    );\r\n\r\n    mapping(bytes32 => bytes32) requests;\r\n    mapping(bytes32 => uint256) public prices;\r\n\r\n    constructor(address _oracle, bytes32 _jobId) public {\r\n        setLinkToken(0x20fE562d797A42Dcb3399062AE9546cd06f63280);\r\n        setOracle(_oracle);\r\n        jobId = _jobId;\r\n    }\r\n\r\n    /**\r\n        @dev Request a currency exchange rate\r\n        @dev This includes Forex and Cryptocurrencies\r\n        @param _from The currency you want to use as the base\r\n        @param _to The currency to get in quote\r\n     */\r\n    function requestExchangeRate(string _from, string _to) public {\r\n        Chainlink.Request memory req = newRequest(jobId, this, this.fulfill.selector);\r\n        req.add(\"function\", \"CURRENCY_EXCHANGE_RATE\");\r\n        req.add(\"from_currency\", _from);\r\n        req.add(\"to_currency\", _to);\r\n        string[] memory path = new string[](2);\r\n        path[0] = \"Realtime Currency Exchange Rate\";\r\n        path[1] = \"5. Exchange Rate\";\r\n        req.addStringArray(\"copyPath\", path);\r\n        req.addInt(\"times\", 100);\r\n        bytes32 requestId = chainlinkRequestTo(oracleAddress(), req, ORACLE_PAYMENT);\r\n        requests[requestId] = keccak256(abi.encodePacked(_from, _to));\r\n    }\r\n\r\n    function cancelRequest(\r\n        bytes32 _requestId,\r\n        uint256 _payment,\r\n        bytes4 _callbackFunctionId,\r\n        uint256 _expiration\r\n    )\r\n    public\r\n    onlyOwner\r\n    {\r\n        cancelChainlinkRequest(_requestId, _payment, _callbackFunctionId, _expiration);\r\n    }\r\n\r\n    function fulfill(bytes32 _requestId, uint256 _price)\r\n    public\r\n    recordChainlinkFulfillment(_requestId)\r\n    {\r\n        emit RequestFulfilled(_requestId, _price);\r\n        prices[requests[_requestId]] = _price;\r\n        delete requests[_requestId];\r\n    }\r\n\r\n}",
  "sourcePath": "/c/dev/example-chainlinks/contracts/AlphaVantageConsumer.sol",
  "compiler": {
    "name": "solc",
    "version": "0.4.24+commit.e67f0147.Emscripten.clang"
  },
  "schemaVersion": "3.0.8",
  "updatedAt": "2019-04-27T01:34:32.461Z",
  "devdoc": {
    "methods": {
      "renounceOwnership()": {
        "details": "Allows the current owner to relinquish control of the contract."
      },
      "requestExchangeRate(string,string)": {
        "details": "Request a currency exchange rate\rThis includes Forex and Cryptocurrencies\r",
        "params": {
          "_from": "The currency you want to use as the base\r",
          "_to": "The currency to get in quote\r"
        }
      },
      "transferOwnership(address)": {
        "details": "Allows the current owner to transfer control of the contract to a newOwner.",
        "params": {
          "_newOwner": "The address to transfer ownership to."
        }
      }
    }
  },
  "userdoc": {
    "methods": {
      "renounceOwnership()": {
        "notice": "Renouncing to ownership will leave the contract without an owner. It will not be possible to call the functions with the `onlyOwner` modifier anymore."
      }
    }
  }
}