{
  "contractName": "APIAggregatorConsumer",
  "abi": [
    {
      "constant": true,
      "inputs": [
        {
          "name": "",
          "type": "bytes32"
        }
      ],
      "name": "prices",
      "outputs": [
        {
          "name": "",
          "type": "uint256"
        }
      ],
      "payable": false,
      "stateMutability": "view",
      "type": "function",
      "signature": "0x60846bc6"
    },
    {
      "constant": false,
      "inputs": [],
      "name": "renounceOwnership",
      "outputs": [],
      "payable": false,
      "stateMutability": "nonpayable",
      "type": "function",
      "signature": "0x715018a6"
    },
    {
      "constant": true,
      "inputs": [],
      "name": "owner",
      "outputs": [
        {
          "name": "",
          "type": "address"
        }
      ],
      "payable": false,
      "stateMutability": "view",
      "type": "function",
      "signature": "0x8da5cb5b"
    },
    {
      "constant": true,
      "inputs": [],
      "name": "jobId",
      "outputs": [
        {
          "name": "",
          "type": "bytes32"
        }
      ],
      "payable": false,
      "stateMutability": "view",
      "type": "function",
      "signature": "0xc2939d97"
    },
    {
      "constant": false,
      "inputs": [
        {
          "name": "_newOwner",
          "type": "address"
        }
      ],
      "name": "transferOwnership",
      "outputs": [],
      "payable": false,
      "stateMutability": "nonpayable",
      "type": "function",
      "signature": "0xf2fde38b"
    },
    {
      "inputs": [
        {
          "name": "_token",
          "type": "address"
        },
        {
          "name": "_oracle",
          "type": "address"
        },
        {
          "name": "_jobId",
          "type": "bytes32"
        }
      ],
      "payable": false,
      "stateMutability": "nonpayable",
      "type": "constructor",
      "signature": "constructor"
    },
    {
      "anonymous": false,
      "inputs": [
        {
          "indexed": true,
          "name": "requestId",
          "type": "bytes32"
        },
        {
          "indexed": false,
          "name": "price",
          "type": "uint256"
        }
      ],
      "name": "RequestFulfilled",
      "type": "event",
      "signature": "0x1ca8663227a7fe9919713a01d344afbb434e234f35a3e540a6ad924f88771f38"
    },
    {
      "anonymous": false,
      "inputs": [
        {
          "indexed": true,
          "name": "previousOwner",
          "type": "address"
        }
      ],
      "name": "OwnershipRenounced",
      "type": "event",
      "signature": "0xf8df31144d9c2f0f6b59d69b8b98abd5459d07f2742c4df920b25aae33c64820"
    },
    {
      "anonymous": false,
      "inputs": [
        {
          "indexed": true,
          "name": "previousOwner",
          "type": "address"
        },
        {
          "indexed": true,
          "name": "newOwner",
          "type": "address"
        }
      ],
      "name": "OwnershipTransferred",
      "type": "event",
      "signature": "0x8be0079c531659141344cd1fd0a4f28419497f9722a3daafe3b4186f6b6457e0"
    },
    {
      "anonymous": false,
      "inputs": [
        {
          "indexed": true,
          "name": "id",
          "type": "bytes32"
        }
      ],
      "name": "ChainlinkRequested",
      "type": "event",
      "signature": "0xb5e6e01e79f91267dc17b4e6314d5d4d03593d2ceee0fbb452b750bd70ea5af9"
    },
    {
      "anonymous": false,
      "inputs": [
        {
          "indexed": true,
          "name": "id",
          "type": "bytes32"
        }
      ],
      "name": "ChainlinkFulfilled",
      "type": "event",
      "signature": "0x7cc135e0cebb02c3480ae5d74d377283180a2601f8f644edf7987b009316c63a"
    },
    {
      "anonymous": false,
      "inputs": [
        {
          "indexed": true,
          "name": "id",
          "type": "bytes32"
        }
      ],
      "name": "ChainlinkCancelled",
      "type": "event",
      "signature": "0xe1fe3afa0f7f761ff0a8b89086790efd5140d2907ebd5b7ff6bfcb5e075fd4c5"
    },
    {
      "constant": false,
      "inputs": [],
      "name": "requestETHUSDPrice",
      "outputs": [],
      "payable": false,
      "stateMutability": "nonpayable",
      "type": "function",
      "signature": "0xbcf40ad6"
    },
    {
      "constant": false,
      "inputs": [],
      "name": "requestBTCUSDPrice",
      "outputs": [],
      "payable": false,
      "stateMutability": "nonpayable",
      "type": "function",
      "signature": "0x6da1581f"
    },
    {
      "constant": false,
      "inputs": [
        {
          "name": "_requestId",
          "type": "bytes32"
        },
        {
          "name": "_payment",
          "type": "uint256"
        },
        {
          "name": "_callbackFunctionId",
          "type": "bytes4"
        },
        {
          "name": "_expiration",
          "type": "uint256"
        }
      ],
      "name": "cancelRequest",
      "outputs": [],
      "payable": false,
      "stateMutability": "nonpayable",
      "type": "function",
      "signature": "0xec65d0f8"
    },
    {
      "constant": false,
      "inputs": [
        {
          "name": "_requestId",
          "type": "bytes32"
        },
        {
          "name": "_price",
          "type": "uint256"
        }
      ],
      "name": "fulfill",
      "outputs": [],
      "payable": false,
      "stateMutability": "nonpayable",
      "type": "function",
      "signature": "0x4357855e"
    }
  ],
  "bytecode": "0x6080604052600160045534801561001557600080fd5b5060405160608061181883398101604090815281516020830151919092015160068054600160a060020a0319163317905561005883640100000000610075810204565b61006a82640100000000610097810204565b600755506100b99050565b60028054600160a060020a031916600160a060020a0392909216919091179055565b60038054600160a060020a031916600160a060020a0392909216919091179055565b611750806100c86000396000f30060806040526004361061007f5763ffffffff60e060020a6000350416634357855e811461008457806360846bc6146100a15780636da1581f146100cb578063715018a6146100e05780638da5cb5b146100f5578063bcf40ad614610126578063c2939d971461013b578063ec65d0f814610150578063f2fde38b1461017b575b600080fd5b34801561009057600080fd5b5061009f60043560243561019c565b005b3480156100ad57600080fd5b506100b96004356102f9565b60408051918252519081900360200190f35b3480156100d757600080fd5b5061009f61030b565b3480156100ec57600080fd5b5061009f61074f565b34801561010157600080fd5b5061010a6107bd565b60408051600160a060020a039092168252519081900360200190f35b34801561013257600080fd5b5061009f6107cc565b34801561014757600080fd5b506100b9610c08565b34801561015c57600080fd5b5061009f600435602435600160e060020a031960443516606435610c0e565b34801561018757600080fd5b5061009f600160a060020a0360043516610c37565b6000828152600560205260409020548290600160a060020a0316331461024957604080517f08c379a000000000000000000000000000000000000000000000000000000000815260206004820152602860248201527f536f75726365206d75737420626520746865206f7261636c65206f662074686560448201527f2072657175657374000000000000000000000000000000000000000000000000606482015290519081900360840190fd5b600081815260056020526040808220805473ffffffffffffffffffffffffffffffffffffffff191690555182917f7cc135e0cebb02c3480ae5d74d377283180a2601f8f644edf7987b009316c63a91a260408051838152905184917f1ca8663227a7fe9919713a01d344afbb434e234f35a3e540a6ad924f88771f38919081900360200190a250600082815260086020818152604080842080548552600983529084209490945593825290925255565b60096020526000908152604090205481565b6103136116d7565b606080600061032f60075430634357855e60e060020a02610c5a565b60408051600280825260608201909252919550816020015b6060815260200190600190039081610347579050509250606060405190810160405280602e81526020017f68747470733a2f2f7777772e6269747374616d702e6e65742f6170692f76322f81526020017f7469636b65722f6274637573642f0000000000000000000000000000000000008152508360008151811015156103ca57fe5b90602001906020020181905250606060405190810160405280603481526020017f68747470733a2f2f6170692e70726f2e636f696e626173652e636f6d2f70726f81526020017f64756374732f6274632d7573642f7469636b657200000000000000000000000081525083600181518110151561044357fe5b9060200190602002018190525061049a6040805190810160405280600381526020017f61706900000000000000000000000000000000000000000000000000000000008152508486610c859092919063ffffffff16565b6040805160028082526060820190925290816020015b60608152602001906001900390816104b05790505091506040805190810160405280600681526020017f242e6c617374000000000000000000000000000000000000000000000000000081525082600081518110151561050c57fe5b906020019060200201819052506040805190810160405280600781526020017f242e70726963650000000000000000000000000000000000000000000000000081525082600181518110151561055e57fe5b906020019060200201819052506105b56040805190810160405280600581526020017f70617468730000000000000000000000000000000000000000000000000000008152508386610c859092919063ffffffff16565b604080518082018252600f81527f6167677265676174696f6e5479706500000000000000000000000000000000006020808301919091528251808401909352600683527f6d656469616e00000000000000000000000000000000000000000000000000009083015261062f9186919063ffffffff610cf816565b604080518082018252600881527f636f7079506174680000000000000000000000000000000000000000000000006020808301919091528251808401909352600e83527f61676772656761746556616c7565000000000000000000000000000000000000908301526106a99186919063ffffffff610cf816565b60408051808201909152600581527f74696d657300000000000000000000000000000000000000000000000000000060208201526106f0908590606463ffffffff610d2716565b61070a6106fb610d51565b85670de0b6b3a7640000610d60565b604080517f4254435553440000000000000000000000000000000000000000000000000000815281519081900360060190206000928352600860205291205550505050565b600654600160a060020a0316331461076657600080fd5b600654604051600160a060020a03909116907ff8df31144d9c2f0f6b59d69b8b98abd5459d07f2742c4df920b25aae33c6482090600090a26006805473ffffffffffffffffffffffffffffffffffffffff19169055565b600654600160a060020a031681565b6107d46116d7565b60608060006107f060075430634357855e60e060020a02610c5a565b60408051600280825260608201909252919550816020015b6060815260200190600190039081610808579050509250606060405190810160405280602e81526020017f68747470733a2f2f7777772e6269747374616d702e6e65742f6170692f76322f81526020017f7469636b65722f6574687573642f00000000000000000000000000000000000081525083600081518110151561088b57fe5b90602001906020020181905250606060405190810160405280603481526020017f68747470733a2f2f6170692e70726f2e636f696e626173652e636f6d2f70726f81526020017f64756374732f6574682d7573642f7469636b657200000000000000000000000081525083600181518110151561090457fe5b9060200190602002018190525061095b6040805190810160405280600381526020017f61706900000000000000000000000000000000000000000000000000000000008152508486610c859092919063ffffffff16565b6040805160028082526060820190925290816020015b60608152602001906001900390816109715790505091506040805190810160405280600681526020017f242e6c61737400000000000000000000000000000000000000000000000000008152508260008151811015156109cd57fe5b906020019060200201819052506040805190810160405280600781526020017f242e707269636500000000000000000000000000000000000000000000000000815250826001815181101515610a1f57fe5b90602001906020020181905250610a766040805190810160405280600581526020017f70617468730000000000000000000000000000000000000000000000000000008152508386610c859092919063ffffffff16565b604080518082018252600f81527f6167677265676174696f6e5479706500000000000000000000000000000000006020808301919091528251808401909352600683527f6d656469616e000000000000000000000000000000000000000000000000000090830152610af09186919063ffffffff610cf816565b604080518082018252600881527f636f7079506174680000000000000000000000000000000000000000000000006020808301919091528251808401909352600e83527f61676772656761746556616c756500000000000000000000000000000000000090830152610b6a9186919063ffffffff610cf816565b60408051808201909152600581527f74696d65730000000000000000000000000000000000000000000000000000006020820152610bb1908590606463ffffffff610d2716565b610bc384670de0b6b3a7640000611014565b604080517f4554485553440000000000000000000000000000000000000000000000000000815281519081900360060190206000928352600860205291205550505050565b60075481565b600654600160a060020a03163314610c2557600080fd5b610c3184848484611037565b50505050565b600654600160a060020a03163314610c4e57600080fd5b610c5781611135565b50565b610c626116d7565b610c6a6116d7565b610c7c8186868663ffffffff6111b316565b95945050505050565b6080830151600090610c9d908463ffffffff6111f016565b610caa846080015161120d565b5060005b8151811015610ceb57610ce38282815181101515610cc857fe5b6020908102909101015160808601519063ffffffff6111f016565b600101610cae565b610c318460800151611218565b6080830151610d0d908363ffffffff6111f016565b6080830151610d22908263ffffffff6111f016565b505050565b6080830151610d3c908363ffffffff6111f016565b6080830151610d22908263ffffffff61122316565b600354600160a060020a031690565b6000306004546040516020018083600160a060020a0316600160a060020a03166c01000000000000000000000000028152601401828152602001925050506040516020818303038152906040526040518082805190602001908083835b60208310610ddc5780518252601f199092019160209182019101610dbd565b51815160209384036101000a6000190180199092169116179052604080519290940182900390912060045460608a015260008181526005909252838220805473ffffffffffffffffffffffffffffffffffffffff1916600160a060020a038c1617905592519295508594507fb5e6e01e79f91267dc17b4e6314d5d4d03593d2ceee0fbb452b750bd70ea5af99350919050a2600254600160a060020a0316634000aea08584610e8a87611250565b6040518463ffffffff1660e060020a0281526004018084600160a060020a0316600160a060020a0316815260200183815260200180602001828103825283818151815260200191508051906020019080838360005b83811015610ef7578181015183820152602001610edf565b50505050905090810190601f168015610f245780820380516001836020036101000a031916815260200191505b50945050505050602060405180830381600087803b158015610f4557600080fd5b505af1158015610f59573d6000803e3d6000fd5b505050506040513d6020811015610f6f57600080fd5b5051151561100457604080517f08c379a000000000000000000000000000000000000000000000000000000000815260206004820152602360248201527f756e61626c6520746f207472616e73666572416e6443616c6c20746f206f726160448201527f636c650000000000000000000000000000000000000000000000000000000000606482015290519081900360840190fd5b6004805460010190559392505050565b60035460009061102e90600160a060020a03168484610d60565b90505b92915050565b600084815260056020526040808220805473ffffffffffffffffffffffffffffffffffffffff1981169091559051600160a060020a039091169186917fe1fe3afa0f7f761ff0a8b89086790efd5140d2907ebd5b7ff6bfcb5e075fd4c59190a2604080517f6ee4d5530000000000000000000000000000000000000000000000000000000081526004810187905260248101869052600160e060020a031985166044820152606481018490529051600160a060020a03831691636ee4d55391608480830192600092919082900301818387803b15801561111657600080fd5b505af115801561112a573d6000803e3d6000fd5b505050505050505050565b600160a060020a038116151561114a57600080fd5b600654604051600160a060020a038084169216907f8be0079c531659141344cd1fd0a4f28419497f9722a3daafe3b4186f6b6457e090600090a36006805473ffffffffffffffffffffffffffffffffffffffff1916600160a060020a0392909216919091179055565b6111bb6116d7565b6111cb85608001516101006113a7565b5050918352600160a060020a03166020830152600160e060020a031916604082015290565b6111fd82600383516113e1565b610d22828263ffffffff6114de16565b610c578160046114f8565b610c578160076114f8565b6000811261123c57611237826000836113e1565b61124c565b61124c82600183600019036113e1565b5050565b8051602080830151604080850151606086810151608088015151935160006024820181815260448301829052606483018a9052600160a060020a0388166084840152600160e060020a0319861660a484015260c48301849052600160e48401819052610100610104850190815288516101248601528851969b7f40429946000000000000000000000000000000000000000000000000000000009b949a8b9a91999098909796939591949361014401918501908083838e5b83811015611320578181015183820152602001611308565b50505050905090810190601f16801561134d5780820380516001836020036101000a031916815260200191505b5060408051601f198184030181529190526020810180517bffffffffffffffffffffffffffffffffffffffffffffffffffffffff16600160e060020a0319909d169c909c17909b5250989950505050505050505050919050565b6113af61170c565b60208206156113c45760208206602003820191505b506020828101829052604080518085526000815290920101905290565b60178111611403576113fd8360ff848116602002168317611511565b50610d22565b60ff811161143757611424836018602060ff8616021763ffffffff61151116565b506113fd8382600163ffffffff61152916565b61ffff811161146c57611459836019602060ff8616021763ffffffff61151116565b506113fd8382600263ffffffff61152916565b63ffffffff81116114a35761149083601a602060ff8616021763ffffffff61151116565b506113fd8382600463ffffffff61152916565b67ffffffffffffffff8111610d22576114cb83601b602060ff8616021763ffffffff61151116565b50610c318382600863ffffffff61152916565b6114e661170c565b61102e8384600001515184855161154a565b610d2282601f602060ff8516021763ffffffff61151116565b61151961170c565b61102e8384600001515184611600565b61153161170c565b61154284856000015151858561164b565b949350505050565b61155261170c565b60008060008551851115151561156757600080fd5b8760200151858801111561159157611591886115898a602001518a89016116a9565b6002026116c0565b8751805188602083010194508089880111156115ad5788870182525b60208801935050505b602085106115d85781518352601f1990940193602092830192909101906115b6565b505181516020949094036101000a600019018019909116931692909217909152509192915050565b61160861170c565b60208401518310611624576116248485602001516002026116c0565b8351805160208583010184815381861415611640576001820183525b509495945050505050565b61165361170c565b60008560200151858401111561167257611672868685016002026116c0565b6001836101000a039050855183868201018583198251161781528151858801111561169d5784870182525b50959695505050505050565b6000818311156116ba575081611031565b50919050565b81516116cc83836113a7565b50610c3183826114de565b6040805160c08101825260008082526020820181905291810182905260608101919091526080810161170761170c565b905290565b604080518082019091526060815260006020820152905600a165627a7a72305820dcfee50e985a8612805a7a489c83e49e1672ec6b8c926dc27fa340eb8507ce4d0029",
  "source": "pragma solidity ^0.4.24;\r\n\r\nimport \"openzeppelin-solidity/contracts/ownership/Ownable.sol\";\r\nimport \"chainlink/contracts/Chainlinked.sol\";\r\n\r\ncontract APIAggregatorConsumer is Chainlinked, Ownable {\r\n    // solium-disable-next-line zeppelin/no-arithmetic-operations\r\n    uint256 constant private ORACLE_PAYMENT = 1 * LINK;\r\n\r\n    bytes32 public jobId;\r\n\r\n    event RequestFulfilled(\r\n        bytes32 indexed requestId,\r\n        uint256 price\r\n    );\r\n\r\n    mapping(bytes32 => bytes32) requests;\r\n    mapping(bytes32 => uint256) public prices;\r\n\r\n    constructor(address _token, address _oracle, bytes32 _jobId) public {\r\n        setLinkToken(_token);\r\n        setOracle(_oracle);\r\n        jobId = _jobId;\r\n    }\r\n\r\n    /**\r\n        @dev Request the price of ETH using Bitstamp and Coinbase, returning a median value\r\n        @dev Value is multiplied by 100 to include 2 decimal places\r\n    */\r\n    function requestETHUSDPrice() public {\r\n        Chainlink.Request memory req = newRequest(jobId, this, this.fulfill.selector);\r\n        string[] memory api = new string[](2);\r\n        api[0] = \"https://www.bitstamp.net/api/v2/ticker/ethusd/\";\r\n        api[1] = \"https://api.pro.coinbase.com/products/eth-usd/ticker\";\r\n        req.addStringArray(\"api\", api);\r\n        string[] memory paths = new string[](2);\r\n        paths[0] = \"$.last\";\r\n        paths[1] = \"$.price\";\r\n        req.addStringArray(\"paths\", paths);\r\n        req.add(\"aggregationType\", \"median\");\r\n        req.add(\"copyPath\", \"aggregateValue\");\r\n        req.addInt(\"times\", 100);\r\n        bytes32 requestId = chainlinkRequest(req, ORACLE_PAYMENT);\r\n        requests[requestId] = keccak256(\"ETHUSD\");\r\n    }\r\n\r\n    /**\r\n        @dev Request the price of BTC using Bitstamp and Coinbase, returning a median value\r\n        @dev Value is multiplied by 100 to include 2 decimal places\r\n    */\r\n    function requestBTCUSDPrice() public {\r\n        Chainlink.Request memory req = newRequest(jobId, this, this.fulfill.selector);\r\n        string[] memory api = new string[](2);\r\n        api[0] = \"https://www.bitstamp.net/api/v2/ticker/btcusd/\";\r\n        api[1] = \"https://api.pro.coinbase.com/products/btc-usd/ticker\";\r\n        req.addStringArray(\"api\", api);\r\n        string[] memory paths = new string[](2);\r\n        paths[0] = \"$.last\";\r\n        paths[1] = \"$.price\";\r\n        req.addStringArray(\"paths\", paths);\r\n        req.add(\"aggregationType\", \"median\");\r\n        req.add(\"copyPath\", \"aggregateValue\");\r\n        req.addInt(\"times\", 100);\r\n        bytes32 requestId = chainlinkRequestTo(oracleAddress(), req, ORACLE_PAYMENT);\r\n        requests[requestId] = keccak256(\"BTCUSD\");\r\n    }\r\n\r\n    function cancelRequest(\r\n        bytes32 _requestId,\r\n        uint256 _payment,\r\n        bytes4 _callbackFunctionId,\r\n        uint256 _expiration\r\n    )\r\n    public\r\n    onlyOwner\r\n    {\r\n        cancelChainlinkRequest(_requestId, _payment, _callbackFunctionId, _expiration);\r\n    }\r\n\r\n    function fulfill(bytes32 _requestId, uint256 _price)\r\n    public\r\n    recordChainlinkFulfillment(_requestId)\r\n    {\r\n        emit RequestFulfilled(_requestId, _price);\r\n        prices[requests[_requestId]] = _price;\r\n        delete requests[_requestId];\r\n    }\r\n\r\n}",
  "sourcePath": "/c/dev/example-chainlinks/contracts/APIAggregatorConsumer.sol",
  "compiler": {
    "name": "solc",
    "version": "0.4.24+commit.e67f0147.Emscripten.clang"
  },
  "schemaVersion": "3.0.8",
  "updatedAt": "2019-07-16T09:12:45.804Z",
  "devdoc": {
    "methods": {
      "renounceOwnership()": {
        "details": "Allows the current owner to relinquish control of the contract."
      },
      "transferOwnership(address)": {
        "details": "Allows the current owner to transfer control of the contract to a newOwner.",
        "params": {
          "_newOwner": "The address to transfer ownership to."
        }
      },
      "requestBTCUSDPrice()": {
        "details": "Request the price of BTC using Bitstamp and Coinbase, returning a median value\rValue is multiplied by 100 to include 2 decimal places\r"
      },
      "requestETHUSDPrice()": {
        "details": "Request the price of ETH using Bitstamp and Coinbase, returning a median value\rValue is multiplied by 100 to include 2 decimal places\r"
      }
    }
  },
  "userdoc": {
    "methods": {
      "renounceOwnership()": {
        "notice": "Renouncing to ownership will leave the contract without an owner. It will not be possible to call the functions with the `onlyOwner` modifier anymore."
      }
    }
  }
}