{
  "contractName": "APIAggregatorConsumer",
  "abi": [
    {
      "constant": true,
      "inputs": [
        {
          "name": "",
          "type": "bytes32"
        }
      ],
      "name": "prices",
      "outputs": [
        {
          "name": "",
          "type": "uint256"
        }
      ],
      "payable": false,
      "stateMutability": "view",
      "type": "function",
      "signature": "0x60846bc6"
    },
    {
      "constant": false,
      "inputs": [],
      "name": "renounceOwnership",
      "outputs": [],
      "payable": false,
      "stateMutability": "nonpayable",
      "type": "function",
      "signature": "0x715018a6"
    },
    {
      "constant": true,
      "inputs": [],
      "name": "owner",
      "outputs": [
        {
          "name": "",
          "type": "address"
        }
      ],
      "payable": false,
      "stateMutability": "view",
      "type": "function",
      "signature": "0x8da5cb5b"
    },
    {
      "constant": true,
      "inputs": [],
      "name": "jobId",
      "outputs": [
        {
          "name": "",
          "type": "bytes32"
        }
      ],
      "payable": false,
      "stateMutability": "view",
      "type": "function",
      "signature": "0xc2939d97"
    },
    {
      "constant": false,
      "inputs": [
        {
          "name": "_newOwner",
          "type": "address"
        }
      ],
      "name": "transferOwnership",
      "outputs": [],
      "payable": false,
      "stateMutability": "nonpayable",
      "type": "function",
      "signature": "0xf2fde38b"
    },
    {
      "inputs": [
        {
          "name": "_oracle",
          "type": "address"
        },
        {
          "name": "_jobId",
          "type": "bytes32"
        }
      ],
      "payable": false,
      "stateMutability": "nonpayable",
      "type": "constructor",
      "signature": "constructor"
    },
    {
      "anonymous": false,
      "inputs": [
        {
          "indexed": true,
          "name": "requestId",
          "type": "bytes32"
        },
        {
          "indexed": false,
          "name": "price",
          "type": "uint256"
        }
      ],
      "name": "RequestFulfilled",
      "type": "event",
      "signature": "0x1ca8663227a7fe9919713a01d344afbb434e234f35a3e540a6ad924f88771f38"
    },
    {
      "anonymous": false,
      "inputs": [
        {
          "indexed": true,
          "name": "previousOwner",
          "type": "address"
        }
      ],
      "name": "OwnershipRenounced",
      "type": "event",
      "signature": "0xf8df31144d9c2f0f6b59d69b8b98abd5459d07f2742c4df920b25aae33c64820"
    },
    {
      "anonymous": false,
      "inputs": [
        {
          "indexed": true,
          "name": "previousOwner",
          "type": "address"
        },
        {
          "indexed": true,
          "name": "newOwner",
          "type": "address"
        }
      ],
      "name": "OwnershipTransferred",
      "type": "event",
      "signature": "0x8be0079c531659141344cd1fd0a4f28419497f9722a3daafe3b4186f6b6457e0"
    },
    {
      "anonymous": false,
      "inputs": [
        {
          "indexed": true,
          "name": "id",
          "type": "bytes32"
        }
      ],
      "name": "ChainlinkRequested",
      "type": "event",
      "signature": "0xb5e6e01e79f91267dc17b4e6314d5d4d03593d2ceee0fbb452b750bd70ea5af9"
    },
    {
      "anonymous": false,
      "inputs": [
        {
          "indexed": true,
          "name": "id",
          "type": "bytes32"
        }
      ],
      "name": "ChainlinkFulfilled",
      "type": "event",
      "signature": "0x7cc135e0cebb02c3480ae5d74d377283180a2601f8f644edf7987b009316c63a"
    },
    {
      "anonymous": false,
      "inputs": [
        {
          "indexed": true,
          "name": "id",
          "type": "bytes32"
        }
      ],
      "name": "ChainlinkCancelled",
      "type": "event",
      "signature": "0xe1fe3afa0f7f761ff0a8b89086790efd5140d2907ebd5b7ff6bfcb5e075fd4c5"
    },
    {
      "constant": false,
      "inputs": [],
      "name": "requestETHUSDPrice",
      "outputs": [],
      "payable": false,
      "stateMutability": "nonpayable",
      "type": "function",
      "signature": "0xbcf40ad6"
    },
    {
      "constant": false,
      "inputs": [],
      "name": "requestBTCUSDPrice",
      "outputs": [],
      "payable": false,
      "stateMutability": "nonpayable",
      "type": "function",
      "signature": "0x6da1581f"
    },
    {
      "constant": false,
      "inputs": [
        {
          "name": "_requestId",
          "type": "bytes32"
        },
        {
          "name": "_payment",
          "type": "uint256"
        },
        {
          "name": "_callbackFunctionId",
          "type": "bytes4"
        },
        {
          "name": "_expiration",
          "type": "uint256"
        }
      ],
      "name": "cancelRequest",
      "outputs": [],
      "payable": false,
      "stateMutability": "nonpayable",
      "type": "function",
      "signature": "0xec65d0f8"
    },
    {
      "constant": false,
      "inputs": [
        {
          "name": "_requestId",
          "type": "bytes32"
        },
        {
          "name": "_price",
          "type": "uint256"
        }
      ],
      "name": "fulfill",
      "outputs": [],
      "payable": false,
      "stateMutability": "nonpayable",
      "type": "function",
      "signature": "0x4357855e"
    }
  ],
  "bytecode": "0x6080604052600160045534801561001557600080fd5b5060405160408061180783398101604052805160209091015160068054600160a060020a031916331790556100667320fe562d797a42dcb3399062ae9546cd06f63280640100000000610081810204565b610078826401000000006100a3810204565b600755506100c5565b60028054600160a060020a031916600160a060020a0392909216919091179055565b60038054600160a060020a031916600160a060020a0392909216919091179055565b611733806100d46000396000f30060806040526004361061007f5763ffffffff60e060020a6000350416634357855e811461008457806360846bc6146100a15780636da1581f146100cb578063715018a6146100e05780638da5cb5b146100f5578063bcf40ad614610126578063c2939d971461013b578063ec65d0f814610150578063f2fde38b1461017b575b600080fd5b34801561009057600080fd5b5061009f60043560243561019c565b005b3480156100ad57600080fd5b506100b96004356102f9565b60408051918252519081900360200190f35b3480156100d757600080fd5b5061009f61030b565b3480156100ec57600080fd5b5061009f61074f565b34801561010157600080fd5b5061010a6107bd565b60408051600160a060020a039092168252519081900360200190f35b34801561013257600080fd5b5061009f6107cc565b34801561014757600080fd5b506100b9610c01565b34801561015c57600080fd5b5061009f600435602435600160e060020a031960443516606435610c07565b34801561018757600080fd5b5061009f600160a060020a0360043516610c30565b6000828152600560205260409020548290600160a060020a0316331461024957604080517f08c379a000000000000000000000000000000000000000000000000000000000815260206004820152602860248201527f536f75726365206d75737420626520746865206f7261636c65206f662074686560448201527f2072657175657374000000000000000000000000000000000000000000000000606482015290519081900360840190fd5b600081815260056020526040808220805473ffffffffffffffffffffffffffffffffffffffff191690555182917f7cc135e0cebb02c3480ae5d74d377283180a2601f8f644edf7987b009316c63a91a260408051838152905184917f1ca8663227a7fe9919713a01d344afbb434e234f35a3e540a6ad924f88771f38919081900360200190a250600082815260086020818152604080842080548552600983529084209490945593825290925255565b60096020526000908152604090205481565b6103136116ba565b606080600061032f60075430634357855e60e060020a02610c53565b60408051600280825260608201909252919550816020015b6060815260200190600190039081610347579050509250606060405190810160405280602e81526020017f68747470733a2f2f7777772e6269747374616d702e6e65742f6170692f76322f81526020017f7469636b65722f6274637573642f0000000000000000000000000000000000008152508360008151811015156103ca57fe5b90602001906020020181905250606060405190810160405280603481526020017f68747470733a2f2f6170692e70726f2e636f696e626173652e636f6d2f70726f81526020017f64756374732f6274632d7573642f7469636b657200000000000000000000000081525083600181518110151561044357fe5b9060200190602002018190525061049a6040805190810160405280600381526020017f61706900000000000000000000000000000000000000000000000000000000008152508486610c7e9092919063ffffffff16565b6040805160028082526060820190925290816020015b60608152602001906001900390816104b05790505091506040805190810160405280600681526020017f242e6c617374000000000000000000000000000000000000000000000000000081525082600081518110151561050c57fe5b906020019060200201819052506040805190810160405280600781526020017f242e70726963650000000000000000000000000000000000000000000000000081525082600181518110151561055e57fe5b906020019060200201819052506105b56040805190810160405280600581526020017f70617468730000000000000000000000000000000000000000000000000000008152508386610c7e9092919063ffffffff16565b604080518082018252600f81527f6167677265676174696f6e5479706500000000000000000000000000000000006020808301919091528251808401909352600683527f6d656469616e00000000000000000000000000000000000000000000000000009083015261062f9186919063ffffffff610cf116565b604080518082018252600881527f636f7079506174680000000000000000000000000000000000000000000000006020808301919091528251808401909352600e83527f61676772656761746556616c7565000000000000000000000000000000000000908301526106a99186919063ffffffff610cf116565b60408051808201909152600581527f74696d657300000000000000000000000000000000000000000000000000000060208201526106f0908590606463ffffffff610d2016565b61070a6106fb610d4a565b85670de0b6b3a7640000610d59565b604080517f4254435553440000000000000000000000000000000000000000000000000000815281519081900360060190206000928352600860205291205550505050565b600654600160a060020a0316331461076657600080fd5b600654604051600160a060020a03909116907ff8df31144d9c2f0f6b59d69b8b98abd5459d07f2742c4df920b25aae33c6482090600090a26006805473ffffffffffffffffffffffffffffffffffffffff19169055565b600654600160a060020a031681565b6107d46116ba565b60608060006107f060075430634357855e60e060020a02610c53565b60408051600280825260608201909252919550816020015b6060815260200190600190039081610808579050509250606060405190810160405280602e81526020017f68747470733a2f2f7777772e6269747374616d702e6e65742f6170692f76322f81526020017f7469636b65722f6574687573642f00000000000000000000000000000000000081525083600081518110151561088b57fe5b90602001906020020181905250606060405190810160405280603481526020017f68747470733a2f2f6170692e70726f2e636f696e626173652e636f6d2f70726f81526020017f64756374732f6574682d7573642f7469636b657200000000000000000000000081525083600181518110151561090457fe5b9060200190602002018190525061095b6040805190810160405280600381526020017f61706900000000000000000000000000000000000000000000000000000000008152508486610c7e9092919063ffffffff16565b6040805160028082526060820190925290816020015b60608152602001906001900390816109715790505091506040805190810160405280600681526020017f242e6c61737400000000000000000000000000000000000000000000000000008152508260008151811015156109cd57fe5b906020019060200201819052506040805190810160405280600781526020017f242e707269636500000000000000000000000000000000000000000000000000815250826001815181101515610a1f57fe5b90602001906020020181905250610a766040805190810160405280600581526020017f70617468730000000000000000000000000000000000000000000000000000008152508386610c7e9092919063ffffffff16565b604080518082018252600f81527f6167677265676174696f6e5479706500000000000000000000000000000000006020808301919091528251808401909352600683527f6d656469616e000000000000000000000000000000000000000000000000000090830152610af09186919063ffffffff610cf116565b604080518082018252600881527f636f7079506174680000000000000000000000000000000000000000000000006020808301919091528251808401909352600e83527f61676772656761746556616c756500000000000000000000000000000000000090830152610b6a9186919063ffffffff610cf116565b60408051808201909152600581527f74696d65730000000000000000000000000000000000000000000000000000006020820152610bb1908590606463ffffffff610d2016565b610bbc6106fb610d4a565b604080517f4554485553440000000000000000000000000000000000000000000000000000815281519081900360060190206000928352600860205291205550505050565b60075481565b600654600160a060020a03163314610c1e57600080fd5b610c2a8484848461100d565b50505050565b600654600160a060020a03163314610c4757600080fd5b610c508161110b565b50565b610c5b6116ba565b610c636116ba565b610c758186868663ffffffff61118916565b95945050505050565b6080830151600090610c96908463ffffffff6111c616565b610ca384608001516111e3565b5060005b8151811015610ce457610cdc8282815181101515610cc157fe5b6020908102909101015160808601519063ffffffff6111c616565b600101610ca7565b610c2a84608001516111ee565b6080830151610d06908363ffffffff6111c616565b6080830151610d1b908263ffffffff6111c616565b505050565b6080830151610d35908363ffffffff6111c616565b6080830151610d1b908263ffffffff6111f916565b600354600160a060020a031690565b6000306004546040516020018083600160a060020a0316600160a060020a03166c01000000000000000000000000028152601401828152602001925050506040516020818303038152906040526040518082805190602001908083835b60208310610dd55780518252601f199092019160209182019101610db6565b51815160209384036101000a6000190180199092169116179052604080519290940182900390912060045460608a015260008181526005909252838220805473ffffffffffffffffffffffffffffffffffffffff1916600160a060020a038c1617905592519295508594507fb5e6e01e79f91267dc17b4e6314d5d4d03593d2ceee0fbb452b750bd70ea5af99350919050a2600254600160a060020a0316634000aea08584610e8387611226565b6040518463ffffffff1660e060020a0281526004018084600160a060020a0316600160a060020a0316815260200183815260200180602001828103825283818151815260200191508051906020019080838360005b83811015610ef0578181015183820152602001610ed8565b50505050905090810190601f168015610f1d5780820380516001836020036101000a031916815260200191505b50945050505050602060405180830381600087803b158015610f3e57600080fd5b505af1158015610f52573d6000803e3d6000fd5b505050506040513d6020811015610f6857600080fd5b50511515610ffd57604080517f08c379a000000000000000000000000000000000000000000000000000000000815260206004820152602360248201527f756e61626c6520746f207472616e73666572416e6443616c6c20746f206f726160448201527f636c650000000000000000000000000000000000000000000000000000000000606482015290519081900360840190fd5b6004805460010190559392505050565b600084815260056020526040808220805473ffffffffffffffffffffffffffffffffffffffff1981169091559051600160a060020a039091169186917fe1fe3afa0f7f761ff0a8b89086790efd5140d2907ebd5b7ff6bfcb5e075fd4c59190a2604080517f6ee4d5530000000000000000000000000000000000000000000000000000000081526004810187905260248101869052600160e060020a031985166044820152606481018490529051600160a060020a03831691636ee4d55391608480830192600092919082900301818387803b1580156110ec57600080fd5b505af1158015611100573d6000803e3d6000fd5b505050505050505050565b600160a060020a038116151561112057600080fd5b600654604051600160a060020a038084169216907f8be0079c531659141344cd1fd0a4f28419497f9722a3daafe3b4186f6b6457e090600090a36006805473ffffffffffffffffffffffffffffffffffffffff1916600160a060020a0392909216919091179055565b6111916116ba565b6111a1856080015161010061137d565b5050918352600160a060020a03166020830152600160e060020a031916604082015290565b6111d382600383516113bd565b610d1b828263ffffffff6114ba16565b610c508160046114db565b610c508160076114db565b600081126112125761120d826000836113bd565b611222565b61122282600183600019036113bd565b5050565b8051602080830151604080850151606086810151608088015151935160006024820181815260448301829052606483018a9052600160a060020a0388166084840152600160e060020a0319861660a484015260c48301849052600160e48401819052610100610104850190815288516101248601528851969b7f40429946000000000000000000000000000000000000000000000000000000009b949a8b9a91999098909796939591949361014401918501908083838e5b838110156112f65781810151838201526020016112de565b50505050905090810190601f1680156113235780820380516001836020036101000a031916815260200191505b5060408051601f198184030181529190526020810180517bffffffffffffffffffffffffffffffffffffffffffffffffffffffff16600160e060020a0319909d169c909c17909b5250989950505050505050505050919050565b6113856116ef565b602082061561139a5760208206602003820191505b506020808301829052604080518085526000815283019091019052815b92915050565b601781116113df576113d98360ff8481166020021683176114f4565b50610d1b565b60ff811161141357611400836018602060ff8616021763ffffffff6114f416565b506113d98382600163ffffffff61150c16565b61ffff811161144857611435836019602060ff8616021763ffffffff6114f416565b506113d98382600263ffffffff61150c16565b63ffffffff811161147f5761146c83601a602060ff8616021763ffffffff6114f416565b506113d98382600463ffffffff61150c16565b67ffffffffffffffff8111610d1b576114a783601b602060ff8616021763ffffffff6114f416565b50610c2a8382600863ffffffff61150c16565b6114c26116ef565b6114d48384600001515184855161152d565b9392505050565b610d1b82601f602060ff8516021763ffffffff6114f416565b6114fc6116ef565b6114d483846000015151846115e3565b6115146116ef565b61152584856000015151858561162e565b949350505050565b6115356116ef565b60008060008551851115151561154a57600080fd5b87602001518588011115611574576115748861156c8a602001518a890161168c565b6002026116a3565b8751805188602083010194508089880111156115905788870182525b60208801935050505b602085106115bb5781518352601f199094019360209283019290910190611599565b505181516020949094036101000a600019018019909116931692909217909152509192915050565b6115eb6116ef565b60208401518310611607576116078485602001516002026116a3565b8351805160208583010184815381861415611623576001820183525b509495945050505050565b6116366116ef565b60008560200151858401111561165557611655868685016002026116a3565b6001836101000a03905085518386820101858319825116178152815185880111156116805784870182525b50959695505050505050565b60008183111561169d5750816113b7565b50919050565b81516116af838361137d565b50610c2a83826114ba565b6040805160c0810182526000808252602082018190529181018290526060810191909152608081016116ea6116ef565b905290565b604080518082019091526060815260006020820152905600a165627a7a72305820d0975be3ee4f9a23c0be0552b9231a29facc305453d73529181289d217a36d900029",
  "source": "pragma solidity ^0.4.24;\r\n\r\nimport \"openzeppelin-solidity/contracts/ownership/Ownable.sol\";\r\nimport \"chainlink/contracts/Chainlinked.sol\";\r\n\r\ncontract APIAggregatorConsumer is Chainlinked, Ownable {\r\n    // solium-disable-next-line zeppelin/no-arithmetic-operations\r\n    uint256 constant private ORACLE_PAYMENT = 1 * LINK;\r\n\r\n    bytes32 public jobId;\r\n\r\n    event RequestFulfilled(\r\n        bytes32 indexed requestId,\r\n        uint256 price\r\n    );\r\n\r\n    mapping(bytes32 => bytes32) requests;\r\n    mapping(bytes32 => uint256) public prices;\r\n\r\n    constructor(address _oracle, bytes32 _jobId) public {\r\n        setLinkToken(0x20fE562d797A42Dcb3399062AE9546cd06f63280);\r\n        setOracle(_oracle);\r\n        jobId = _jobId;\r\n    }\r\n\r\n    function requestETHUSDPrice() public {\r\n        Chainlink.Request memory req = newRequest(jobId, this, this.fulfill.selector);\r\n        string[] memory api = new string[](2);\r\n        api[0] = \"https://www.bitstamp.net/api/v2/ticker/ethusd/\";\r\n        api[1] = \"https://api.pro.coinbase.com/products/eth-usd/ticker\";\r\n        req.addStringArray(\"api\", api);\r\n        string[] memory paths = new string[](2);\r\n        paths[0] = \"$.last\";\r\n        paths[1] = \"$.price\";\r\n        req.addStringArray(\"paths\", paths);\r\n        req.add(\"aggregationType\", \"median\");\r\n        req.add(\"copyPath\", \"aggregateValue\");\r\n        req.addInt(\"times\", 100);\r\n        bytes32 requestId = chainlinkRequestTo(oracleAddress(), req, ORACLE_PAYMENT);\r\n        requests[requestId] = keccak256(\"ETHUSD\");\r\n    }\r\n\r\n    function requestBTCUSDPrice() public {\r\n        Chainlink.Request memory req = newRequest(jobId, this, this.fulfill.selector);\r\n        string[] memory api = new string[](2);\r\n        api[0] = \"https://www.bitstamp.net/api/v2/ticker/btcusd/\";\r\n        api[1] = \"https://api.pro.coinbase.com/products/btc-usd/ticker\";\r\n        req.addStringArray(\"api\", api);\r\n        string[] memory paths = new string[](2);\r\n        paths[0] = \"$.last\";\r\n        paths[1] = \"$.price\";\r\n        req.addStringArray(\"paths\", paths);\r\n        req.add(\"aggregationType\", \"median\");\r\n        req.add(\"copyPath\", \"aggregateValue\");\r\n        req.addInt(\"times\", 100);\r\n        bytes32 requestId = chainlinkRequestTo(oracleAddress(), req, ORACLE_PAYMENT);\r\n        requests[requestId] = keccak256(\"BTCUSD\");\r\n    }\r\n\r\n    function cancelRequest(\r\n        bytes32 _requestId,\r\n        uint256 _payment,\r\n        bytes4 _callbackFunctionId,\r\n        uint256 _expiration\r\n    )\r\n    public\r\n    onlyOwner\r\n    {\r\n        cancelChainlinkRequest(_requestId, _payment, _callbackFunctionId, _expiration);\r\n    }\r\n\r\n    function fulfill(bytes32 _requestId, uint256 _price)\r\n    public\r\n    recordChainlinkFulfillment(_requestId)\r\n    {\r\n        emit RequestFulfilled(_requestId, _price);\r\n        prices[requests[_requestId]] = _price;\r\n        delete requests[_requestId];\r\n    }\r\n\r\n}",
  "sourcePath": "/c/dev/example-chainlinks/contracts/APIAggregatorConsumer.sol",
  "compiler": {
    "name": "solc",
    "version": "0.4.24+commit.e67f0147.Emscripten.clang"
  },
  "schemaVersion": "3.0.8",
  "updatedAt": "2019-04-27T01:36:06.402Z",
  "devdoc": {
    "methods": {
      "renounceOwnership()": {
        "details": "Allows the current owner to relinquish control of the contract."
      },
      "transferOwnership(address)": {
        "details": "Allows the current owner to transfer control of the contract to a newOwner.",
        "params": {
          "_newOwner": "The address to transfer ownership to."
        }
      }
    }
  },
  "userdoc": {
    "methods": {
      "renounceOwnership()": {
        "notice": "Renouncing to ownership will leave the contract without an owner. It will not be possible to call the functions with the `onlyOwner` modifier anymore."
      }
    }
  }
}