{
  "contractName": "AssetPriceConsumer",
  "abi": [
    {
      "constant": true,
      "inputs": [
        {
          "name": "",
          "type": "bytes32"
        }
      ],
      "name": "prices",
      "outputs": [
        {
          "name": "",
          "type": "uint256"
        }
      ],
      "payable": false,
      "stateMutability": "view",
      "type": "function",
      "signature": "0x60846bc6"
    },
    {
      "constant": false,
      "inputs": [],
      "name": "renounceOwnership",
      "outputs": [],
      "payable": false,
      "stateMutability": "nonpayable",
      "type": "function",
      "signature": "0x715018a6"
    },
    {
      "constant": true,
      "inputs": [],
      "name": "owner",
      "outputs": [
        {
          "name": "",
          "type": "address"
        }
      ],
      "payable": false,
      "stateMutability": "view",
      "type": "function",
      "signature": "0x8da5cb5b"
    },
    {
      "constant": true,
      "inputs": [],
      "name": "jobId",
      "outputs": [
        {
          "name": "",
          "type": "bytes32"
        }
      ],
      "payable": false,
      "stateMutability": "view",
      "type": "function",
      "signature": "0xc2939d97"
    },
    {
      "constant": false,
      "inputs": [
        {
          "name": "_newOwner",
          "type": "address"
        }
      ],
      "name": "transferOwnership",
      "outputs": [],
      "payable": false,
      "stateMutability": "nonpayable",
      "type": "function",
      "signature": "0xf2fde38b"
    },
    {
      "inputs": [
        {
          "name": "_oracle",
          "type": "address"
        },
        {
          "name": "_jobId",
          "type": "bytes32"
        }
      ],
      "payable": false,
      "stateMutability": "nonpayable",
      "type": "constructor",
      "signature": "constructor"
    },
    {
      "anonymous": false,
      "inputs": [
        {
          "indexed": true,
          "name": "requestId",
          "type": "bytes32"
        },
        {
          "indexed": false,
          "name": "price",
          "type": "uint256"
        }
      ],
      "name": "RequestFulfilled",
      "type": "event",
      "signature": "0x1ca8663227a7fe9919713a01d344afbb434e234f35a3e540a6ad924f88771f38"
    },
    {
      "anonymous": false,
      "inputs": [
        {
          "indexed": true,
          "name": "previousOwner",
          "type": "address"
        }
      ],
      "name": "OwnershipRenounced",
      "type": "event",
      "signature": "0xf8df31144d9c2f0f6b59d69b8b98abd5459d07f2742c4df920b25aae33c64820"
    },
    {
      "anonymous": false,
      "inputs": [
        {
          "indexed": true,
          "name": "previousOwner",
          "type": "address"
        },
        {
          "indexed": true,
          "name": "newOwner",
          "type": "address"
        }
      ],
      "name": "OwnershipTransferred",
      "type": "event",
      "signature": "0x8be0079c531659141344cd1fd0a4f28419497f9722a3daafe3b4186f6b6457e0"
    },
    {
      "anonymous": false,
      "inputs": [
        {
          "indexed": true,
          "name": "id",
          "type": "bytes32"
        }
      ],
      "name": "ChainlinkRequested",
      "type": "event",
      "signature": "0xb5e6e01e79f91267dc17b4e6314d5d4d03593d2ceee0fbb452b750bd70ea5af9"
    },
    {
      "anonymous": false,
      "inputs": [
        {
          "indexed": true,
          "name": "id",
          "type": "bytes32"
        }
      ],
      "name": "ChainlinkFulfilled",
      "type": "event",
      "signature": "0x7cc135e0cebb02c3480ae5d74d377283180a2601f8f644edf7987b009316c63a"
    },
    {
      "anonymous": false,
      "inputs": [
        {
          "indexed": true,
          "name": "id",
          "type": "bytes32"
        }
      ],
      "name": "ChainlinkCancelled",
      "type": "event",
      "signature": "0xe1fe3afa0f7f761ff0a8b89086790efd5140d2907ebd5b7ff6bfcb5e075fd4c5"
    },
    {
      "constant": false,
      "inputs": [
        {
          "name": "_base",
          "type": "string"
        }
      ],
      "name": "requestWeiPrice",
      "outputs": [],
      "payable": false,
      "stateMutability": "nonpayable",
      "type": "function",
      "signature": "0x76fd7b11"
    },
    {
      "constant": false,
      "inputs": [
        {
          "name": "_base",
          "type": "string"
        }
      ],
      "name": "requestSatsPrice",
      "outputs": [],
      "payable": false,
      "stateMutability": "nonpayable",
      "type": "function",
      "signature": "0x2354b3ed"
    },
    {
      "constant": false,
      "inputs": [
        {
          "name": "_base",
          "type": "string"
        }
      ],
      "name": "requestUSDPrice",
      "outputs": [],
      "payable": false,
      "stateMutability": "nonpayable",
      "type": "function",
      "signature": "0x2de1e234"
    },
    {
      "constant": false,
      "inputs": [
        {
          "name": "_base",
          "type": "string"
        }
      ],
      "name": "requestEURPrice",
      "outputs": [],
      "payable": false,
      "stateMutability": "nonpayable",
      "type": "function",
      "signature": "0x1c0f9a7c"
    },
    {
      "constant": false,
      "inputs": [
        {
          "name": "_requestId",
          "type": "bytes32"
        },
        {
          "name": "_payment",
          "type": "uint256"
        },
        {
          "name": "_callbackFunctionId",
          "type": "bytes4"
        },
        {
          "name": "_expiration",
          "type": "uint256"
        }
      ],
      "name": "cancelRequest",
      "outputs": [],
      "payable": false,
      "stateMutability": "nonpayable",
      "type": "function",
      "signature": "0xec65d0f8"
    },
    {
      "constant": false,
      "inputs": [
        {
          "name": "_requestId",
          "type": "bytes32"
        },
        {
          "name": "_price",
          "type": "uint256"
        }
      ],
      "name": "fulfill",
      "outputs": [],
      "payable": false,
      "stateMutability": "nonpayable",
      "type": "function",
      "signature": "0x4357855e"
    }
  ],
  "bytecode": "0x6080604052600160045534801561001557600080fd5b506040516040806113f683398101604052805160209091015160068054600160a060020a031916331790556100667320fe562d797a42dcb3399062ae9546cd06f63280640100000000610081810204565b610078826401000000006100a3810204565b600755506100c5565b60028054600160a060020a031916600160a060020a0392909216919091179055565b60038054600160a060020a031916600160a060020a0392909216919091179055565b611322806100d46000396000f3006080604052600436106100955763ffffffff60e060020a6000350416631c0f9a7c811461009a5780632354b3ed146100f55780632de1e2341461014e5780634357855e146101a757806360846bc6146101c2578063715018a6146101ec57806376fd7b11146102015780638da5cb5b1461025a578063c2939d971461028b578063ec65d0f8146102a0578063f2fde38b146102cb575b600080fd5b3480156100a657600080fd5b506040805160206004803580820135601f81018490048402850184019095528484526100f39436949293602493928401919081908401838280828437509497506102ec9650505050505050565b005b34801561010157600080fd5b506040805160206004803580820135601f81018490048402850184019095528484526100f39436949293602493928401919081908401838280828437509497506103309650505050505050565b34801561015a57600080fd5b506040805160206004803580820135601f81018490048402850184019095528484526100f39436949293602493928401919081908401838280828437509497506103749650505050505050565b3480156101b357600080fd5b506100f36004356024356103b5565b3480156101ce57600080fd5b506101da600435610512565b60408051918252519081900360200190f35b3480156101f857600080fd5b506100f3610524565b34801561020d57600080fd5b506040805160206004803580820135601f81018490048402850184019095528484526100f39436949293602493928401919081908401838280828437509497506105929650505050505050565b34801561026657600080fd5b5061026f6105da565b60408051600160a060020a039092168252519081900360200190f35b34801561029757600080fd5b506101da6105e9565b3480156102ac57600080fd5b506100f3600435602435600160e060020a0319604435166064356105ef565b3480156102d757600080fd5b506100f3600160a060020a0360043516610618565b61032d816040805190810160405280600381526020017f45555200000000000000000000000000000000000000000000000000000000008152506064610638565b50565b61032d816040805190810160405280600381526020017f42544300000000000000000000000000000000000000000000000000000000008152506305f5e100610638565b61032d816040805190810160405280600381526020017f55534400000000000000000000000000000000000000000000000000000000008152506064610638565b6000828152600560205260409020548290600160a060020a0316331461046257604080517f08c379a000000000000000000000000000000000000000000000000000000000815260206004820152602860248201527f536f75726365206d75737420626520746865206f7261636c65206f662074686560448201527f2072657175657374000000000000000000000000000000000000000000000000606482015290519081900360840190fd5b600081815260056020526040808220805473ffffffffffffffffffffffffffffffffffffffff191690555182917f7cc135e0cebb02c3480ae5d74d377283180a2601f8f644edf7987b009316c63a91a260408051838152905184917f1ca8663227a7fe9919713a01d344afbb434e234f35a3e540a6ad924f88771f38919081900360200190a250600082815260086020818152604080842080548552600983529084209490945593825290925255565b60096020526000908152604090205481565b600654600160a060020a0316331461053b57600080fd5b600654604051600160a060020a03909116907ff8df31144d9c2f0f6b59d69b8b98abd5459d07f2742c4df920b25aae33c6482090600090a26006805473ffffffffffffffffffffffffffffffffffffffff19169055565b61032d816040805190810160405280600381526020017f4554480000000000000000000000000000000000000000000000000000000000815250670de0b6b3a7640000610638565b600654600160a060020a031681565b60075481565b600654600160a060020a0316331461060657600080fd5b610612848484846108e4565b50505050565b600654600160a060020a0316331461062f57600080fd5b61032d816109e2565b6106406112a9565b600061065960075430634357855e60e060020a02610a60565b60408051808201909152600481527f626173650000000000000000000000000000000000000000000000000000000060208201529092506106a29083908763ffffffff610a8b16565b60408051808201909152600581527f71756f746500000000000000000000000000000000000000000000000000000060208201526106e89083908663ffffffff610a8b16565b604080518082018252600881527f636f7079506174680000000000000000000000000000000000000000000000006020808301919091528251808401909352600583527f7072696365000000000000000000000000000000000000000000000000000000908301526107629184919063ffffffff610a8b16565b60408051808201909152600581527f74696d657300000000000000000000000000000000000000000000000000000060208201526107a89083908563ffffffff610aba16565b6107c26107b3610ae4565b83670de0b6b3a7640000610af3565b905084846040516020018083805190602001908083835b602083106107f85780518252601f1990920191602091820191016107d9565b51815160209384036101000a600019018019909216911617905285519190930192850191508083835b602083106108405780518252601f199092019160209182019101610821565b6001836020036101000a038019825116818451168082178552505050505050905001925050506040516020818303038152906040526040518082805190602001908083835b602083106108a45780518252601f199092019160209182019101610885565b51815160209384036101000a6000190180199092169116179052604080519290940182900390912060009687526008909152919094205550505050505050565b600084815260056020526040808220805473ffffffffffffffffffffffffffffffffffffffff1981169091559051600160a060020a039091169186917fe1fe3afa0f7f761ff0a8b89086790efd5140d2907ebd5b7ff6bfcb5e075fd4c59190a2604080517f6ee4d5530000000000000000000000000000000000000000000000000000000081526004810187905260248101869052600160e060020a031985166044820152606481018490529051600160a060020a03831691636ee4d55391608480830192600092919082900301818387803b1580156109c357600080fd5b505af11580156109d7573d6000803e3d6000fd5b505050505050505050565b600160a060020a03811615156109f757600080fd5b600654604051600160a060020a038084169216907f8be0079c531659141344cd1fd0a4f28419497f9722a3daafe3b4186f6b6457e090600090a36006805473ffffffffffffffffffffffffffffffffffffffff1916600160a060020a0392909216919091179055565b610a686112a9565b610a706112a9565b610a828186868663ffffffff610da716565b95945050505050565b6080830151610aa0908363ffffffff610de416565b6080830151610ab5908263ffffffff610de416565b505050565b6080830151610acf908363ffffffff610de416565b6080830151610ab5908263ffffffff610e0116565b600354600160a060020a031690565b6000306004546040516020018083600160a060020a0316600160a060020a03166c01000000000000000000000000028152601401828152602001925050506040516020818303038152906040526040518082805190602001908083835b60208310610b6f5780518252601f199092019160209182019101610b50565b51815160209384036101000a6000190180199092169116179052604080519290940182900390912060045460608a015260008181526005909252838220805473ffffffffffffffffffffffffffffffffffffffff1916600160a060020a038c1617905592519295508594507fb5e6e01e79f91267dc17b4e6314d5d4d03593d2ceee0fbb452b750bd70ea5af99350919050a2600254600160a060020a0316634000aea08584610c1d87610e2e565b6040518463ffffffff1660e060020a0281526004018084600160a060020a0316600160a060020a0316815260200183815260200180602001828103825283818151815260200191508051906020019080838360005b83811015610c8a578181015183820152602001610c72565b50505050905090810190601f168015610cb75780820380516001836020036101000a031916815260200191505b50945050505050602060405180830381600087803b158015610cd857600080fd5b505af1158015610cec573d6000803e3d6000fd5b505050506040513d6020811015610d0257600080fd5b50511515610d9757604080517f08c379a000000000000000000000000000000000000000000000000000000000815260206004820152602360248201527f756e61626c6520746f207472616e73666572416e6443616c6c20746f206f726160448201527f636c650000000000000000000000000000000000000000000000000000000000606482015290519081900360840190fd5b6004805460010190559392505050565b610daf6112a9565b610dbf8560800151610100610f85565b5050918352600160a060020a03166020830152600160e060020a031916604082015290565b610df18260038351610fc5565b610ab5828263ffffffff6110c216565b60008112610e1a57610e1582600083610fc5565b610e2a565b610e2a8260018360001903610fc5565b5050565b8051602080830151604080850151606086810151608088015151935160006024820181815260448301829052606483018a9052600160a060020a0388166084840152600160e060020a0319861660a484015260c48301849052600160e48401819052610100610104850190815288516101248601528851969b7f40429946000000000000000000000000000000000000000000000000000000009b949a8b9a91999098909796939591949361014401918501908083838e5b83811015610efe578181015183820152602001610ee6565b50505050905090810190601f168015610f2b5780820380516001836020036101000a031916815260200191505b5060408051601f198184030181529190526020810180517bffffffffffffffffffffffffffffffffffffffffffffffffffffffff16600160e060020a0319909d169c909c17909b5250989950505050505050505050919050565b610f8d6112de565b6020820615610fa25760208206602003820191505b506020808301829052604080518085526000815283019091019052815b92915050565b60178111610fe757610fe18360ff8481166020021683176110e3565b50610ab5565b60ff811161101b57611008836018602060ff8616021763ffffffff6110e316565b50610fe18382600163ffffffff6110fb16565b61ffff81116110505761103d836019602060ff8616021763ffffffff6110e316565b50610fe18382600263ffffffff6110fb16565b63ffffffff81116110875761107483601a602060ff8616021763ffffffff6110e316565b50610fe18382600463ffffffff6110fb16565b67ffffffffffffffff8111610ab5576110af83601b602060ff8616021763ffffffff6110e316565b506106128382600863ffffffff6110fb16565b6110ca6112de565b6110dc8384600001515184855161111c565b9392505050565b6110eb6112de565b6110dc83846000015151846111d2565b6111036112de565b61111484856000015151858561121d565b949350505050565b6111246112de565b60008060008551851115151561113957600080fd5b87602001518588011115611163576111638861115b8a602001518a890161127b565b600202611292565b87518051886020830101945080898801111561117f5788870182525b60208801935050505b602085106111aa5781518352601f199094019360209283019290910190611188565b505181516020949094036101000a600019018019909116931692909217909152509192915050565b6111da6112de565b602084015183106111f6576111f6848560200151600202611292565b8351805160208583010184815381861415611212576001820183525b509495945050505050565b6112256112de565b6000856020015185840111156112445761124486868501600202611292565b6001836101000a039050855183868201018583198251161781528151858801111561126f5784870182525b50959695505050505050565b60008183111561128c575081610fbf565b50919050565b815161129e8383610f85565b5061061283826110c2565b6040805160c0810182526000808252602082018190529181018290526060810191909152608081016112d96112de565b905290565b604080518082019091526060815260006020820152905600a165627a7a723058203000482043b1c85b914ca9ec152dd4b2f783ca08ad7c03c24b0defd736bf4a610029",
  "source": "pragma solidity ^0.4.24;\r\n\r\nimport \"openzeppelin-solidity/contracts/ownership/Ownable.sol\";\r\nimport \"chainlink/contracts/Chainlinked.sol\";\r\n\r\ncontract AssetPriceConsumer is Chainlinked, Ownable {\r\n    // solium-disable-next-line zeppelin/no-arithmetic-operations\r\n    uint256 constant private ORACLE_PAYMENT = 1 * LINK;\r\n\r\n    bytes32 public jobId;\r\n\r\n    event RequestFulfilled(\r\n        bytes32 indexed requestId,\r\n        uint256 price\r\n    );\r\n\r\n    mapping(bytes32 => bytes32) requests;\r\n    mapping(bytes32 => uint256) public prices;\r\n\r\n    constructor(address _oracle, bytes32 _jobId) public {\r\n        setLinkToken(0x20fE562d797A42Dcb3399062AE9546cd06f63280);\r\n        setOracle(_oracle);\r\n        jobId = _jobId;\r\n    }\r\n\r\n    function requestWeiPrice(string _base) public {\r\n        requestPrice(_base, \"ETH\", 1 ether);\r\n    }\r\n\r\n    function requestSatsPrice(string _base) public {\r\n        requestPrice(_base, \"BTC\", 100000000);\r\n    }\r\n\r\n    function requestUSDPrice(string _base) public {\r\n        requestPrice(_base, \"USD\", 100);\r\n    }\r\n\r\n    function requestEURPrice(string _base) public {\r\n        requestPrice(_base, \"EUR\", 100);\r\n    }\r\n\r\n    function requestPrice(string _base, string _quote, int _times) internal {\r\n        Chainlink.Request memory req = newRequest(jobId, this, this.fulfill.selector);\r\n        req.add(\"base\", _base);\r\n        req.add(\"quote\", _quote);\r\n        req.add(\"copyPath\", \"price\");\r\n        req.addInt(\"times\", _times);\r\n        bytes32 requestId = chainlinkRequestTo(oracleAddress(), req, ORACLE_PAYMENT);\r\n        requests[requestId] = keccak256(abi.encodePacked(_base, _quote));\r\n    }\r\n\r\n    function cancelRequest(\r\n        bytes32 _requestId,\r\n        uint256 _payment,\r\n        bytes4 _callbackFunctionId,\r\n        uint256 _expiration\r\n    )\r\n    public\r\n    onlyOwner\r\n    {\r\n        cancelChainlinkRequest(_requestId, _payment, _callbackFunctionId, _expiration);\r\n    }\r\n\r\n    function fulfill(bytes32 _requestId, uint256 _price)\r\n    public\r\n    recordChainlinkFulfillment(_requestId)\r\n    {\r\n        emit RequestFulfilled(_requestId, _price);\r\n        prices[requests[_requestId]] = _price;\r\n        delete requests[_requestId];\r\n    }\r\n\r\n}",
  "sourcePath": "/c/dev/example-chainlinks/contracts/AssetPriceConsumer.sol",
  "compiler": {
    "name": "solc",
    "version": "0.4.24+commit.e67f0147.Emscripten.clang"
  },
  "schemaVersion": "3.0.8",
  "updatedAt": "2019-04-27T00:57:35.887Z",
  "devdoc": {
    "methods": {
      "renounceOwnership()": {
        "details": "Allows the current owner to relinquish control of the contract."
      },
      "transferOwnership(address)": {
        "details": "Allows the current owner to transfer control of the contract to a newOwner.",
        "params": {
          "_newOwner": "The address to transfer ownership to."
        }
      }
    }
  },
  "userdoc": {
    "methods": {
      "renounceOwnership()": {
        "notice": "Renouncing to ownership will leave the contract without an owner. It will not be possible to call the functions with the `onlyOwner` modifier anymore."
      }
    }
  }
}