{
  "contractName": "Consumer",
  "abi": [
    {
      "constant": false,
      "inputs": [],
      "name": "renounceOwnership",
      "outputs": [],
      "payable": false,
      "stateMutability": "nonpayable",
      "type": "function"
    },
    {
      "constant": true,
      "inputs": [],
      "name": "owner",
      "outputs": [
        {
          "name": "",
          "type": "address"
        }
      ],
      "payable": false,
      "stateMutability": "view",
      "type": "function"
    },
    {
      "constant": true,
      "inputs": [],
      "name": "currentPrice",
      "outputs": [
        {
          "name": "",
          "type": "bytes32"
        }
      ],
      "payable": false,
      "stateMutability": "view",
      "type": "function"
    },
    {
      "constant": false,
      "inputs": [
        {
          "name": "_newOwner",
          "type": "address"
        }
      ],
      "name": "transferOwnership",
      "outputs": [],
      "payable": false,
      "stateMutability": "nonpayable",
      "type": "function"
    },
    {
      "inputs": [
        {
          "name": "_oracle",
          "type": "address"
        },
        {
          "name": "_specId",
          "type": "bytes32"
        }
      ],
      "payable": false,
      "stateMutability": "nonpayable",
      "type": "constructor"
    },
    {
      "anonymous": false,
      "inputs": [
        {
          "indexed": true,
          "name": "requestId",
          "type": "bytes32"
        },
        {
          "indexed": true,
          "name": "price",
          "type": "bytes32"
        }
      ],
      "name": "RequestFulfilled",
      "type": "event"
    },
    {
      "anonymous": false,
      "inputs": [
        {
          "indexed": true,
          "name": "previousOwner",
          "type": "address"
        }
      ],
      "name": "OwnershipRenounced",
      "type": "event"
    },
    {
      "anonymous": false,
      "inputs": [
        {
          "indexed": true,
          "name": "previousOwner",
          "type": "address"
        },
        {
          "indexed": true,
          "name": "newOwner",
          "type": "address"
        }
      ],
      "name": "OwnershipTransferred",
      "type": "event"
    },
    {
      "anonymous": false,
      "inputs": [
        {
          "indexed": true,
          "name": "id",
          "type": "bytes32"
        }
      ],
      "name": "ChainlinkRequested",
      "type": "event"
    },
    {
      "anonymous": false,
      "inputs": [
        {
          "indexed": true,
          "name": "id",
          "type": "bytes32"
        }
      ],
      "name": "ChainlinkFulfilled",
      "type": "event"
    },
    {
      "anonymous": false,
      "inputs": [
        {
          "indexed": true,
          "name": "id",
          "type": "bytes32"
        }
      ],
      "name": "ChainlinkCancelled",
      "type": "event"
    },
    {
      "constant": false,
      "inputs": [
        {
          "name": "_currency",
          "type": "string"
        }
      ],
      "name": "requestEthereumPrice",
      "outputs": [],
      "payable": false,
      "stateMutability": "nonpayable",
      "type": "function"
    },
    {
      "constant": false,
      "inputs": [
        {
          "name": "_requestId",
          "type": "bytes32"
        },
        {
          "name": "_payment",
          "type": "uint256"
        },
        {
          "name": "_callbackFunctionId",
          "type": "bytes4"
        },
        {
          "name": "_expiration",
          "type": "uint256"
        }
      ],
      "name": "cancelRequest",
      "outputs": [],
      "payable": false,
      "stateMutability": "nonpayable",
      "type": "function"
    },
    {
      "constant": false,
      "inputs": [],
      "name": "withdrawLink",
      "outputs": [],
      "payable": false,
      "stateMutability": "nonpayable",
      "type": "function"
    },
    {
      "constant": false,
      "inputs": [
        {
          "name": "_requestId",
          "type": "bytes32"
        },
        {
          "name": "_price",
          "type": "bytes32"
        }
      ],
      "name": "fulfill",
      "outputs": [],
      "payable": false,
      "stateMutability": "nonpayable",
      "type": "function"
    }
  ],
  "bytecode": "0x6080604052600160045534801561001557600080fd5b5060405160408061124f83398101604052805160209091015160068054600160a060020a031916331790556100667320fe562d797a42dcb3399062ae9546cd06f63280640100000000610081810204565b610078826401000000006100a3810204565b600755506100c5565b60028054600160a060020a031916600160a060020a0392909216919091179055565b60038054600160a060020a031916600160a060020a0392909216919091179055565b61117b806100d46000396000f3006080604052600436106100745763ffffffff60e060020a600035041663042f2b6581146100795780636c0cae6814610096578063715018a6146100ef5780638da5cb5b146101045780638dc654a2146101355780639d1b464a1461014a578063ec65d0f814610171578063f2fde38b1461019c575b600080fd5b34801561008557600080fd5b506100946004356024356101bd565b005b3480156100a257600080fd5b506040805160206004803580820135601f81018490048402850184019095528484526100949436949293602493928401919081908401838280828437509497506102ee9650505050505050565b3480156100fb57600080fd5b50610094610490565b34801561011057600080fd5b506101196104fe565b60408051600160a060020a039092168252519081900360200190f35b34801561014157600080fd5b5061009461050d565b34801561015657600080fd5b5061015f61069a565b60408051918252519081900360200190f35b34801561017d57600080fd5b50610094600435602435600160e060020a0319604435166064356106a0565b3480156101a857600080fd5b50610094600160a060020a03600435166106c3565b6000828152600560205260409020548290600160a060020a0316331461026a57604080517f08c379a000000000000000000000000000000000000000000000000000000000815260206004820152602860248201527f536f75726365206d75737420626520746865206f7261636c65206f662074686560448201527f2072657175657374000000000000000000000000000000000000000000000000606482015290519081900360840190fd5b600081815260056020526040808220805473ffffffffffffffffffffffffffffffffffffffff191690555182917f7cc135e0cebb02c3480ae5d74d377283180a2601f8f644edf7987b009316c63a91a2604051829084907f0c2366233f634048c0f0458060d1228fab36d00f7c0ecf6bdf2d9c458503631190600090a35060085550565b6102f6611102565b606061030f6007543063042f2b6560e060020a026106e3565b91506103dd6040805190810160405280600381526020017f75726c0000000000000000000000000000000000000000000000000000000000815250608060405190810160405280604781526020017f68747470733a2f2f6d696e2d6170692e63727970746f636f6d706172652e636f81526020017f6d2f646174612f70726963653f6673796d3d455448267473796d733d5553442c81526020017f4555522c4a5059000000000000000000000000000000000000000000000000008152508461070e9092919063ffffffff16565b60408051600180825281830190925290816020015b60608152602001906001900390816103f25790505090508281600081518110151561041957fe5b906020019060200201819052506104706040805190810160405280600481526020017f7061746800000000000000000000000000000000000000000000000000000000815250828461073d9092919063ffffffff16565b61048a61047b6107b0565b83670de0b6b3a76400006107bf565b50505050565b600654600160a060020a031633146104a757600080fd5b600654604051600160a060020a03909116907ff8df31144d9c2f0f6b59d69b8b98abd5459d07f2742c4df920b25aae33c6482090600090a26006805473ffffffffffffffffffffffffffffffffffffffff19169055565b600654600160a060020a031681565b6000610517610a73565b604080517f70a082310000000000000000000000000000000000000000000000000000000081523060048201529051919250600160a060020a0383169163a9059cbb91339184916370a082319160248083019260209291908290030181600087803b15801561058557600080fd5b505af1158015610599573d6000803e3d6000fd5b505050506040513d60208110156105af57600080fd5b50516040805160e060020a63ffffffff8616028152600160a060020a03909316600484015260248301919091525160448083019260209291908290030181600087803b1580156105fe57600080fd5b505af1158015610612573d6000803e3d6000fd5b505050506040513d602081101561062857600080fd5b5051151561069757604080517f08c379a000000000000000000000000000000000000000000000000000000000815260206004820152601260248201527f556e61626c6520746f207472616e736665720000000000000000000000000000604482015290519081900360640190fd5b50565b60085481565b600654600160a060020a031633146106b757600080fd5b61048a84848484610a82565b600654600160a060020a031633146106da57600080fd5b61069781610b80565b6106eb611102565b6106f3611102565b6107058186868663ffffffff610bfe16565b95945050505050565b6080830151610723908363ffffffff610c3b16565b6080830151610738908263ffffffff610c3b16565b505050565b6080830151600090610755908463ffffffff610c3b16565b6107628460800151610c58565b5060005b81518110156107a35761079b828281518110151561078057fe5b6020908102909101015160808601519063ffffffff610c3b16565b600101610766565b61048a8460800151610c63565b600354600160a060020a031690565b6000306004546040516020018083600160a060020a0316600160a060020a03166c01000000000000000000000000028152601401828152602001925050506040516020818303038152906040526040518082805190602001908083835b6020831061083b5780518252601f19909201916020918201910161081c565b51815160209384036101000a6000190180199092169116179052604080519290940182900390912060045460608a015260008181526005909252838220805473ffffffffffffffffffffffffffffffffffffffff1916600160a060020a038c1617905592519295508594507fb5e6e01e79f91267dc17b4e6314d5d4d03593d2ceee0fbb452b750bd70ea5af99350919050a2600254600160a060020a0316634000aea085846108e987610c6e565b6040518463ffffffff1660e060020a0281526004018084600160a060020a0316600160a060020a0316815260200183815260200180602001828103825283818151815260200191508051906020019080838360005b8381101561095657818101518382015260200161093e565b50505050905090810190601f1680156109835780820380516001836020036101000a031916815260200191505b50945050505050602060405180830381600087803b1580156109a457600080fd5b505af11580156109b8573d6000803e3d6000fd5b505050506040513d60208110156109ce57600080fd5b50511515610a6357604080517f08c379a000000000000000000000000000000000000000000000000000000000815260206004820152602360248201527f756e61626c6520746f207472616e73666572416e6443616c6c20746f206f726160448201527f636c650000000000000000000000000000000000000000000000000000000000606482015290519081900360840190fd5b6004805460010190559392505050565b600254600160a060020a031690565b600084815260056020526040808220805473ffffffffffffffffffffffffffffffffffffffff1981169091559051600160a060020a039091169186917fe1fe3afa0f7f761ff0a8b89086790efd5140d2907ebd5b7ff6bfcb5e075fd4c59190a2604080517f6ee4d5530000000000000000000000000000000000000000000000000000000081526004810187905260248101869052600160e060020a031985166044820152606481018490529051600160a060020a03831691636ee4d55391608480830192600092919082900301818387803b158015610b6157600080fd5b505af1158015610b75573d6000803e3d6000fd5b505050505050505050565b600160a060020a0381161515610b9557600080fd5b600654604051600160a060020a038084169216907f8be0079c531659141344cd1fd0a4f28419497f9722a3daafe3b4186f6b6457e090600090a36006805473ffffffffffffffffffffffffffffffffffffffff1916600160a060020a0392909216919091179055565b610c06611102565b610c168560800151610100610dc5565b5050918352600160a060020a03166020830152600160e060020a031916604082015290565b610c488260038351610e05565b610738828263ffffffff610f0216565b610697816004610f23565b610697816007610f23565b8051602080830151604080850151606086810151608088015151935160006024820181815260448301829052606483018a9052600160a060020a0388166084840152600160e060020a0319861660a484015260c48301849052600160e48401819052610100610104850190815288516101248601528851969b7f40429946000000000000000000000000000000000000000000000000000000009b949a8b9a91999098909796939591949361014401918501908083838e5b83811015610d3e578181015183820152602001610d26565b50505050905090810190601f168015610d6b5780820380516001836020036101000a031916815260200191505b5060408051601f198184030181529190526020810180517bffffffffffffffffffffffffffffffffffffffffffffffffffffffff16600160e060020a0319909d169c909c17909b5250989950505050505050505050919050565b610dcd611137565b6020820615610de25760208206602003820191505b506020808301829052604080518085526000815283019091019052815b92915050565b60178111610e2757610e218360ff848116602002168317610f3c565b50610738565b60ff8111610e5b57610e48836018602060ff8616021763ffffffff610f3c16565b50610e218382600163ffffffff610f5416565b61ffff8111610e9057610e7d836019602060ff8616021763ffffffff610f3c16565b50610e218382600263ffffffff610f5416565b63ffffffff8111610ec757610eb483601a602060ff8616021763ffffffff610f3c16565b50610e218382600463ffffffff610f5416565b67ffffffffffffffff811161073857610eef83601b602060ff8616021763ffffffff610f3c16565b5061048a8382600863ffffffff610f5416565b610f0a611137565b610f1c83846000015151848551610f75565b9392505050565b61073882601f602060ff8516021763ffffffff610f3c16565b610f44611137565b610f1c838460000151518461102b565b610f5c611137565b610f6d848560000151518585611076565b949350505050565b610f7d611137565b600080600085518511151515610f9257600080fd5b87602001518588011115610fbc57610fbc88610fb48a602001518a89016110d4565b6002026110eb565b875180518860208301019450808988011115610fd85788870182525b60208801935050505b602085106110035781518352601f199094019360209283019290910190610fe1565b505181516020949094036101000a600019018019909116931692909217909152509192915050565b611033611137565b6020840151831061104f5761104f8485602001516002026110eb565b835180516020858301018481538186141561106b576001820183525b509495945050505050565b61107e611137565b60008560200151858401111561109d5761109d868685016002026110eb565b6001836101000a03905085518386820101858319825116178152815185880111156110c85784870182525b50959695505050505050565b6000818311156110e5575081610dff565b50919050565b81516110f78383610dc5565b5061048a8382610f02565b6040805160c081018252600080825260208201819052918101829052606081019190915260808101611132611137565b905290565b604080518082019091526060815260006020820152905600a165627a7a72305820d2123aebae6268f858ea1b707f32f3ee9025d8a884fa6a074b8341d1baffd40e0029",
  "source": "pragma solidity 0.4.24;\n\nimport \"chainlink/contracts/Chainlinked.sol\";\nimport \"openzeppelin-solidity/contracts/ownership/Ownable.sol\";\n\ncontract Consumer is Chainlinked, Ownable {\n  // solium-disable-next-line zeppelin/no-arithmetic-operations\n  uint256 constant private ORACLE_PAYMENT = 1 * LINK;\n\n  bytes32 internal specId;\n  bytes32 public currentPrice;\n\n  event RequestFulfilled(\n    bytes32 indexed requestId,  // User-defined ID\n    bytes32 indexed price\n  );\n\n  constructor(address _oracle, bytes32 _specId) public {\n    setLinkToken(0x20fE562d797A42Dcb3399062AE9546cd06f63280);\n    setOracle(_oracle);\n    specId = _specId;\n  }\n\n  function requestEthereumPrice(string _currency) public {\n    Chainlink.Request memory req = newRequest(specId, this, this.fulfill.selector);\n    req.add(\"url\", \"https://min-api.cryptocompare.com/data/price?fsym=ETH&tsyms=USD,EUR,JPY\");\n    string[] memory path = new string[](1);\n    path[0] = _currency;\n    req.addStringArray(\"path\", path);\n    chainlinkRequestTo(oracleAddress(), req, ORACLE_PAYMENT);\n  }\n\n  function cancelRequest(\n    bytes32 _requestId,\n    uint256 _payment,\n    bytes4 _callbackFunctionId,\n    uint256 _expiration\n  )\n  public\n  onlyOwner\n  {\n    cancelChainlinkRequest(_requestId, _payment, _callbackFunctionId, _expiration);\n  }\n\n  function withdrawLink() public {\n    LinkTokenInterface link = LinkTokenInterface(chainlinkToken());\n    require(link.transfer(msg.sender, link.balanceOf(address(this))), \"Unable to transfer\");\n  }\n\n  function fulfill(bytes32 _requestId, bytes32 _price)\n    public\n  recordChainlinkFulfillment(_requestId)\n  {\n    emit RequestFulfilled(_requestId, _price);\n    currentPrice = _price;\n  }\n\n}\n",
  "sourcePath": "/c/dev/example-chainlinks/contracts/Consumer.sol",
  "compiler": {
    "name": "solc",
    "version": "0.4.24+commit.e67f0147.Emscripten.clang"
  },
  "schemaVersion": "3.0.8",
  "updatedAt": "2019-04-26T21:58:48.278Z",
  "devdoc": {
    "methods": {
      "renounceOwnership()": {
        "details": "Allows the current owner to relinquish control of the contract."
      },
      "transferOwnership(address)": {
        "details": "Allows the current owner to transfer control of the contract to a newOwner.",
        "params": {
          "_newOwner": "The address to transfer ownership to."
        }
      }
    }
  },
  "userdoc": {
    "methods": {
      "renounceOwnership()": {
        "notice": "Renouncing to ownership will leave the contract without an owner. It will not be possible to call the functions with the `onlyOwner` modifier anymore."
      }
    }
  }
}