{
  "contractName": "RapidAPIWeatherConsumer",
  "abi": [
    {
      "constant": true,
      "inputs": [
        {
          "name": "",
          "type": "bytes32"
        }
      ],
      "name": "humidities",
      "outputs": [
        {
          "name": "",
          "type": "uint256"
        }
      ],
      "payable": false,
      "stateMutability": "view",
      "type": "function",
      "signature": "0x710a5f7a"
    },
    {
      "constant": false,
      "inputs": [
        {
          "name": "",
          "type": "bytes32"
        }
      ],
      "name": "renounceOwnership",
      "outputs": [
        {
          "name": "",
          "type": "uint256"
        }
      ],
      "payable": false,
      "stateMutability": "nonpayable",
      "type": "function",
      "signature": "0x219adc2e"
    },
    {
      "constant": true,
      "inputs": [
        {
          "name": "",
          "type": "bytes32"
        }
      ],
      "name": "temps",
      "outputs": [
        {
          "name": "",
          "type": "uint256"
        }
      ],
      "payable": false,
      "stateMutability": "view",
      "type": "function",
      "signature": "0x8c9b1aa6"
    },
    {
      "constant": true,
      "inputs": [],
      "name": "owner",
      "outputs": [
        {
          "name": "",
          "type": "address"
        }
      ],
      "payable": false,
      "stateMutability": "view",
      "type": "function",
      "signature": "0x8da5cb5b"
    },
    {
      "constant": true,
      "inputs": [
        {
          "name": "",
          "type": "bytes32"
        }
      ],
      "name": "windSpeeds",
      "outputs": [
        {
          "name": "",
          "type": "uint256"
        }
      ],
      "payable": false,
      "stateMutability": "view",
      "type": "function",
      "signature": "0xb7fa1c9a"
    },
    {
      "inputs": [
        {
          "name": "_oracle",
          "type": "address"
        },
        {
          "name": "_jobId",
          "type": "bytes32"
        }
      ],
      "payable": false,
      "stateMutability": "view",
      "type": "function",
      "signature": "0xa1dd7db4",
      "constant": true,
      "name": "jobId",
      "outputs": [
        {
          "name": "",
          "type": "bytes32"
        }
      ]
    },
    {
      "anonymous": false,
      "inputs": [
        {
          "indexed": true,
          "name": "_newOwner",
          "type": "address"
        },
        {
          "indexed": true,
          "name": "hash",
          "type": "bytes32"
        },
        {
          "indexed": false,
          "name": "weather",
          "type": "uint256"
        }
      ],
      "name": "transferOwnership",
      "type": "function",
      "signature": "0xdaf2e305",
      "constant": false,
      "outputs": [],
      "payable": false,
      "stateMutability": "nonpayable"
    },
    {
      "anonymous": false,
      "inputs": [
        {
          "indexed": true,
          "name": "_token",
          "type": "address"
        },
        {
          "name": "_oracle",
          "type": "address"
        },
        {
          "name": "_jobId",
          "type": "bytes32"
        }
      ],
      "name": "OwnershipRenounced",
      "type": "constructor",
      "signature": "constructor",
      "payable": false,
      "stateMutability": "nonpayable"
    },
    {
      "anonymous": false,
      "inputs": [
        {
          "indexed": true,
          "name": "requestId",
          "type": "bytes32"
        },
        {
          "indexed": true,
          "name": "hash",
          "type": "bytes32"
        },
        {
          "indexed": false,
          "name": "weather",
          "type": "uint256"
        }
      ],
      "name": "RequestFulfilled",
      "type": "event",
      "signature": "0x9fd062d5b1f778d07b7b652e4439fa529baa2b1195bc86e30ef5376f8f9bf905"
    },
    {
      "anonymous": false,
      "inputs": [
        {
          "indexed": true,
          "name": "previousOwner",
          "type": "address"
        }
      ],
      "name": "OwnershipRenounced",
      "type": "event",
      "signature": "0xf8df31144d9c2f0f6b59d69b8b98abd5459d07f2742c4df920b25aae33c64820"
    },
    {
      "anonymous": false,
      "inputs": [
        {
          "indexed": true,
          "name": "previousOwner",
          "type": "address"
        },
        {
          "indexed": true,
          "name": "newOwner",
          "type": "address"
        }
      ],
      "name": "OwnershipTransferred",
      "type": "event",
      "signature": "0x8be0079c531659141344cd1fd0a4f28419497f9722a3daafe3b4186f6b6457e0"
    },
    {
      "anonymous": false,
      "inputs": [
        {
          "indexed": true,
          "name": "id",
          "type": "bytes32"
        }
      ],
      "name": "ChainlinkRequested",
      "type": "event",
      "signature": "0xb5e6e01e79f91267dc17b4e6314d5d4d03593d2ceee0fbb452b750bd70ea5af9"
    },
    {
      "constant": false,
      "inputs": [
        {
          "name": "id",
          "type": "bytes32",
          "indexed": true
        }
      ],
      "name": "ChainlinkFulfilled",
      "outputs": [],
      "payable": false,
      "stateMutability": "nonpayable",
      "type": "event",
      "signature": "0x7cc135e0cebb02c3480ae5d74d377283180a2601f8f644edf7987b009316c63a",
      "anonymous": false
    },
    {
      "constant": false,
      "inputs": [
        {
          "name": "id",
          "type": "bytes32",
          "indexed": true
        },
        {
          "name": "_payment",
          "type": "uint256"
        },
        {
          "name": "_callbackFunctionId",
          "type": "bytes4"
        },
        {
          "name": "_expiration",
          "type": "uint256"
        }
      ],
      "name": "ChainlinkCancelled",
      "outputs": [],
      "payable": false,
      "stateMutability": "nonpayable",
      "type": "event",
      "signature": "0x688bd290d48c4b1573778f3e6b4f374686c27aedfe20aa925e9e7253fb4dcbbf",
      "anonymous": false
    },
    {
      "constant": false,
      "inputs": [
        {
          "name": "_location",
          "type": "string"
        },
        {
          "name": "_temp",
          "type": "uint256"
        }
      ],
      "name": "requestImperialTemp",
      "outputs": [],
      "payable": false,
      "stateMutability": "nonpayable",
      "type": "function",
      "signature": "0x04732beb"
    },
    {
      "constant": false,
      "inputs": [
        {
          "name": "_location",
          "type": "string"
        }
      ],
      "name": "requestMetricTemp",
      "outputs": [],
      "payable": false,
      "stateMutability": "nonpayable",
      "type": "function",
      "signature": "0xdddf9b8e"
    },
    {
      "constant": false,
      "inputs": [
        {
          "name": "_location",
          "type": "string"
        }
      ],
      "name": "requestHumidity",
      "outputs": [],
      "payable": false,
      "stateMutability": "nonpayable",
      "type": "function",
      "signature": "0x6c64dfe9"
    },
    {
      "constant": false,
      "inputs": [
        {
          "name": "_location",
          "type": "string"
        }
      ],
      "name": "requestWindSpeed",
      "outputs": [],
      "payable": false,
      "stateMutability": "nonpayable",
      "type": "function",
      "signature": "0xdad10ba4"
    },
    {
      "constant": false,
      "inputs": [
        {
          "name": "_requestId",
          "type": "bytes32"
        },
        {
          "name": "_payment",
          "type": "uint256"
        },
        {
          "name": "_callbackFunctionId",
          "type": "bytes4"
        },
        {
          "name": "_expiration",
          "type": "uint256"
        }
      ],
      "name": "cancelRequest",
      "outputs": [],
      "payable": false,
      "stateMutability": "nonpayable",
      "type": "function",
      "signature": "0xec65d0f8"
    },
    {
      "constant": false,
      "inputs": [
        {
          "name": "_requestId",
          "type": "bytes32"
        },
        {
          "name": "_temp",
          "type": "uint256"
        }
      ],
      "name": "fulfillTemp",
      "outputs": [],
      "payable": false,
      "stateMutability": "nonpayable",
      "type": "function",
      "signature": "0x01f61deb"
    },
    {
      "constant": false,
      "inputs": [
        {
          "name": "_requestId",
          "type": "bytes32"
        },
        {
          "name": "_humidity",
          "type": "uint256"
        }
      ],
      "name": "fulfillHumidity",
      "outputs": [],
      "payable": false,
      "stateMutability": "nonpayable",
      "type": "function",
      "signature": "0x26ca9d9e"
    },
    {
      "constant": false,
      "inputs": [
        {
          "name": "_requestId",
          "type": "bytes32"
        },
        {
          "name": "_windSpeed",
          "type": "uint256"
        }
      ],
      "name": "fulfillWindSpeed",
      "outputs": [],
      "payable": false,
      "stateMutability": "nonpayable",
      "type": "function",
      "signature": "0x3a4cf392"
    }
  ],
  "bytecode": "0x6080604052600160045534801561001557600080fd5b5060405160608061182583398101604090815281516020830151919092015160068054600160a060020a0319163317905561005883640100000000610075810204565b61006a82640100000000610097810204565b600755506100b99050565b60028054600160a060020a031916600160a060020a0392909216919091179055565b60038054600160a060020a031916600160a060020a0392909216919091179055565b61175d806100c86000396000f3006080604052600436106100c15763ffffffff60e060020a60003504166301f61deb81146100c657806326ca9d9e146100e35780633a4cf392146100fe5780636c64dfe914610119578063710a5f7a14610172578063715018a61461019c578063751dab9f146101b15780638c9b1aa61461020a5780638da5cb5b14610222578063b7fa1c9a14610253578063c2939d971461026b578063dad10ba414610280578063dddf9b8e146102d9578063ec65d0f814610332578063f2fde38b1461035d575b600080fd5b3480156100d257600080fd5b506100e160043560243561037e565b005b3480156100ef57600080fd5b506100e16004356024356104c8565b34801561010a57600080fd5b506100e1600435602435610612565b34801561012557600080fd5b506040805160206004803580820135601f81018490048402850184019095528484526100e194369492936024939284019190819084018382808284375094975061075c9650505050505050565b34801561017e57600080fd5b5061018a6004356107ce565b60408051918252519081900360200190f35b3480156101a857600080fd5b506100e16107e0565b3480156101bd57600080fd5b506040805160206004803580820135601f81018490048402850184019095528484526100e19436949293602493928401919081908401838280828437509497506108419650505050505050565b34801561021657600080fd5b5061018a6004356108c3565b34801561022e57600080fd5b506102376108d5565b60408051600160a060020a039092168252519081900360200190f35b34801561025f57600080fd5b5061018a6004356108e4565b34801561027757600080fd5b5061018a6108f6565b34801561028c57600080fd5b506040805160206004803580820135601f81018490048402850184019095528484526100e19436949293602493928401919081908401838280828437509497506108fc9650505050505050565b3480156102e557600080fd5b506040805160206004803580820135601f81018490048402850184019095528484526100e194369492936024939284019190819084018382808284375094975061097e9650505050505050565b34801561033e57600080fd5b506100e1600435602435600160e060020a031960443516606435610a00565b34801561036957600080fd5b506100e1600160a060020a0360043516610a29565b6000828152600560205260409020548290600160a060020a03163314610414576040805160e560020a62461bcd02815260206004820152602860248201527f536f75726365206d75737420626520746865206f7261636c65206f662074686560448201527f2072657175657374000000000000000000000000000000000000000000000000606482015290519081900360840190fd5b6000818152600560205260408082208054600160a060020a03191690555182917f7cc135e0cebb02c3480ae5d74d377283180a2601f8f644edf7987b009316c63a91a26000838152600860209081526040918290205482518581529251909286927f9fd062d5b1f778d07b7b652e4439fa529baa2b1195bc86e30ef5376f8f9bf90592918290030190a350600082815260086020818152604080842080548552600983529084209490945593825290925255565b6000828152600560205260409020548290600160a060020a0316331461055e576040805160e560020a62461bcd02815260206004820152602860248201527f536f75726365206d75737420626520746865206f7261636c65206f662074686560448201527f2072657175657374000000000000000000000000000000000000000000000000606482015290519081900360840190fd5b6000818152600560205260408082208054600160a060020a03191690555182917f7cc135e0cebb02c3480ae5d74d377283180a2601f8f644edf7987b009316c63a91a26000838152600860209081526040918290205482518581529251909286927f9fd062d5b1f778d07b7b652e4439fa529baa2b1195bc86e30ef5376f8f9bf90592918290030190a350600082815260086020818152604080842080548552600a83529084209490945593825290925255565b6000828152600560205260409020548290600160a060020a031633146106a8576040805160e560020a62461bcd02815260206004820152602860248201527f536f75726365206d75737420626520746865206f7261636c65206f662074686560448201527f2072657175657374000000000000000000000000000000000000000000000000606482015290519081900360840190fd5b6000818152600560205260408082208054600160a060020a03191690555182917f7cc135e0cebb02c3480ae5d74d377283180a2601f8f644edf7987b009316c63a91a26000838152600860209081526040918290205482518581529251909286927f9fd062d5b1f778d07b7b652e4439fa529baa2b1195bc86e30ef5376f8f9bf90592918290030190a350600082815260086020818152604080842080548552600b83529084209490945593825290925255565b6040805160208181018352600082528251808401909352600d83527f6d61696e2e68756d696469747900000000000000000000000000000000000000908301526107cb9183919060017f26ca9d9e00000000000000000000000000000000000000000000000000000000610a49565b50565b600a6020526000908152604090205481565b600654600160a060020a031633146107f757600080fd5b600654604051600160a060020a03909116907ff8df31144d9c2f0f6b59d69b8b98abd5459d07f2742c4df920b25aae33c6482090600090a260068054600160a060020a0319169055565b6107cb816040805190810160405280600881526020017f696d70657269616c0000000000000000000000000000000000000000000000008152506040805190810160405280600981526020017f6d61696e2e74656d70000000000000000000000000000000000000000000000081525060646301f61deb60e060020a02610a49565b60096020526000908152604090205481565b600654600160a060020a031681565b600b6020526000908152604090205481565b60075481565b6107cb816040805190810160405280600881526020017f696d70657269616c0000000000000000000000000000000000000000000000008152506040805190810160405280600a81526020017f77696e642e737065656400000000000000000000000000000000000000000000815250600a633a4cf39260e060020a02610a49565b6107cb816040805190810160405280600681526020017f6d657472696300000000000000000000000000000000000000000000000000008152506040805190810160405280600981526020017f6d61696e2e74656d70000000000000000000000000000000000000000000000081525060646301f61deb60e060020a02610a49565b600654600160a060020a03163314610a1757600080fd5b610a2384848484610d56565b50505050565b600654600160a060020a03163314610a4057600080fd5b6107cb81610e47565b610a516116e4565b6000610a606007543085610eb8565b9150610b086040805190810160405280600381526020017f75726c0000000000000000000000000000000000000000000000000000000000815250606060405190810160405280603981526020017f68747470733a2f2f636f6d6d756e6974792d6f70656e2d776561746865722d6d81526020017f61702e702e72617069646170692e636f6d2f776561746865720000000000000081525084610ee39092919063ffffffff16565b60408051808201909152600181527f71000000000000000000000000000000000000000000000000000000000000006020820152610b4e9083908963ffffffff610ee316565b60408051808201909152600881527f636f7079506174680000000000000000000000000000000000000000000000006020820152610b949083908763ffffffff610ee316565b60408051808201909152600581527f756e6974730000000000000000000000000000000000000000000000000000006020820152610bda9083908863ffffffff610ee316565b60408051808201909152600581527f74696d65730000000000000000000000000000000000000000000000000000006020820152610c209083908663ffffffff610f1216565b610c3282670de0b6b3a7640000610f3c565b905086866040516020018083805190602001908083835b60208310610c685780518252601f199092019160209182019101610c49565b51815160209384036101000a600019018019909216911617905285519190930192850191508083835b60208310610cb05780518252601f199092019160209182019101610c91565b6001836020036101000a038019825116818451168082178552505050505050905001925050506040516020818303038152906040526040518082805190602001908083835b60208310610d145780518252601f199092019160209182019101610cf5565b51815160209384036101000a60001901801990921691161790526040805192909401829003909120600096875260089091529190942055505050505050505050565b6000848152600560205260408082208054600160a060020a031981169091559051600160a060020a039091169186917fe1fe3afa0f7f761ff0a8b89086790efd5140d2907ebd5b7ff6bfcb5e075fd4c59190a2604080517f6ee4d5530000000000000000000000000000000000000000000000000000000081526004810187905260248101869052600160e060020a031985166044820152606481018490529051600160a060020a03831691636ee4d55391608480830192600092919082900301818387803b158015610e2857600080fd5b505af1158015610e3c573d6000803e3d6000fd5b505050505050505050565b600160a060020a0381161515610e5c57600080fd5b600654604051600160a060020a038084169216907f8be0079c531659141344cd1fd0a4f28419497f9722a3daafe3b4186f6b6457e090600090a360068054600160a060020a031916600160a060020a0392909216919091179055565b610ec06116e4565b610ec86116e4565b610eda8186868663ffffffff610f5f16565b95945050505050565b6080830151610ef8908363ffffffff610f9c16565b6080830151610f0d908263ffffffff610f9c16565b505050565b6080830151610f27908363ffffffff610f9c16565b6080830151610f0d908263ffffffff610fb916565b600354600090610f5690600160a060020a03168484610fe6565b90505b92915050565b610f676116e4565b610f778560800151610100611276565b5050918352600160a060020a03166020830152600160e060020a031916604082015290565b610fa982600383516112b0565b610f0d828263ffffffff6113ad16565b60008112610fd257610fcd826000836112b0565b610fe2565b610fe282600183600019036112b0565b5050565b6000306004546040516020018083600160a060020a0316600160a060020a03166c01000000000000000000000000028152601401828152602001925050506040516020818303038152906040526040518082805190602001908083835b602083106110625780518252601f199092019160209182019101611043565b51815160209384036101000a6000190180199092169116179052604080519290940182900390912060045460608a0152600081815260059092528382208054600160a060020a031916600160a060020a038c1617905592519295508594507fb5e6e01e79f91267dc17b4e6314d5d4d03593d2ceee0fbb452b750bd70ea5af99350919050a2600254600160a060020a0316634000aea08584611103876113c7565b6040518463ffffffff1660e060020a0281526004018084600160a060020a0316600160a060020a0316815260200183815260200180602001828103825283818151815260200191508051906020019080838360005b83811015611170578181015183820152602001611158565b50505050905090810190601f16801561119d5780820380516001836020036101000a031916815260200191505b50945050505050602060405180830381600087803b1580156111be57600080fd5b505af11580156111d2573d6000803e3d6000fd5b505050506040513d60208110156111e857600080fd5b50511515611266576040805160e560020a62461bcd02815260206004820152602360248201527f756e61626c6520746f207472616e73666572416e6443616c6c20746f206f726160448201527f636c650000000000000000000000000000000000000000000000000000000000606482015290519081900360840190fd5b6004805460010190559392505050565b61127e611719565b60208206156112935760208206602003820191505b506020828101829052604080518085526000815290920101905290565b601781116112d2576112cc8360ff84811660200216831761151e565b50610f0d565b60ff8111611306576112f3836018602060ff8616021763ffffffff61151e16565b506112cc8382600163ffffffff61153616565b61ffff811161133b57611328836019602060ff8616021763ffffffff61151e16565b506112cc8382600263ffffffff61153616565b63ffffffff81116113725761135f83601a602060ff8616021763ffffffff61151e16565b506112cc8382600463ffffffff61153616565b67ffffffffffffffff8111610f0d5761139a83601b602060ff8616021763ffffffff61151e16565b50610a238382600863ffffffff61153616565b6113b5611719565b610f5683846000015151848551611557565b8051602080830151604080850151606086810151608088015151935160006024820181815260448301829052606483018a9052600160a060020a0388166084840152600160e060020a0319861660a484015260c48301849052600160e48401819052610100610104850190815288516101248601528851969b7f40429946000000000000000000000000000000000000000000000000000000009b949a8b9a91999098909796939591949361014401918501908083838e5b8381101561149757818101518382015260200161147f565b50505050905090810190601f1680156114c45780820380516001836020036101000a031916815260200191505b5060408051601f198184030181529190526020810180517bffffffffffffffffffffffffffffffffffffffffffffffffffffffff16600160e060020a0319909d169c909c17909b5250989950505050505050505050919050565b611526611719565b610f56838460000151518461160d565b61153e611719565b61154f848560000151518585611658565b949350505050565b61155f611719565b60008060008551851115151561157457600080fd5b8760200151858801111561159e5761159e886115968a602001518a89016116b6565b6002026116cd565b8751805188602083010194508089880111156115ba5788870182525b60208801935050505b602085106115e55781518352601f1990940193602092830192909101906115c3565b505181516020949094036101000a600019018019909116931692909217909152509192915050565b611615611719565b60208401518310611631576116318485602001516002026116cd565b835180516020858301018481538186141561164d576001820183525b509495945050505050565b611660611719565b60008560200151858401111561167f5761167f868685016002026116cd565b6001836101000a03905085518386820101858319825116178152815185880111156116aa5784870182525b50959695505050505050565b6000818311156116c7575081610f59565b50919050565b81516116d98383611276565b50610a2383826113ad565b6040805160c081018252600080825260208201819052918101829052606081019190915260808101611714611719565b905290565b604080518082019091526060815260006020820152905600a165627a7a7230582043480705c81e4838a75e986368376c9818300fd1f5df3c5d42a5c32f2615c2910029",
  "source": "pragma solidity ^0.4.24;\r\n\r\nimport \"openzeppelin-solidity/contracts/ownership/Ownable.sol\";\r\nimport \"chainlink/contracts/Chainlinked.sol\";\r\n\r\n/**\r\n    @dev Rapid API Docs: https://rapidapi.com/community/api/open-weather-map\r\n    @dev Open Weather Docs: https://openweathermap.org/current\r\n*/\r\ncontract RapidAPIWeatherConsumer is Chainlinked, Ownable {\r\n    // solium-disable-next-line zeppelin/no-arithmetic-operations\r\n    uint256 constant private ORACLE_PAYMENT = 1 * LINK;\r\n\r\n    bytes32 public jobId;\r\n\r\n    event RequestFulfilled(\r\n        bytes32 indexed requestId,\r\n        bytes32 indexed hash,\r\n        uint256 weather\r\n    );\r\n\r\n    mapping(bytes32 => bytes32) requests;\r\n    mapping(bytes32 => uint256) public temps;\r\n    mapping(bytes32 => uint256) public humidities;\r\n    mapping(bytes32 => uint256) public windSpeeds;\r\n\r\n    constructor(address _token, address _oracle, bytes32 _jobId) public {\r\n        setLinkToken(_token);\r\n        setOracle(_oracle);\r\n        jobId = _jobId;\r\n    }\r\n\r\n    /**\r\n        @dev Request the temperature in imperial units (fahrenheit)\r\n        @param _location Enter any location as the input, for example: \"London,uk\", \"New York,us\"\r\n    */\r\n    function requestImperialTemp(string _location) public {\r\n        requestWeather(_location, \"imperial\", \"main.temp\", 100, this.fulfillTemp.selector);\r\n    }\r\n\r\n    /**\r\n        @dev Request the temperature in imperial units (celsius)\r\n        @param _location Enter any location as the input, for example: \"London,uk\", \"New York,us\"\r\n    */\r\n    function requestMetricTemp(string _location) public {\r\n        requestWeather(_location, \"metric\", \"main.temp\", 100, this.fulfillTemp.selector);\r\n    }\r\n\r\n    /**\r\n        @dev Request the humidity percentage in a location\r\n        @param _location Enter any location as the input, for example: \"London,uk\", \"New York,us\"\r\n    */\r\n    function requestHumidity(string _location) public {\r\n        requestWeather(_location, \"\", \"main.humidity\", 1, this.fulfillHumidity.selector);\r\n    }\r\n\r\n    /**\r\n        @dev Request the wind speed in a location returned in mph\r\n        @param _location Enter any location as the input, for example: \"London,uk\", \"New York,us\"\r\n    */\r\n    function requestWindSpeed(string _location) public {\r\n        requestWeather(_location, \"imperial\", \"wind.speed\", 10, this.fulfillWindSpeed.selector);\r\n    }\r\n\r\n    function requestWeather(\r\n        string _location,\r\n        string _units,\r\n        string _path,\r\n        int256 _times,\r\n        bytes4 _selector\r\n    ) internal {\r\n        Chainlink.Request memory req = newRequest(jobId, this, _selector);\r\n        req.add(\"url\", \"https://community-open-weather-map.p.rapidapi.com/weather\");\r\n        req.add(\"q\", _location);\r\n        req.add(\"copyPath\", _path);\r\n        req.add(\"units\", _units);\r\n        req.addInt(\"times\", _times);\r\n        bytes32 requestId = chainlinkRequest(req, ORACLE_PAYMENT);\r\n        requests[requestId] = keccak256(abi.encodePacked(_location, _units));\r\n    }\r\n\r\n    function cancelRequest(\r\n        bytes32 _requestId,\r\n        uint256 _payment,\r\n        bytes4 _callbackFunctionId,\r\n        uint256 _expiration\r\n    )\r\n    public\r\n    onlyOwner\r\n    {\r\n        cancelChainlinkRequest(_requestId, _payment, _callbackFunctionId, _expiration);\r\n    }\r\n\r\n    function fulfillTemp(bytes32 _requestId, uint256 _temp)\r\n    public\r\n    recordChainlinkFulfillment(_requestId)\r\n    {\r\n        emit RequestFulfilled(_requestId, requests[_requestId], _temp);\r\n        temps[requests[_requestId]] = _temp;\r\n        delete requests[_requestId];\r\n    }\r\n\r\n    function fulfillHumidity(bytes32 _requestId, uint256 _humidity)\r\n    public\r\n    recordChainlinkFulfillment(_requestId)\r\n    {\r\n        emit RequestFulfilled(_requestId, requests[_requestId], _humidity);\r\n        humidities[requests[_requestId]] = _humidity;\r\n        delete requests[_requestId];\r\n    }\r\n\r\n    function fulfillWindSpeed(bytes32 _requestId, uint256 _windSpeed)\r\n    public\r\n    recordChainlinkFulfillment(_requestId)\r\n    {\r\n        emit RequestFulfilled(_requestId, requests[_requestId], _windSpeed);\r\n        windSpeeds[requests[_requestId]] = _windSpeed;\r\n        delete requests[_requestId];\r\n    }\r\n\r\n}",
  "sourcePath": "/home/jonny/dev/linkpool/example-chainlinks/contracts/RapidAPIWeatherConsumer.sol",
  "compiler": {
    "name": "solc",
    "version": "0.4.24+commit.e67f0147.Emscripten.clang"
  },
  "schemaVersion": "3.0.8",
  "updatedAt": "2020-03-04T12:21:04.375Z",
  "devdoc": {
    "methods": {
      "renounceOwnership()": {
        "details": "Allows the current owner to relinquish control of the contract."
      },
      "transferOwnership(address)": {
        "details": "Allows the current owner to transfer control of the contract to a newOwner.",
        "params": {
          "_newOwner": "The address to transfer ownership to."
        }
      },
      "requestHumidity(string)": {
        "details": "Request the humidity percentage in a location\r",
        "params": {
          "_location": "Enter any location as the input, for example: \"London,uk\", \"New York,us\"\r"
        }
      },
      "requestImperialTemp(string)": {
        "details": "Request the temperature in imperial units (fahrenheit)\r",
        "params": {
          "_location": "Enter any location as the input, for example: \"London,uk\", \"New York,us\"\r"
        }
      },
      "requestMetricTemp(string)": {
        "details": "Request the temperature in imperial units (celsius)\r",
        "params": {
          "_location": "Enter any location as the input, for example: \"London,uk\", \"New York,us\"\r"
        }
      },
      "requestWindSpeed(string)": {
        "details": "Request the wind speed in a location returned in mph\r",
        "params": {
          "_location": "Enter any location as the input, for example: \"London,uk\", \"New York,us\"\r"
        }
      }
    }
  },
  "userdoc": {
    "methods": {
      "renounceOwnership()": {
        "notice": "Renouncing to ownership will leave the contract without an owner. It will not be possible to call the functions with the `onlyOwner` modifier anymore."
      }
    }
  }
}