{
  "contractName": "WolframAlphaConsumer",
  "abi": [
    {
      "constant": true,
      "inputs": [
        {
          "name": "",
          "type": "bytes32"
        }
      ],
      "name": "distances",
      "outputs": [
        {
          "name": "",
          "type": "int256"
        }
      ],
      "payable": false,
      "stateMutability": "view",
      "type": "function",
      "signature": "0x5e71124d"
    },
    {
      "constant": false,
      "inputs": [],
      "name": "renounceOwnership",
      "outputs": [],
      "payable": false,
      "stateMutability": "nonpayable",
      "type": "function",
      "signature": "0x715018a6"
    },
    {
      "constant": true,
      "inputs": [],
      "name": "owner",
      "outputs": [
        {
          "name": "",
          "type": "address"
        }
      ],
      "payable": false,
      "stateMutability": "view",
      "type": "function",
      "signature": "0x8da5cb5b"
    },
    {
      "constant": true,
      "inputs": [],
      "name": "jobId",
      "outputs": [
        {
          "name": "",
          "type": "bytes32"
        }
      ],
      "payable": false,
      "stateMutability": "view",
      "type": "function",
      "signature": "0xc2939d97"
    },
    {
      "constant": false,
      "inputs": [
        {
          "name": "_newOwner",
          "type": "address"
        }
      ],
      "name": "transferOwnership",
      "outputs": [],
      "payable": false,
      "stateMutability": "nonpayable",
      "type": "function",
      "signature": "0xf2fde38b"
    },
    {
      "inputs": [
        {
          "name": "_oracle",
          "type": "address"
        },
        {
          "name": "_jobId",
          "type": "bytes32"
        }
      ],
      "payable": false,
      "stateMutability": "nonpayable",
      "type": "constructor",
      "signature": "constructor"
    },
    {
      "anonymous": false,
      "inputs": [
        {
          "indexed": true,
          "name": "requestId",
          "type": "bytes32"
        },
        {
          "indexed": true,
          "name": "hash",
          "type": "bytes32"
        },
        {
          "indexed": false,
          "name": "distance",
          "type": "int256"
        }
      ],
      "name": "RequestFulfilled",
      "type": "event",
      "signature": "0x00d315d2ede2869d559e8244630c7ef9f0ff14101c60f81a98e7b2ec87779ad8"
    },
    {
      "anonymous": false,
      "inputs": [
        {
          "indexed": true,
          "name": "previousOwner",
          "type": "address"
        }
      ],
      "name": "OwnershipRenounced",
      "type": "event",
      "signature": "0xf8df31144d9c2f0f6b59d69b8b98abd5459d07f2742c4df920b25aae33c64820"
    },
    {
      "anonymous": false,
      "inputs": [
        {
          "indexed": true,
          "name": "previousOwner",
          "type": "address"
        },
        {
          "indexed": true,
          "name": "newOwner",
          "type": "address"
        }
      ],
      "name": "OwnershipTransferred",
      "type": "event",
      "signature": "0x8be0079c531659141344cd1fd0a4f28419497f9722a3daafe3b4186f6b6457e0"
    },
    {
      "anonymous": false,
      "inputs": [
        {
          "indexed": true,
          "name": "id",
          "type": "bytes32"
        }
      ],
      "name": "ChainlinkRequested",
      "type": "event",
      "signature": "0xb5e6e01e79f91267dc17b4e6314d5d4d03593d2ceee0fbb452b750bd70ea5af9"
    },
    {
      "anonymous": false,
      "inputs": [
        {
          "indexed": true,
          "name": "id",
          "type": "bytes32"
        }
      ],
      "name": "ChainlinkFulfilled",
      "type": "event",
      "signature": "0x7cc135e0cebb02c3480ae5d74d377283180a2601f8f644edf7987b009316c63a"
    },
    {
      "anonymous": false,
      "inputs": [
        {
          "indexed": true,
          "name": "id",
          "type": "bytes32"
        }
      ],
      "name": "ChainlinkCancelled",
      "type": "event",
      "signature": "0xe1fe3afa0f7f761ff0a8b89086790efd5140d2907ebd5b7ff6bfcb5e075fd4c5"
    },
    {
      "constant": false,
      "inputs": [
        {
          "name": "_from",
          "type": "string"
        },
        {
          "name": "_to",
          "type": "string"
        }
      ],
      "name": "requestDistance",
      "outputs": [],
      "payable": false,
      "stateMutability": "nonpayable",
      "type": "function",
      "signature": "0xd5f44631"
    },
    {
      "constant": false,
      "inputs": [
        {
          "name": "_requestId",
          "type": "bytes32"
        },
        {
          "name": "_payment",
          "type": "uint256"
        },
        {
          "name": "_callbackFunctionId",
          "type": "bytes4"
        },
        {
          "name": "_expiration",
          "type": "uint256"
        }
      ],
      "name": "cancelRequest",
      "outputs": [],
      "payable": false,
      "stateMutability": "nonpayable",
      "type": "function",
      "signature": "0xec65d0f8"
    },
    {
      "constant": false,
      "inputs": [
        {
          "name": "_requestId",
          "type": "bytes32"
        },
        {
          "name": "_distance",
          "type": "int256"
        }
      ],
      "name": "fulfill",
      "outputs": [],
      "payable": false,
      "stateMutability": "nonpayable",
      "type": "function",
      "signature": "0xbda71d04"
    }
  ],
  "bytecode": "0x6080604052600160045534801561001557600080fd5b506040516040806112f083398101604052805160209091015160068054600160a060020a031916331790556100667320fe562d797a42dcb3399062ae9546cd06f63280640100000000610081810204565b610078826401000000006100a3810204565b600755506100c5565b60028054600160a060020a031916600160a060020a0392909216919091179055565b60038054600160a060020a031916600160a060020a0392909216919091179055565b61121c806100d46000396000f3006080604052600436106100745763ffffffff60e060020a6000350416635e71124d8114610079578063715018a6146100a35780638da5cb5b146100ba578063bda71d04146100eb578063c2939d9714610106578063d5f446311461011b578063ec65d0f8146101b2578063f2fde38b146101dd575b600080fd5b34801561008557600080fd5b506100916004356101fe565b60408051918252519081900360200190f35b3480156100af57600080fd5b506100b8610210565b005b3480156100c657600080fd5b506100cf61027e565b60408051600160a060020a039092168252519081900360200190f35b3480156100f757600080fd5b506100b860043560243561028d565b34801561011257600080fd5b506100916103fa565b34801561012757600080fd5b506040805160206004803580820135601f81018490048402850184019095528484526100b894369492936024939284019190819084018382808284375050604080516020601f89358b018035918201839004830284018301909452808352979a9998810197919650918201945092508291508401838280828437509497506104009650505050505050565b3480156101be57600080fd5b506100b8600435602435600160e060020a031960443516606435610792565b3480156101e957600080fd5b506100b8600160a060020a03600435166107bb565b60096020526000908152604090205481565b600654600160a060020a0316331461022757600080fd5b600654604051600160a060020a03909116907ff8df31144d9c2f0f6b59d69b8b98abd5459d07f2742c4df920b25aae33c6482090600090a26006805473ffffffffffffffffffffffffffffffffffffffff19169055565b600654600160a060020a031681565b6000828152600560205260409020548290600160a060020a0316331461033a57604080517f08c379a000000000000000000000000000000000000000000000000000000000815260206004820152602860248201527f536f75726365206d75737420626520746865206f7261636c65206f662074686560448201527f2072657175657374000000000000000000000000000000000000000000000000606482015290519081900360840190fd5b600081815260056020526040808220805473ffffffffffffffffffffffffffffffffffffffff191690555182917f7cc135e0cebb02c3480ae5d74d377283180a2601f8f644edf7987b009316c63a91a26000838152600860209081526040918290205482518581529251909286927ed315d2ede2869d559e8244630c7ef9f0ff14101c60f81a98e7b2ec87779ad892918290030190a350600082815260086020818152604080842080548552600983529084209490945593825290925255565b60075481565b6104086111a3565b60006104216007543063bda71d0460e060020a026107de565b91506105966040805190810160405280600581526020017f7175657279000000000000000000000000000000000000000000000000000000815250858560405160200180807f576861742773207468652064697374616e6365206265747765656e2000000000815250601c0183805190602001908083835b602083106104b85780518252601f199092019160209182019101610499565b51815160209384036101000a60001901801990921691161790527f20616e6420000000000000000000000000000000000000000000000000000000919093019081528451600590910192850191508083835b602083106105295780518252601f19909201916020918201910161050a565b6001836020036101000a038019825116818451168082178552505050505050905001807f3f0000000000000000000000000000000000000000000000000000000000000081525060010192505050604051602081830303815290604052846108099092919063ffffffff16565b60408051808201909152600581527f696e64657800000000000000000000000000000000000000000000000000000060208201526105dd908390600163ffffffff61083816565b604080518082018252600881527f636f7079506174680000000000000000000000000000000000000000000000006020808301919091528251808401909352600683527f726573756c740000000000000000000000000000000000000000000000000000908301526106579184919063ffffffff61080916565b610671610662610862565b83670de0b6b3a7640000610871565b905083836040516020018083805190602001908083835b602083106106a75780518252601f199092019160209182019101610688565b51815160209384036101000a600019018019909216911617905285519190930192850191508083835b602083106106ef5780518252601f1990920191602091820191016106d0565b6001836020036101000a038019825116818451168082178552505050505050905001925050506040516020818303038152906040526040518082805190602001908083835b602083106107535780518252601f199092019160209182019101610734565b51815160209384036101000a60001901801990921691161790526040805192909401829003909120600096875260089091529190942055505050505050565b600654600160a060020a031633146107a957600080fd5b6107b584848484610b25565b50505050565b600654600160a060020a031633146107d257600080fd5b6107db81610c23565b50565b6107e66111a3565b6107ee6111a3565b6108008186868663ffffffff610ca116565b95945050505050565b608083015161081e908363ffffffff610cde16565b6080830151610833908263ffffffff610cde16565b505050565b608083015161084d908363ffffffff610cde16565b6080830151610833908263ffffffff610cfb16565b600354600160a060020a031690565b6000306004546040516020018083600160a060020a0316600160a060020a03166c01000000000000000000000000028152601401828152602001925050506040516020818303038152906040526040518082805190602001908083835b602083106108ed5780518252601f1990920191602091820191016108ce565b51815160209384036101000a6000190180199092169116179052604080519290940182900390912060045460608a015260008181526005909252838220805473ffffffffffffffffffffffffffffffffffffffff1916600160a060020a038c1617905592519295508594507fb5e6e01e79f91267dc17b4e6314d5d4d03593d2ceee0fbb452b750bd70ea5af99350919050a2600254600160a060020a0316634000aea0858461099b87610d28565b6040518463ffffffff1660e060020a0281526004018084600160a060020a0316600160a060020a0316815260200183815260200180602001828103825283818151815260200191508051906020019080838360005b83811015610a085781810151838201526020016109f0565b50505050905090810190601f168015610a355780820380516001836020036101000a031916815260200191505b50945050505050602060405180830381600087803b158015610a5657600080fd5b505af1158015610a6a573d6000803e3d6000fd5b505050506040513d6020811015610a8057600080fd5b50511515610b1557604080517f08c379a000000000000000000000000000000000000000000000000000000000815260206004820152602360248201527f756e61626c6520746f207472616e73666572416e6443616c6c20746f206f726160448201527f636c650000000000000000000000000000000000000000000000000000000000606482015290519081900360840190fd5b6004805460010190559392505050565b600084815260056020526040808220805473ffffffffffffffffffffffffffffffffffffffff1981169091559051600160a060020a039091169186917fe1fe3afa0f7f761ff0a8b89086790efd5140d2907ebd5b7ff6bfcb5e075fd4c59190a2604080517f6ee4d5530000000000000000000000000000000000000000000000000000000081526004810187905260248101869052600160e060020a031985166044820152606481018490529051600160a060020a03831691636ee4d55391608480830192600092919082900301818387803b158015610c0457600080fd5b505af1158015610c18573d6000803e3d6000fd5b505050505050505050565b600160a060020a0381161515610c3857600080fd5b600654604051600160a060020a038084169216907f8be0079c531659141344cd1fd0a4f28419497f9722a3daafe3b4186f6b6457e090600090a36006805473ffffffffffffffffffffffffffffffffffffffff1916600160a060020a0392909216919091179055565b610ca96111a3565b610cb98560800151610100610e7f565b5050918352600160a060020a03166020830152600160e060020a031916604082015290565b610ceb8260038351610ebf565b610833828263ffffffff610fbc16565b60008112610d1457610d0f82600083610ebf565b610d24565b610d248260018360001903610ebf565b5050565b8051602080830151604080850151606086810151608088015151935160006024820181815260448301829052606483018a9052600160a060020a0388166084840152600160e060020a0319861660a484015260c48301849052600160e48401819052610100610104850190815288516101248601528851969b7f40429946000000000000000000000000000000000000000000000000000000009b949a8b9a91999098909796939591949361014401918501908083838e5b83811015610df8578181015183820152602001610de0565b50505050905090810190601f168015610e255780820380516001836020036101000a031916815260200191505b5060408051601f198184030181529190526020810180517bffffffffffffffffffffffffffffffffffffffffffffffffffffffff16600160e060020a0319909d169c909c17909b5250989950505050505050505050919050565b610e876111d8565b6020820615610e9c5760208206602003820191505b506020808301829052604080518085526000815283019091019052815b92915050565b60178111610ee157610edb8360ff848116602002168317610fdd565b50610833565b60ff8111610f1557610f02836018602060ff8616021763ffffffff610fdd16565b50610edb8382600163ffffffff610ff516565b61ffff8111610f4a57610f37836019602060ff8616021763ffffffff610fdd16565b50610edb8382600263ffffffff610ff516565b63ffffffff8111610f8157610f6e83601a602060ff8616021763ffffffff610fdd16565b50610edb8382600463ffffffff610ff516565b67ffffffffffffffff811161083357610fa983601b602060ff8616021763ffffffff610fdd16565b506107b58382600863ffffffff610ff516565b610fc46111d8565b610fd683846000015151848551611016565b9392505050565b610fe56111d8565b610fd683846000015151846110cc565b610ffd6111d8565b61100e848560000151518585611117565b949350505050565b61101e6111d8565b60008060008551851115151561103357600080fd5b8760200151858801111561105d5761105d886110558a602001518a8901611175565b60020261118c565b8751805188602083010194508089880111156110795788870182525b60208801935050505b602085106110a45781518352601f199094019360209283019290910190611082565b505181516020949094036101000a600019018019909116931692909217909152509192915050565b6110d46111d8565b602084015183106110f0576110f084856020015160020261118c565b835180516020858301018481538186141561110c576001820183525b509495945050505050565b61111f6111d8565b60008560200151858401111561113e5761113e8686850160020261118c565b6001836101000a03905085518386820101858319825116178152815185880111156111695784870182525b50959695505050505050565b600081831115611186575081610eb9565b50919050565b81516111988383610e7f565b506107b58382610fbc565b6040805160c0810182526000808252602082018190529181018290526060810191909152608081016111d36111d8565b905290565b604080518082019091526060815260006020820152905600a165627a7a723058208f2f4c0f22fd2bf45c2005cb8886bdc485f9498521649b4f6a73243a75f9ea8e0029",
  "source": "pragma solidity ^0.4.24;\r\n\r\nimport \"openzeppelin-solidity/contracts/ownership/Ownable.sol\";\r\nimport \"chainlink/contracts/Chainlinked.sol\";\r\n\r\ncontract WolframAlphaConsumer is Chainlinked, Ownable {\r\n    // solium-disable-next-line zeppelin/no-arithmetic-operations\r\n    uint256 constant private ORACLE_PAYMENT = 1 * LINK;\r\n\r\n    bytes32 public jobId;\r\n\r\n    event RequestFulfilled(\r\n        bytes32 indexed requestId,\r\n        bytes32 indexed hash,\r\n        int256 distance\r\n    );\r\n\r\n    mapping(bytes32 => bytes32) requests;\r\n    mapping(bytes32 => int256) public distances;\r\n\r\n    constructor(address _oracle, bytes32 _jobId) public {\r\n        setLinkToken(0x20fE562d797A42Dcb3399062AE9546cd06f63280);\r\n        setOracle(_oracle);\r\n        jobId = _jobId;\r\n    }\r\n\r\n    function requestDistance(string _from, string _to) public {\r\n        Chainlink.Request memory req = newRequest(jobId, this, this.fulfill.selector);\r\n        req.add(\"query\", string(abi.encodePacked(\"What's the distance between \", _from, \" and \", _to, \"?\")));\r\n        req.addInt(\"index\", 1);\r\n        req.add(\"copyPath\", \"result\");\r\n        bytes32 requestId = chainlinkRequestTo(oracleAddress(), req, ORACLE_PAYMENT);\r\n        requests[requestId] = keccak256(abi.encodePacked(_from, _to));\r\n    }\r\n\r\n    function cancelRequest(\r\n        bytes32 _requestId,\r\n        uint256 _payment,\r\n        bytes4 _callbackFunctionId,\r\n        uint256 _expiration\r\n    )\r\n    public\r\n    onlyOwner\r\n    {\r\n        cancelChainlinkRequest(_requestId, _payment, _callbackFunctionId, _expiration);\r\n    }\r\n\r\n    function fulfill(bytes32 _requestId, int256 _distance)\r\n    public\r\n    recordChainlinkFulfillment(_requestId)\r\n    {\r\n        emit RequestFulfilled(_requestId, requests[_requestId], _distance);\r\n        distances[requests[_requestId]] = _distance;\r\n        delete requests[_requestId];\r\n    }\r\n\r\n}",
  "sourcePath": "/c/dev/example-chainlinks/contracts/WolframAlphaConsumer.sol",
  "compiler": {
    "name": "solc",
    "version": "0.4.24+commit.e67f0147.Emscripten.clang"
  },
  "schemaVersion": "3.0.8",
  "updatedAt": "2019-04-26T22:35:48.537Z",
  "devdoc": {
    "methods": {
      "renounceOwnership()": {
        "details": "Allows the current owner to relinquish control of the contract."
      },
      "transferOwnership(address)": {
        "details": "Allows the current owner to transfer control of the contract to a newOwner.",
        "params": {
          "_newOwner": "The address to transfer ownership to."
        }
      }
    }
  },
  "userdoc": {
    "methods": {
      "renounceOwnership()": {
        "notice": "Renouncing to ownership will leave the contract without an owner. It will not be possible to call the functions with the `onlyOwner` modifier anymore."
      }
    }
  }
}