{
  "contractName": "WolframAlphaConsumer",
  "abi": [
    {
      "constant": false,
      "inputs": [],
      "name": "renounceOwnership",
      "outputs": [],
      "payable": false,
      "stateMutability": "nonpayable",
      "type": "function"
    },
    {
      "constant": true,
      "inputs": [],
      "name": "BASE_URL",
      "outputs": [
        {
          "name": "",
          "type": "string"
        }
      ],
      "payable": false,
      "stateMutability": "view",
      "type": "function"
    },
    {
      "constant": true,
      "inputs": [],
      "name": "owner",
      "outputs": [
        {
          "name": "",
          "type": "address"
        }
      ],
      "payable": false,
      "stateMutability": "view",
      "type": "function"
    },
    {
      "constant": true,
      "inputs": [
        {
          "name": "",
          "type": "bytes32"
        }
      ],
      "name": "answers",
      "outputs": [
        {
          "name": "",
          "type": "int256"
        }
      ],
      "payable": false,
      "stateMutability": "view",
      "type": "function"
    },
    {
      "constant": true,
      "inputs": [],
      "name": "jobId",
      "outputs": [
        {
          "name": "",
          "type": "bytes32"
        }
      ],
      "payable": false,
      "stateMutability": "view",
      "type": "function"
    },
    {
      "constant": false,
      "inputs": [
        {
          "name": "_newOwner",
          "type": "address"
        }
      ],
      "name": "transferOwnership",
      "outputs": [],
      "payable": false,
      "stateMutability": "nonpayable",
      "type": "function"
    },
    {
      "inputs": [
        {
          "name": "_token",
          "type": "address"
        },
        {
          "name": "_oracle",
          "type": "address"
        },
        {
          "name": "_jobId",
          "type": "bytes32"
        }
      ],
      "payable": false,
      "stateMutability": "nonpayable",
      "type": "constructor"
    },
    {
      "anonymous": false,
      "inputs": [
        {
          "indexed": true,
          "name": "requestId",
          "type": "bytes32"
        },
        {
          "indexed": true,
          "name": "hash",
          "type": "bytes32"
        },
        {
          "indexed": false,
          "name": "answer",
          "type": "int256"
        }
      ],
      "name": "RequestFulfilled",
      "type": "event"
    },
    {
      "anonymous": false,
      "inputs": [
        {
          "indexed": false,
          "name": "url",
          "type": "string"
        }
      ],
      "name": "WolframAlphaQuery",
      "type": "event"
    },
    {
      "anonymous": false,
      "inputs": [
        {
          "indexed": true,
          "name": "previousOwner",
          "type": "address"
        }
      ],
      "name": "OwnershipRenounced",
      "type": "event"
    },
    {
      "anonymous": false,
      "inputs": [
        {
          "indexed": true,
          "name": "previousOwner",
          "type": "address"
        },
        {
          "indexed": true,
          "name": "newOwner",
          "type": "address"
        }
      ],
      "name": "OwnershipTransferred",
      "type": "event"
    },
    {
      "anonymous": false,
      "inputs": [
        {
          "indexed": true,
          "name": "id",
          "type": "bytes32"
        }
      ],
      "name": "ChainlinkRequested",
      "type": "event"
    },
    {
      "anonymous": false,
      "inputs": [
        {
          "indexed": true,
          "name": "id",
          "type": "bytes32"
        }
      ],
      "name": "ChainlinkFulfilled",
      "type": "event"
    },
    {
      "anonymous": false,
      "inputs": [
        {
          "indexed": true,
          "name": "id",
          "type": "bytes32"
        }
      ],
      "name": "ChainlinkCancelled",
      "type": "event"
    },
    {
      "constant": false,
      "inputs": [
        {
          "name": "_query",
          "type": "string"
        },
        {
          "name": "_index",
          "type": "uint8"
        }
      ],
      "name": "requestAnswer",
      "outputs": [],
      "payable": false,
      "stateMutability": "nonpayable",
      "type": "function"
    },
    {
      "constant": false,
      "inputs": [
        {
          "name": "_requestId",
          "type": "bytes32"
        },
        {
          "name": "_payment",
          "type": "uint256"
        },
        {
          "name": "_callbackFunctionId",
          "type": "bytes4"
        },
        {
          "name": "_expiration",
          "type": "uint256"
        }
      ],
      "name": "cancelRequest",
      "outputs": [],
      "payable": false,
      "stateMutability": "nonpayable",
      "type": "function"
    },
    {
      "constant": false,
      "inputs": [
        {
          "name": "_requestId",
          "type": "bytes32"
        },
        {
          "name": "_answer",
          "type": "int256"
        }
      ],
      "name": "fulfill",
      "outputs": [],
      "payable": false,
      "stateMutability": "nonpayable",
      "type": "function"
    }
  ],
  "bytecode": "0x6080604052600160045534801561001557600080fd5b5060405160608061159483398101604090815281516020830151919092015160068054600160a060020a0319163317905561005883640100000000610075810204565b61006a8264010000000061008a810204565b600755506100e09050565b6100878164010000000061009c810204565b50565b610087816401000000006100be810204565b60028054600160a060020a031916600160a060020a0392909216919091179055565b60038054600160a060020a031916600160a060020a0392909216919091179055565b6114a5806100ef6000396000f30060806040526004361061007f5763ffffffff60e060020a6000350416633380b2098114610084578063715018a6146100e45780637f78636a146100f95780638da5cb5b14610183578063aac753b6146101b4578063bda71d04146101de578063c2939d97146101f9578063ec65d0f81461020e578063f2fde38b14610239575b600080fd5b34801561009057600080fd5b506040805160206004803580820135601f81018490048402850184019095528484526100e29436949293602493928401919081908401838280828437509497505050923560ff16935061025a92505050565b005b3480156100f057600080fd5b506100e261060b565b34801561010557600080fd5b5061010e610679565b6040805160208082528351818301528351919283929083019185019080838360005b83811015610148578181015183820152602001610130565b50505050905090810190601f1680156101755780820380516001836020036101000a031916815260200191505b509250505060405180910390f35b34801561018f57600080fd5b506101986106d9565b60408051600160a060020a039092168252519081900360200190f35b3480156101c057600080fd5b506101cc6004356106e8565b60408051918252519081900360200190f35b3480156101ea57600080fd5b506100e26004356024356106fa565b34801561020557600080fd5b506101cc610867565b34801561021a57600080fd5b506100e2600435602435600160e060020a03196044351660643561086d565b34801561024557600080fd5b506100e2600160a060020a0360043516610896565b61026261142c565b600061027b6007543063bda71d0460e060020a026108b9565b60408051808201909152600581527f717565727900000000000000000000000000000000000000000000000000000060208201529092506102c49083908663ffffffff6108d416565b60408051808201909152600581527f696e646578000000000000000000000000000000000000000000000000000000602082015261030d90839060ff861663ffffffff61090316565b604080518082018252600881527f636f7079506174680000000000000000000000000000000000000000000000006020808301919091528251808401909352600683527f726573756c740000000000000000000000000000000000000000000000000000908301526103879184919063ffffffff6108d416565b61039982670de0b6b3a764000061092d565b9050836040516020018082805190602001908083835b602083106103ce5780518252601f1990920191602091820191016103af565b6001836020036101000a0380198251168184511680821785525050505050509050019150506040516020818303038152906040526040518082805190602001908083835b602083106104315780518252601f199092019160209182019101610412565b51815160001960209485036101000a019081169019919091161790526040805194909201849003842060008881526008835283902055606084018252602884527f687474703a2f2f6170692e776f6c6672616d616c7068612e636f6d2f76312f72908401527f6573756c743f693d00000000000000000000000000000000000000000000000090830152507fa25d4e41d174abb21b44b33201a3916475ff89d55ed6b9affb8b1dff5ccb0a2e925090506104ea86610942565b6040516020018083805190602001908083835b6020831061051c5780518252601f1990920191602091820191016104fd565b51815160209384036101000a600019018019909216911617905285519190930192850191508083835b602083106105645780518252601f199092019160209182019101610545565b51815160209384036101000a60001901801990921691161790526040805192909401828103601f1901835280855281815282518183015282519297509550859450928401928601915080838360005b838110156105cb5781810151838201526020016105b3565b50505050905090810190601f1680156105f85780820380516001836020036101000a031916815260200191505b509250505060405180910390a150505050565b600654600160a060020a0316331461062257600080fd5b600654604051600160a060020a03909116907ff8df31144d9c2f0f6b59d69b8b98abd5459d07f2742c4df920b25aae33c6482090600090a26006805473ffffffffffffffffffffffffffffffffffffffff19169055565b606060405190810160405280602881526020017f687474703a2f2f6170692e776f6c6672616d616c7068612e636f6d2f76312f7281526020017f6573756c743f693d00000000000000000000000000000000000000000000000081525081565b600654600160a060020a031681565b60096020526000908152604090205481565b6000828152600560205260409020548290600160a060020a031633146107a757604080517f08c379a000000000000000000000000000000000000000000000000000000000815260206004820152602860248201527f536f75726365206d75737420626520746865206f7261636c65206f662074686560448201527f2072657175657374000000000000000000000000000000000000000000000000606482015290519081900360840190fd5b600081815260056020526040808220805473ffffffffffffffffffffffffffffffffffffffff191690555182917f7cc135e0cebb02c3480ae5d74d377283180a2601f8f644edf7987b009316c63a91a26000838152600860209081526040918290205482518581529251909286927ed315d2ede2869d559e8244630c7ef9f0ff14101c60f81a98e7b2ec87779ad892918290030190a350600082815260086020818152604080842080548552600983529084209490945593825290925255565b60075481565b600654600160a060020a0316331461088457600080fd5b61089084848484610aca565b50505050565b600654600160a060020a031633146108ad57600080fd5b6108b681610bc8565b50565b6108c161142c565b6108cc848484610c46565b949350505050565b60808301516108e9908363ffffffff610c7116565b60808301516108fe908263ffffffff610c7116565b505050565b6080830151610918908363ffffffff610c7116565b60808301516108fe908263ffffffff610c8e16565b60006109398383610cbb565b90505b92915050565b6060806060600084925082516040519080825280601f01601f19166020018201604052801561097b578160200160208202803883390190505b509150600090505b8251811015610ac257828181518110151561099a57fe5b90602001015160f860020a900460f860020a027effffffffffffffffffffffffffffffffffffffffffffffffffffffffffffff19167f20000000000000000000000000000000000000000000000000000000000000001415610a5a577f2b000000000000000000000000000000000000000000000000000000000000008282815181101515610a2557fe5b9060200101907effffffffffffffffffffffffffffffffffffffffffffffffffffffffffffff1916908160001a905350610aba565b8281815181101515610a6857fe5b90602001015160f860020a900460f860020a028282815181101515610a8957fe5b9060200101907effffffffffffffffffffffffffffffffffffffffffffffffffffffffffffff1916908160001a9053505b600101610983565b509392505050565b600084815260056020526040808220805473ffffffffffffffffffffffffffffffffffffffff1981169091559051600160a060020a039091169186917fe1fe3afa0f7f761ff0a8b89086790efd5140d2907ebd5b7ff6bfcb5e075fd4c59190a2604080517f6ee4d5530000000000000000000000000000000000000000000000000000000081526004810187905260248101869052600160e060020a031985166044820152606481018490529051600160a060020a03831691636ee4d55391608480830192600092919082900301818387803b158015610ba957600080fd5b505af1158015610bbd573d6000803e3d6000fd5b505050505050505050565b600160a060020a0381161515610bdd57600080fd5b600654604051600160a060020a038084169216907f8be0079c531659141344cd1fd0a4f28419497f9722a3daafe3b4186f6b6457e090600090a36006805473ffffffffffffffffffffffffffffffffffffffff1916600160a060020a0392909216919091179055565b610c4e61142c565b610c5661142c565b610c688186868663ffffffff610cd516565b95945050505050565b610c7e8260038351610d12565b6108fe828263ffffffff610e0f16565b60008112610ca757610ca282600083610d12565b610cb7565b610cb78260018360001903610d12565b5050565b60035460009061093990600160a060020a03168484610e29565b610cdd61142c565b610ced85608001516101006110dd565b5050918352600160a060020a03166020830152600160e060020a031916604082015290565b60178111610d3457610d2e8360ff848116602002168317611117565b506108fe565b60ff8111610d6857610d55836018602060ff8616021763ffffffff61111716565b50610d2e8382600163ffffffff61112f16565b61ffff8111610d9d57610d8a836019602060ff8616021763ffffffff61111716565b50610d2e8382600263ffffffff61112f16565b63ffffffff8111610dd457610dc183601a602060ff8616021763ffffffff61111716565b50610d2e8382600463ffffffff61112f16565b67ffffffffffffffff81116108fe57610dfc83601b602060ff8616021763ffffffff61111716565b506108908382600863ffffffff61112f16565b610e17611461565b61093983846000015151848551611148565b6000306004546040516020018083600160a060020a0316600160a060020a03166c01000000000000000000000000028152601401828152602001925050506040516020818303038152906040526040518082805190602001908083835b60208310610ea55780518252601f199092019160209182019101610e86565b51815160209384036101000a6000190180199092169116179052604080519290940182900390912060045460608a015260008181526005909252838220805473ffffffffffffffffffffffffffffffffffffffff1916600160a060020a038c1617905592519295508594507fb5e6e01e79f91267dc17b4e6314d5d4d03593d2ceee0fbb452b750bd70ea5af99350919050a2600254600160a060020a0316634000aea08584610f53876111fe565b6040518463ffffffff1660e060020a0281526004018084600160a060020a0316600160a060020a0316815260200183815260200180602001828103825283818151815260200191508051906020019080838360005b83811015610fc0578181015183820152602001610fa8565b50505050905090810190601f168015610fed5780820380516001836020036101000a031916815260200191505b50945050505050602060405180830381600087803b15801561100e57600080fd5b505af1158015611022573d6000803e3d6000fd5b505050506040513d602081101561103857600080fd5b505115156110cd57604080517f08c379a000000000000000000000000000000000000000000000000000000000815260206004820152602360248201527f756e61626c6520746f207472616e73666572416e6443616c6c20746f206f726160448201527f636c650000000000000000000000000000000000000000000000000000000000606482015290519081900360840190fd5b6004805460010190559392505050565b6110e5611461565b60208206156110fa5760208206602003820191505b506020828101829052604080518085526000815290920101905290565b61111f611461565b6109398384600001515184611355565b611137611461565b6108cc8485600001515185856113a0565b611150611461565b60008060008551851115151561116557600080fd5b8760200151858801111561118f5761118f886111878a602001518a89016113fe565b600202611415565b8751805188602083010194508089880111156111ab5788870182525b60208801935050505b602085106111d65781518352601f1990940193602092830192909101906111b4565b505181516020949094036101000a600019018019909116931692909217909152509192915050565b8051602080830151604080850151606086810151608088015151935160006024820181815260448301829052606483018a9052600160a060020a0388166084840152600160e060020a0319861660a484015260c48301849052600160e48401819052610100610104850190815288516101248601528851969b7f40429946000000000000000000000000000000000000000000000000000000009b949a8b9a91999098909796939591949361014401918501908083838e5b838110156112ce5781810151838201526020016112b6565b50505050905090810190601f1680156112fb5780820380516001836020036101000a031916815260200191505b5060408051601f198184030181529190526020810180517bffffffffffffffffffffffffffffffffffffffffffffffffffffffff16600160e060020a0319909d169c909c17909b5250989950505050505050505050919050565b61135d611461565b6020840151831061137957611379848560200151600202611415565b8351805160208583010184815381861415611395576001820183525b509495945050505050565b6113a8611461565b6000856020015185840111156113c7576113c786868501600202611415565b6001836101000a03905085518386820101858319825116178152815185880111156113f25784870182525b50959695505050505050565b60008183111561140f57508161093c565b50919050565b815161142183836110dd565b506108908382610e0f565b6040805160c08101825260008082526020820181905291810182905260608101919091526080810161145c611461565b905290565b604080518082019091526060815260006020820152905600a165627a7a7230582047a21da5eef7607bb12c8c20558ace846eecd567480e4d3deff24a24fb0620920029",
  "source": "pragma solidity ^0.4.24;\r\n\r\nimport \"openzeppelin-solidity/contracts/ownership/Ownable.sol\";\r\nimport \"chainlink/contracts/Chainlinked.sol\";\r\n\r\n/**\r\n    @dev WolframAlpha Short Answers API Docs: https://products.wolframalpha.com/short-answers-api/documentation/\r\n*/\r\ncontract WolframAlphaConsumer is Chainlinked, Ownable {\r\n    // solium-disable-next-line zeppelin/no-arithmetic-operations\r\n    uint256 constant private ORACLE_PAYMENT = 1 * LINK;\r\n    string constant public BASE_URL = \"http://api.wolframalpha.com/v1/result?i=\";\r\n\r\n    bytes32 public jobId;\r\n\r\n    event RequestFulfilled(\r\n        bytes32 indexed requestId,\r\n        bytes32 indexed hash,\r\n        int256 answer\r\n    );\r\n\r\n    event WolframAlphaQuery(\r\n        string url\r\n    );\r\n\r\n    mapping(bytes32 => bytes32) requests;\r\n    mapping(bytes32 => int256) public answers;\r\n\r\n    constructor(address _token, address _oracle, bytes32 _jobId) public {\r\n        setLinkToken(_token);\r\n        setOracle(_oracle);\r\n        jobId = _jobId;\r\n    }\r\n\r\n    /**\r\n        @dev Request an answer to a query\r\n        @param _query query to request answer for\r\n    */\r\n    function requestAnswer(string _query, uint8 _index) public {\r\n        Chainlink.Request memory req = newRequest(jobId, this, this.fulfill.selector);\r\n        req.add(\"query\", _query);\r\n        req.addInt(\"index\", _index);\r\n        req.add(\"copyPath\", \"result\");\r\n        bytes32 requestId = chainlinkRequest(req, ORACLE_PAYMENT);\r\n        requests[requestId] = keccak256(abi.encodePacked(_query));\r\n\r\n        emit WolframAlphaQuery(string(abi.encodePacked(BASE_URL, formatUrl(_query))));\r\n    }\r\n\r\n    function cancelRequest(\r\n        bytes32 _requestId,\r\n        uint256 _payment,\r\n        bytes4 _callbackFunctionId,\r\n        uint256 _expiration\r\n    )\r\n    public\r\n    onlyOwner\r\n    {\r\n        cancelChainlinkRequest(_requestId, _payment, _callbackFunctionId, _expiration);\r\n    }\r\n\r\n    function fulfill(bytes32 _requestId, int256 _answer)\r\n    public\r\n    recordChainlinkFulfillment(_requestId)\r\n    {\r\n        emit RequestFulfilled(_requestId, requests[_requestId], _answer);\r\n        answers[requests[_requestId]] = _answer;\r\n        delete requests[_requestId];\r\n    }\r\n\r\n    function formatUrl(string _url) private pure returns (string){\r\n      bytes memory urlBytes = bytes(_url);\r\n      bytes memory formatted = new bytes(urlBytes.length);\r\n      for(uint i = 0; i < urlBytes.length; i++) {\r\n        if (urlBytes[i] == \" \") {\r\n          formatted[i] = \"+\";\r\n        } else {\r\n          formatted[i] = urlBytes[i];\r\n        }\r\n      }\r\n      return string(formatted);\r\n    }\r\n\r\n}\r\n",
  "sourcePath": "/home/christian/LinkPool/example-chainlinks/contracts/WolframAlphaConsumer.sol",
  "compiler": {
    "name": "solc",
    "version": "0.4.24+commit.e67f0147.Emscripten.clang"
  },
  "schemaVersion": "3.2.0",
  "updatedAt": "2020-12-16T18:24:40.459Z",
  "networkType": "ethereum",
  "devdoc": {
    "methods": {
      "renounceOwnership()": {
        "details": "Allows the current owner to relinquish control of the contract."
      },
      "requestAnswer(string,uint8)": {
        "details": "Request an answer to a query\r",
        "params": {
          "_query": "query to request answer for\r"
        }
      },
      "transferOwnership(address)": {
        "details": "Allows the current owner to transfer control of the contract to a newOwner.",
        "params": {
          "_newOwner": "The address to transfer ownership to."
        }
      }
    }
  },
  "userdoc": {
    "methods": {
      "renounceOwnership()": {
        "notice": "Renouncing to ownership will leave the contract without an owner. It will not be possible to call the functions with the `onlyOwner` modifier anymore."
      }
    }
  }
}