{
  "contractName": "WolframAlphaConsumer",
  "abi": [
    {
      "constant": true,
      "inputs": [
        {
          "name": "",
          "type": "bytes32"
        }
      ],
      "name": "distances",
      "outputs": [
        {
          "name": "",
          "type": "int256"
        }
      ],
      "payable": false,
      "stateMutability": "view",
      "type": "function",
      "signature": "0x5e71124d"
    },
    {
      "constant": false,
      "inputs": [],
      "name": "renounceOwnership",
      "outputs": [],
      "payable": false,
      "stateMutability": "nonpayable",
      "type": "function",
      "signature": "0x715018a6"
    },
    {
      "constant": true,
      "inputs": [],
      "name": "owner",
      "outputs": [
        {
          "name": "",
          "type": "address"
        }
      ],
      "payable": false,
      "stateMutability": "view",
      "type": "function",
      "signature": "0x8da5cb5b"
    },
    {
      "constant": true,
      "inputs": [],
      "name": "jobId",
      "outputs": [
        {
          "name": "",
          "type": "bytes32"
        }
      ],
      "payable": false,
      "stateMutability": "view",
      "type": "function",
      "signature": "0xc2939d97"
    },
    {
      "constant": false,
      "inputs": [
        {
          "name": "_newOwner",
          "type": "address"
        }
      ],
      "name": "transferOwnership",
      "outputs": [],
      "payable": false,
      "stateMutability": "nonpayable",
      "type": "function",
      "signature": "0xf2fde38b"
    },
    {
      "inputs": [
        {
          "name": "_token",
          "type": "address"
        },
        {
          "name": "_oracle",
          "type": "address"
        },
        {
          "name": "_jobId",
          "type": "bytes32"
        }
      ],
      "payable": false,
      "stateMutability": "nonpayable",
      "type": "constructor",
      "signature": "constructor"
    },
    {
      "anonymous": false,
      "inputs": [
        {
          "indexed": true,
          "name": "requestId",
          "type": "bytes32"
        },
        {
          "indexed": true,
          "name": "hash",
          "type": "bytes32"
        },
        {
          "indexed": false,
          "name": "distance",
          "type": "int256"
        }
      ],
      "name": "RequestFulfilled",
      "type": "event",
      "signature": "0x00d315d2ede2869d559e8244630c7ef9f0ff14101c60f81a98e7b2ec87779ad8"
    },
    {
      "anonymous": false,
      "inputs": [
        {
          "indexed": true,
          "name": "previousOwner",
          "type": "address"
        }
      ],
      "name": "OwnershipRenounced",
      "type": "event",
      "signature": "0xf8df31144d9c2f0f6b59d69b8b98abd5459d07f2742c4df920b25aae33c64820"
    },
    {
      "anonymous": false,
      "inputs": [
        {
          "indexed": true,
          "name": "previousOwner",
          "type": "address"
        },
        {
          "indexed": true,
          "name": "newOwner",
          "type": "address"
        }
      ],
      "name": "OwnershipTransferred",
      "type": "event",
      "signature": "0x8be0079c531659141344cd1fd0a4f28419497f9722a3daafe3b4186f6b6457e0"
    },
    {
      "anonymous": false,
      "inputs": [
        {
          "indexed": true,
          "name": "id",
          "type": "bytes32"
        }
      ],
      "name": "ChainlinkRequested",
      "type": "event",
      "signature": "0xb5e6e01e79f91267dc17b4e6314d5d4d03593d2ceee0fbb452b750bd70ea5af9"
    },
    {
      "anonymous": false,
      "inputs": [
        {
          "indexed": true,
          "name": "id",
          "type": "bytes32"
        }
      ],
      "name": "ChainlinkFulfilled",
      "type": "event",
      "signature": "0x7cc135e0cebb02c3480ae5d74d377283180a2601f8f644edf7987b009316c63a"
    },
    {
      "anonymous": false,
      "inputs": [
        {
          "indexed": true,
          "name": "id",
          "type": "bytes32"
        }
      ],
      "name": "ChainlinkCancelled",
      "type": "event",
      "signature": "0xe1fe3afa0f7f761ff0a8b89086790efd5140d2907ebd5b7ff6bfcb5e075fd4c5"
    },
    {
      "constant": false,
      "inputs": [
        {
          "name": "_from",
          "type": "string"
        },
        {
          "name": "_to",
          "type": "string"
        }
      ],
      "name": "requestDistance",
      "outputs": [],
      "payable": false,
      "stateMutability": "nonpayable",
      "type": "function",
      "signature": "0xd5f44631"
    },
    {
      "constant": false,
      "inputs": [
        {
          "name": "_requestId",
          "type": "bytes32"
        },
        {
          "name": "_payment",
          "type": "uint256"
        },
        {
          "name": "_callbackFunctionId",
          "type": "bytes4"
        },
        {
          "name": "_expiration",
          "type": "uint256"
        }
      ],
      "name": "cancelRequest",
      "outputs": [],
      "payable": false,
      "stateMutability": "nonpayable",
      "type": "function",
      "signature": "0xec65d0f8"
    },
    {
      "constant": false,
      "inputs": [
        {
          "name": "_requestId",
          "type": "bytes32"
        },
        {
          "name": "_distance",
          "type": "int256"
        }
      ],
      "name": "fulfill",
      "outputs": [],
      "payable": false,
      "stateMutability": "nonpayable",
      "type": "function",
      "signature": "0xbda71d04"
    }
  ],
  "bytecode": "0x6080604052600160045534801561001557600080fd5b506040516060806112e383398101604090815281516020830151919092015160068054600160a060020a0319163317905561005883640100000000610075810204565b61006a82640100000000610097810204565b600755506100b99050565b60028054600160a060020a031916600160a060020a0392909216919091179055565b60038054600160a060020a031916600160a060020a0392909216919091179055565b61121b806100c86000396000f3006080604052600436106100745763ffffffff60e060020a6000350416635e71124d8114610079578063715018a6146100a35780638da5cb5b146100ba578063bda71d04146100eb578063c2939d9714610106578063d5f446311461011b578063ec65d0f8146101b2578063f2fde38b146101dd575b600080fd5b34801561008557600080fd5b506100916004356101fe565b60408051918252519081900360200190f35b3480156100af57600080fd5b506100b8610210565b005b3480156100c657600080fd5b506100cf61027e565b60408051600160a060020a039092168252519081900360200190f35b3480156100f757600080fd5b506100b860043560243561028d565b34801561011257600080fd5b506100916103fa565b34801561012757600080fd5b506040805160206004803580820135601f81018490048402850184019095528484526100b894369492936024939284019190819084018382808284375050604080516020601f89358b018035918201839004830284018301909452808352979a9998810197919650918201945092508291508401838280828437509497506104009650505050505050565b3480156101be57600080fd5b506100b8600435602435600160e060020a03196044351660643561078a565b3480156101e957600080fd5b506100b8600160a060020a03600435166107b3565b60096020526000908152604090205481565b600654600160a060020a0316331461022757600080fd5b600654604051600160a060020a03909116907ff8df31144d9c2f0f6b59d69b8b98abd5459d07f2742c4df920b25aae33c6482090600090a26006805473ffffffffffffffffffffffffffffffffffffffff19169055565b600654600160a060020a031681565b6000828152600560205260409020548290600160a060020a0316331461033a57604080517f08c379a000000000000000000000000000000000000000000000000000000000815260206004820152602860248201527f536f75726365206d75737420626520746865206f7261636c65206f662074686560448201527f2072657175657374000000000000000000000000000000000000000000000000606482015290519081900360840190fd5b600081815260056020526040808220805473ffffffffffffffffffffffffffffffffffffffff191690555182917f7cc135e0cebb02c3480ae5d74d377283180a2601f8f644edf7987b009316c63a91a26000838152600860209081526040918290205482518581529251909286927ed315d2ede2869d559e8244630c7ef9f0ff14101c60f81a98e7b2ec87779ad892918290030190a350600082815260086020818152604080842080548552600983529084209490945593825290925255565b60075481565b6104086111a2565b60006104216007543063bda71d0460e060020a026107d6565b91506105966040805190810160405280600581526020017f7175657279000000000000000000000000000000000000000000000000000000815250858560405160200180807f576861742773207468652064697374616e6365206265747765656e2000000000815250601c0183805190602001908083835b602083106104b85780518252601f199092019160209182019101610499565b51815160209384036101000a60001901801990921691161790527f20616e6420000000000000000000000000000000000000000000000000000000919093019081528451600590910192850191508083835b602083106105295780518252601f19909201916020918201910161050a565b6001836020036101000a038019825116818451168082178552505050505050905001807f3f0000000000000000000000000000000000000000000000000000000000000081525060010192505050604051602081830303815290604052846108019092919063ffffffff16565b60408051808201909152600581527f696e64657800000000000000000000000000000000000000000000000000000060208201526105dd908390600163ffffffff61083016565b604080518082018252600881527f636f7079506174680000000000000000000000000000000000000000000000006020808301919091528251808401909352600683527f726573756c740000000000000000000000000000000000000000000000000000908301526106579184919063ffffffff61080116565b61066982670de0b6b3a764000061085a565b905083836040516020018083805190602001908083835b6020831061069f5780518252601f199092019160209182019101610680565b51815160209384036101000a600019018019909216911617905285519190930192850191508083835b602083106106e75780518252601f1990920191602091820191016106c8565b6001836020036101000a038019825116818451168082178552505050505050905001925050506040516020818303038152906040526040518082805190602001908083835b6020831061074b5780518252601f19909201916020918201910161072c565b51815160209384036101000a60001901801990921691161790526040805192909401829003909120600096875260089091529190942055505050505050565b600654600160a060020a031633146107a157600080fd5b6107ad8484848461087d565b50505050565b600654600160a060020a031633146107ca57600080fd5b6107d38161097b565b50565b6107de6111a2565b6107e66111a2565b6107f88186868663ffffffff6109f916565b95945050505050565b6080830151610816908363ffffffff610a3616565b608083015161082b908263ffffffff610a3616565b505050565b6080830151610845908363ffffffff610a3616565b608083015161082b908263ffffffff610a5316565b60035460009061087490600160a060020a03168484610a80565b90505b92915050565b600084815260056020526040808220805473ffffffffffffffffffffffffffffffffffffffff1981169091559051600160a060020a039091169186917fe1fe3afa0f7f761ff0a8b89086790efd5140d2907ebd5b7ff6bfcb5e075fd4c59190a2604080517f6ee4d5530000000000000000000000000000000000000000000000000000000081526004810187905260248101869052600160e060020a031985166044820152606481018490529051600160a060020a03831691636ee4d55391608480830192600092919082900301818387803b15801561095c57600080fd5b505af1158015610970573d6000803e3d6000fd5b505050505050505050565b600160a060020a038116151561099057600080fd5b600654604051600160a060020a038084169216907f8be0079c531659141344cd1fd0a4f28419497f9722a3daafe3b4186f6b6457e090600090a36006805473ffffffffffffffffffffffffffffffffffffffff1916600160a060020a0392909216919091179055565b610a016111a2565b610a118560800151610100610d34565b5050918352600160a060020a03166020830152600160e060020a031916604082015290565b610a438260038351610d6e565b61082b828263ffffffff610e6b16565b60008112610a6c57610a6782600083610d6e565b610a7c565b610a7c8260018360001903610d6e565b5050565b6000306004546040516020018083600160a060020a0316600160a060020a03166c01000000000000000000000000028152601401828152602001925050506040516020818303038152906040526040518082805190602001908083835b60208310610afc5780518252601f199092019160209182019101610add565b51815160209384036101000a6000190180199092169116179052604080519290940182900390912060045460608a015260008181526005909252838220805473ffffffffffffffffffffffffffffffffffffffff1916600160a060020a038c1617905592519295508594507fb5e6e01e79f91267dc17b4e6314d5d4d03593d2ceee0fbb452b750bd70ea5af99350919050a2600254600160a060020a0316634000aea08584610baa87610e85565b6040518463ffffffff1660e060020a0281526004018084600160a060020a0316600160a060020a0316815260200183815260200180602001828103825283818151815260200191508051906020019080838360005b83811015610c17578181015183820152602001610bff565b50505050905090810190601f168015610c445780820380516001836020036101000a031916815260200191505b50945050505050602060405180830381600087803b158015610c6557600080fd5b505af1158015610c79573d6000803e3d6000fd5b505050506040513d6020811015610c8f57600080fd5b50511515610d2457604080517f08c379a000000000000000000000000000000000000000000000000000000000815260206004820152602360248201527f756e61626c6520746f207472616e73666572416e6443616c6c20746f206f726160448201527f636c650000000000000000000000000000000000000000000000000000000000606482015290519081900360840190fd5b6004805460010190559392505050565b610d3c6111d7565b6020820615610d515760208206602003820191505b506020828101829052604080518085526000815290920101905290565b60178111610d9057610d8a8360ff848116602002168317610fdc565b5061082b565b60ff8111610dc457610db1836018602060ff8616021763ffffffff610fdc16565b50610d8a8382600163ffffffff610ff416565b61ffff8111610df957610de6836019602060ff8616021763ffffffff610fdc16565b50610d8a8382600263ffffffff610ff416565b63ffffffff8111610e3057610e1d83601a602060ff8616021763ffffffff610fdc16565b50610d8a8382600463ffffffff610ff416565b67ffffffffffffffff811161082b57610e5883601b602060ff8616021763ffffffff610fdc16565b506107ad8382600863ffffffff610ff416565b610e736111d7565b61087483846000015151848551611015565b8051602080830151604080850151606086810151608088015151935160006024820181815260448301829052606483018a9052600160a060020a0388166084840152600160e060020a0319861660a484015260c48301849052600160e48401819052610100610104850190815288516101248601528851969b7f40429946000000000000000000000000000000000000000000000000000000009b949a8b9a91999098909796939591949361014401918501908083838e5b83811015610f55578181015183820152602001610f3d565b50505050905090810190601f168015610f825780820380516001836020036101000a031916815260200191505b5060408051601f198184030181529190526020810180517bffffffffffffffffffffffffffffffffffffffffffffffffffffffff16600160e060020a0319909d169c909c17909b5250989950505050505050505050919050565b610fe46111d7565b61087483846000015151846110cb565b610ffc6111d7565b61100d848560000151518585611116565b949350505050565b61101d6111d7565b60008060008551851115151561103257600080fd5b8760200151858801111561105c5761105c886110548a602001518a8901611174565b60020261118b565b8751805188602083010194508089880111156110785788870182525b60208801935050505b602085106110a35781518352601f199094019360209283019290910190611081565b505181516020949094036101000a600019018019909116931692909217909152509192915050565b6110d36111d7565b602084015183106110ef576110ef84856020015160020261118b565b835180516020858301018481538186141561110b576001820183525b509495945050505050565b61111e6111d7565b60008560200151858401111561113d5761113d8686850160020261118b565b6001836101000a03905085518386820101858319825116178152815185880111156111685784870182525b50959695505050505050565b600081831115611185575081610877565b50919050565b81516111978383610d34565b506107ad8382610e6b565b6040805160c0810182526000808252602082018190529181018290526060810191909152608081016111d26111d7565b905290565b604080518082019091526060815260006020820152905600a165627a7a7230582054a22ed63b01d143b249254bdba6ad5467665087c971e8477ff2fd4ca9ce853a0029",
  "source": "pragma solidity ^0.4.24;\r\n\r\nimport \"openzeppelin-solidity/contracts/ownership/Ownable.sol\";\r\nimport \"chainlink/contracts/Chainlinked.sol\";\r\n\r\n/**\r\n    @dev WolframAlpha Short Answers API Docs: https://products.wolframalpha.com/short-answers-api/documentation/\r\n*/\r\ncontract WolframAlphaConsumer is Chainlinked, Ownable {\r\n    // solium-disable-next-line zeppelin/no-arithmetic-operations\r\n    uint256 constant private ORACLE_PAYMENT = 1 * LINK;\r\n\r\n    bytes32 public jobId;\r\n\r\n    event RequestFulfilled(\r\n        bytes32 indexed requestId,\r\n        bytes32 indexed hash,\r\n        int256 distance\r\n    );\r\n\r\n    mapping(bytes32 => bytes32) requests;\r\n    mapping(bytes32 => int256) public distances;\r\n\r\n    constructor(address _token, address _oracle, bytes32 _jobId) public {\r\n        setLinkToken(_token);\r\n        setOracle(_oracle);\r\n        jobId = _jobId;\r\n    }\r\n\r\n    /**\r\n        @dev Request the distance between two location in miles\r\n        @param _from The location from, eg: London\r\n        @param _to The location to, eg: Sydney\r\n    */\r\n    function requestDistance(string _from, string _to) public {\r\n        Chainlink.Request memory req = newRequest(jobId, this, this.fulfill.selector);\r\n        req.add(\"query\", string(abi.encodePacked(\"What's the distance between \", _from, \" and \", _to, \"?\")));\r\n        req.addInt(\"index\", 1);\r\n        req.add(\"copyPath\", \"result\");\r\n        bytes32 requestId = chainlinkRequest(req, ORACLE_PAYMENT);\r\n        requests[requestId] = keccak256(abi.encodePacked(_from, _to));\r\n    }\r\n\r\n    function cancelRequest(\r\n        bytes32 _requestId,\r\n        uint256 _payment,\r\n        bytes4 _callbackFunctionId,\r\n        uint256 _expiration\r\n    )\r\n    public\r\n    onlyOwner\r\n    {\r\n        cancelChainlinkRequest(_requestId, _payment, _callbackFunctionId, _expiration);\r\n    }\r\n\r\n    function fulfill(bytes32 _requestId, int256 _distance)\r\n    public\r\n    recordChainlinkFulfillment(_requestId)\r\n    {\r\n        emit RequestFulfilled(_requestId, requests[_requestId], _distance);\r\n        distances[requests[_requestId]] = _distance;\r\n        delete requests[_requestId];\r\n    }\r\n\r\n}",
  "sourcePath": "/c/dev/example-chainlinks/contracts/WolframAlphaConsumer.sol",
  "compiler": {
    "name": "solc",
    "version": "0.4.24+commit.e67f0147.Emscripten.clang"
  },
  "schemaVersion": "3.0.8",
  "updatedAt": "2019-04-28T22:59:39.415Z",
  "devdoc": {
    "methods": {
      "renounceOwnership()": {
        "details": "Allows the current owner to relinquish control of the contract."
      },
      "transferOwnership(address)": {
        "details": "Allows the current owner to transfer control of the contract to a newOwner.",
        "params": {
          "_newOwner": "The address to transfer ownership to."
        }
      },
      "requestDistance(string,string)": {
        "details": "Request the distance between two location in miles\r",
        "params": {
          "_from": "The location from, eg: London\r",
          "_to": "The location to, eg: Sydney\r"
        }
      }
    }
  },
  "userdoc": {
    "methods": {
      "renounceOwnership()": {
        "notice": "Renouncing to ownership will leave the contract without an owner. It will not be possible to call the functions with the `onlyOwner` modifier anymore."
      }
    }
  }
}