{
  "contractName": "WolframAlphaConsumer",
  "abi": [
    {
      "constant": true,
      "inputs": [
        {
          "name": "",
          "type": "bytes32"
        }
      ],
      "name": "distances",
      "outputs": [
        {
          "name": "",
          "type": "int256"
        }
      ],
      "payable": false,
      "stateMutability": "view",
      "type": "function",
      "signature": "0x5e71124d"
    },
    {
      "constant": false,
      "inputs": [],
      "name": "renounceOwnership",
      "outputs": [],
      "payable": false,
      "stateMutability": "nonpayable",
      "type": "function",
      "signature": "0x715018a6"
    },
    {
      "constant": true,
      "inputs": [],
      "name": "BASE_URL",
      "outputs": [
        {
          "name": "",
          "type": "string"
        }
      ],
      "payable": false,
      "stateMutability": "view",
      "type": "function",
      "signature": "0x7f78636a"
    },
    {
      "constant": true,
      "inputs": [],
      "name": "owner",
      "outputs": [
        {
          "name": "",
          "type": "address"
        }
      ],
      "payable": false,
      "stateMutability": "view",
      "type": "function",
      "signature": "0x8da5cb5b"
    },
    {
      "constant": true,
      "inputs": [
        {
          "name": "_newOwner",
          "type": "address"
        }
      ],
      "name": "jobId",
      "outputs": [
        {
          "name": "",
          "type": "bytes32"
        }
      ],
      "payable": false,
      "stateMutability": "view",
      "type": "function",
      "signature": "0xe7c356fa"
    },
    {
      "inputs": [
        {
          "name": "_newOwner",
          "type": "address"
        },
        {
          "name": "_oracle",
          "type": "address"
        },
        {
          "name": "_jobId",
          "type": "bytes32"
        }
      ],
      "payable": false,
      "stateMutability": "nonpayable",
      "type": "function",
      "signature": "0xc2e0eab6",
      "constant": false,
      "name": "transferOwnership",
      "outputs": []
    },
    {
      "anonymous": false,
      "inputs": [
        {
          "indexed": true,
          "name": "_token",
          "type": "address"
        },
        {
          "indexed": true,
          "name": "_oracle",
          "type": "address"
        },
        {
          "indexed": false,
          "name": "_jobId",
          "type": "bytes32"
        }
      ],
      "name": "RequestFulfilled",
      "type": "constructor",
      "signature": "constructor",
      "payable": false,
      "stateMutability": "nonpayable"
    },
    {
      "anonymous": false,
      "inputs": [
        {
          "indexed": true,
          "name": "requestId",
          "type": "bytes32"
        },
        {
          "indexed": true,
          "name": "hash",
          "type": "bytes32"
        },
        {
          "indexed": false,
          "name": "distance",
          "type": "int256"
        }
      ],
      "name": "RequestFulfilled",
      "type": "event",
      "signature": "0x00d315d2ede2869d559e8244630c7ef9f0ff14101c60f81a98e7b2ec87779ad8"
    },
    {
      "anonymous": false,
      "inputs": [
        {
          "indexed": false,
          "name": "url",
          "type": "string"
        },
        {
          "indexed": true,
          "name": "newOwner",
          "type": "address"
        }
      ],
      "name": "WolframAlphaQuery",
      "type": "event",
      "signature": "0x2e6a228ebcd37cbc08c1f3f98302c6a07940249ae7e25f187871a4488550f5b9"
    },
    {
      "anonymous": false,
      "inputs": [
        {
          "indexed": true,
          "name": "previousOwner",
          "type": "address"
        }
      ],
      "name": "OwnershipRenounced",
      "type": "event",
      "signature": "0xf8df31144d9c2f0f6b59d69b8b98abd5459d07f2742c4df920b25aae33c64820"
    },
    {
      "anonymous": false,
      "inputs": [
        {
          "indexed": true,
          "name": "previousOwner",
          "type": "address"
        },
        {
          "indexed": true,
          "name": "newOwner",
          "type": "address"
        }
      ],
      "name": "OwnershipTransferred",
      "type": "event",
      "signature": "0x8be0079c531659141344cd1fd0a4f28419497f9722a3daafe3b4186f6b6457e0"
    },
    {
      "anonymous": false,
      "inputs": [
        {
          "indexed": true,
          "name": "id",
          "type": "bytes32"
        }
      ],
      "name": "ChainlinkRequested",
      "type": "event",
      "signature": "0xb5e6e01e79f91267dc17b4e6314d5d4d03593d2ceee0fbb452b750bd70ea5af9"
    },
    {
      "constant": false,
      "inputs": [
        {
          "name": "id",
          "type": "bytes32",
          "indexed": true
        },
        {
          "name": "_to",
          "type": "string"
        }
      ],
      "name": "ChainlinkFulfilled",
      "outputs": [],
      "payable": false,
      "stateMutability": "nonpayable",
      "type": "event",
      "signature": "0xf118080800bbb7bb373b05042ff756a8fe0f2a7d61b5eb8d4d7b704b16f01fe8",
      "anonymous": false
    },
    {
      "constant": false,
      "inputs": [
        {
          "name": "id",
          "type": "bytes32",
          "indexed": true
        },
        {
          "name": "_payment",
          "type": "uint256"
        },
        {
          "name": "_callbackFunctionId",
          "type": "bytes4"
        },
        {
          "name": "_expiration",
          "type": "uint256"
        }
      ],
      "name": "ChainlinkCancelled",
      "outputs": [],
      "payable": false,
      "stateMutability": "nonpayable",
      "type": "event",
      "signature": "0x688bd290d48c4b1573778f3e6b4f374686c27aedfe20aa925e9e7253fb4dcbbf",
      "anonymous": false
    },
    {
      "constant": false,
      "inputs": [
        {
          "name": "_from",
          "type": "string"
        },
        {
          "name": "_to",
          "type": "string"
        }
      ],
      "name": "requestDistance",
      "outputs": [],
      "payable": false,
      "stateMutability": "nonpayable",
      "type": "function",
      "signature": "0xd5f44631"
    },
    {
      "constant": false,
      "inputs": [
        {
          "name": "_requestId",
          "type": "bytes32"
        },
        {
          "name": "_payment",
          "type": "uint256"
        },
        {
          "name": "_callbackFunctionId",
          "type": "bytes4"
        },
        {
          "name": "_expiration",
          "type": "uint256"
        }
      ],
      "name": "cancelRequest",
      "outputs": [],
      "payable": false,
      "stateMutability": "nonpayable",
      "type": "function",
      "signature": "0xec65d0f8"
    },
    {
      "constant": false,
      "inputs": [
        {
          "name": "_requestId",
          "type": "bytes32"
        },
        {
          "name": "_distance",
          "type": "int256"
        }
      ],
      "name": "fulfill",
      "outputs": [],
      "payable": false,
      "stateMutability": "nonpayable",
      "type": "function",
      "signature": "0xbda71d04"
    }
  ],
  "bytecode": "0x6080604052600160045534801561001557600080fd5b5060405160608061156c83398101604090815281516020830151919092015160068054600160a060020a0319163317905561005883640100000000610075810204565b61006a82640100000000610097810204565b600755506100b99050565b60028054600160a060020a031916600160a060020a0392909216919091179055565b60038054600160a060020a031916600160a060020a0392909216919091179055565b6114a4806100c86000396000f30060806040526004361061007f5763ffffffff60e060020a6000350416635e71124d8114610084578063715018a6146100ae5780637f78636a146100c55780638da5cb5b1461014f578063bda71d0414610180578063c2939d971461019b578063d5f44631146101b0578063ec65d0f814610247578063f2fde38b14610272575b600080fd5b34801561009057600080fd5b5061009c600435610293565b60408051918252519081900360200190f35b3480156100ba57600080fd5b506100c36102a5565b005b3480156100d157600080fd5b506100da610313565b6040805160208082528351818301528351919283929083019185019080838360005b838110156101145781810151838201526020016100fc565b50505050905090810190601f1680156101415780820380516001836020036101000a031916815260200191505b509250505060405180910390f35b34801561015b57600080fd5b50610164610373565b60408051600160a060020a039092168252519081900360200190f35b34801561018c57600080fd5b506100c3600435602435610382565b3480156101a757600080fd5b5061009c6104ef565b3480156101bc57600080fd5b506040805160206004803580820135601f81018490048402850184019095528484526100c394369492936024939284019190819084018382808284375050604080516020601f89358b018035918201839004830284018301909452808352979a9998810197919650918201945092508291508401838280828437509497506104f59650505050505050565b34801561025357600080fd5b506100c3600435602435600160e060020a031960443516606435610a13565b34801561027e57600080fd5b506100c3600160a060020a0360043516610a3c565b60096020526000908152604090205481565b600654600160a060020a031633146102bc57600080fd5b600654604051600160a060020a03909116907ff8df31144d9c2f0f6b59d69b8b98abd5459d07f2742c4df920b25aae33c6482090600090a26006805473ffffffffffffffffffffffffffffffffffffffff19169055565b606060405190810160405280602881526020017f687474703a2f2f6170692e776f6c6672616d616c7068612e636f6d2f76312f7281526020017f6573756c743f693d00000000000000000000000000000000000000000000000081525081565b600654600160a060020a031681565b6000828152600560205260409020548290600160a060020a0316331461042f57604080517f08c379a000000000000000000000000000000000000000000000000000000000815260206004820152602860248201527f536f75726365206d75737420626520746865206f7261636c65206f662074686560448201527f2072657175657374000000000000000000000000000000000000000000000000606482015290519081900360840190fd5b600081815260056020526040808220805473ffffffffffffffffffffffffffffffffffffffff191690555182917f7cc135e0cebb02c3480ae5d74d377283180a2601f8f644edf7987b009316c63a91a26000838152600860209081526040918290205482518581529251909286927ed315d2ede2869d559e8244630c7ef9f0ff14101c60f81a98e7b2ec87779ad892918290030190a350600082815260086020818152604080842080548552600983529084209490945593825290925255565b60075481565b60606104ff61142b565b6000848460405160200180807f576861742773207468652064697374616e6365206265747765656e2000000000815250601c0183805190602001908083835b6020831061055d5780518252601f19909201916020918201910161053e565b51815160209384036101000a60001901801990921691161790527f20616e6420000000000000000000000000000000000000000000000000000000919093019081528451600590910192850191508083835b602083106105ce5780518252601f1990920191602091820191016105af565b6001836020036101000a038019825116818451168082178552505050505050905001807f3f000000000000000000000000000000000000000000000000000000000000008152506001019250505060405160208183030381529060405292506106446007543063bda71d0460e060020a02610a5f565b60408051808201909152600581527f7175657279000000000000000000000000000000000000000000000000000000602082015290925061068d9083908563ffffffff610a8a16565b60408051808201909152600581527f696e64657800000000000000000000000000000000000000000000000000000060208201526106d4908390600163ffffffff610ab916565b604080518082018252600881527f636f7079506174680000000000000000000000000000000000000000000000006020808301919091528251808401909352600683527f726573756c7400000000000000000000000000000000000000000000000000009083015261074e9184919063ffffffff610a8a16565b61076082670de0b6b3a7640000610ae3565b905084846040516020018083805190602001908083835b602083106107965780518252601f199092019160209182019101610777565b51815160209384036101000a600019018019909216911617905285519190930192850191508083835b602083106107de5780518252601f1990920191602091820191016107bf565b6001836020036101000a038019825116818451168082178552505050505050905001925050506040516020818303038152906040526040518082805190602001908083835b602083106108425780518252601f199092019160209182019101610823565b51815160209384036101000a6000190180199092169116179052604080519290940182900382206000888152600883528590205560608201845260288083527f687474703a2f2f6170692e776f6c6672616d616c7068612e636f6d2f76312f728383019081527f6573756c743f693d0000000000000000000000000000000000000000000000008487015294517fa25d4e41d174abb21b44b33201a3916475ff89d55ed6b9affb8b1dff5ccb0a2e975092955089949290910192508291908083835b602083106109235780518252601f199092019160209182019101610904565b51815160209384036101000a600019018019909216911617905285519190930192850191508083835b6020831061096b5780518252601f19909201916020918201910161094c565b51815160209384036101000a60001901801990921691161790526040805192909401828103601f1901835280855281815282518183015282519297509550859450928401928601915080838360005b838110156109d25781810151838201526020016109ba565b50505050905090810190601f1680156109ff5780820380516001836020036101000a031916815260200191505b509250505060405180910390a15050505050565b600654600160a060020a03163314610a2a57600080fd5b610a3684848484610b06565b50505050565b600654600160a060020a03163314610a5357600080fd5b610a5c81610c04565b50565b610a6761142b565b610a6f61142b565b610a818186868663ffffffff610c8216565b95945050505050565b6080830151610a9f908363ffffffff610cbf16565b6080830151610ab4908263ffffffff610cbf16565b505050565b6080830151610ace908363ffffffff610cbf16565b6080830151610ab4908263ffffffff610cdc16565b600354600090610afd90600160a060020a03168484610d09565b90505b92915050565b600084815260056020526040808220805473ffffffffffffffffffffffffffffffffffffffff1981169091559051600160a060020a039091169186917fe1fe3afa0f7f761ff0a8b89086790efd5140d2907ebd5b7ff6bfcb5e075fd4c59190a2604080517f6ee4d5530000000000000000000000000000000000000000000000000000000081526004810187905260248101869052600160e060020a031985166044820152606481018490529051600160a060020a03831691636ee4d55391608480830192600092919082900301818387803b158015610be557600080fd5b505af1158015610bf9573d6000803e3d6000fd5b505050505050505050565b600160a060020a0381161515610c1957600080fd5b600654604051600160a060020a038084169216907f8be0079c531659141344cd1fd0a4f28419497f9722a3daafe3b4186f6b6457e090600090a36006805473ffffffffffffffffffffffffffffffffffffffff1916600160a060020a0392909216919091179055565b610c8a61142b565b610c9a8560800151610100610fbd565b5050918352600160a060020a03166020830152600160e060020a031916604082015290565b610ccc8260038351610ff7565b610ab4828263ffffffff6110f416565b60008112610cf557610cf082600083610ff7565b610d05565b610d058260018360001903610ff7565b5050565b6000306004546040516020018083600160a060020a0316600160a060020a03166c01000000000000000000000000028152601401828152602001925050506040516020818303038152906040526040518082805190602001908083835b60208310610d855780518252601f199092019160209182019101610d66565b51815160209384036101000a6000190180199092169116179052604080519290940182900390912060045460608a015260008181526005909252838220805473ffffffffffffffffffffffffffffffffffffffff1916600160a060020a038c1617905592519295508594507fb5e6e01e79f91267dc17b4e6314d5d4d03593d2ceee0fbb452b750bd70ea5af99350919050a2600254600160a060020a0316634000aea08584610e338761110e565b6040518463ffffffff1660e060020a0281526004018084600160a060020a0316600160a060020a0316815260200183815260200180602001828103825283818151815260200191508051906020019080838360005b83811015610ea0578181015183820152602001610e88565b50505050905090810190601f168015610ecd5780820380516001836020036101000a031916815260200191505b50945050505050602060405180830381600087803b158015610eee57600080fd5b505af1158015610f02573d6000803e3d6000fd5b505050506040513d6020811015610f1857600080fd5b50511515610fad57604080517f08c379a000000000000000000000000000000000000000000000000000000000815260206004820152602360248201527f756e61626c6520746f207472616e73666572416e6443616c6c20746f206f726160448201527f636c650000000000000000000000000000000000000000000000000000000000606482015290519081900360840190fd5b6004805460010190559392505050565b610fc5611460565b6020820615610fda5760208206602003820191505b506020828101829052604080518085526000815290920101905290565b60178111611019576110138360ff848116602002168317611265565b50610ab4565b60ff811161104d5761103a836018602060ff8616021763ffffffff61126516565b506110138382600163ffffffff61127d16565b61ffff81116110825761106f836019602060ff8616021763ffffffff61126516565b506110138382600263ffffffff61127d16565b63ffffffff81116110b9576110a683601a602060ff8616021763ffffffff61126516565b506110138382600463ffffffff61127d16565b67ffffffffffffffff8111610ab4576110e183601b602060ff8616021763ffffffff61126516565b50610a368382600863ffffffff61127d16565b6110fc611460565b610afd8384600001515184855161129e565b8051602080830151604080850151606086810151608088015151935160006024820181815260448301829052606483018a9052600160a060020a0388166084840152600160e060020a0319861660a484015260c48301849052600160e48401819052610100610104850190815288516101248601528851969b7f40429946000000000000000000000000000000000000000000000000000000009b949a8b9a91999098909796939591949361014401918501908083838e5b838110156111de5781810151838201526020016111c6565b50505050905090810190601f16801561120b5780820380516001836020036101000a031916815260200191505b5060408051601f198184030181529190526020810180517bffffffffffffffffffffffffffffffffffffffffffffffffffffffff16600160e060020a0319909d169c909c17909b5250989950505050505050505050919050565b61126d611460565b610afd8384600001515184611354565b611285611460565b61129684856000015151858561139f565b949350505050565b6112a6611460565b6000806000855185111515156112bb57600080fd5b876020015185880111156112e5576112e5886112dd8a602001518a89016113fd565b600202611414565b8751805188602083010194508089880111156113015788870182525b60208801935050505b6020851061132c5781518352601f19909401936020928301929091019061130a565b505181516020949094036101000a600019018019909116931692909217909152509192915050565b61135c611460565b6020840151831061137857611378848560200151600202611414565b8351805160208583010184815381861415611394576001820183525b509495945050505050565b6113a7611460565b6000856020015185840111156113c6576113c686868501600202611414565b6001836101000a03905085518386820101858319825116178152815185880111156113f15784870182525b50959695505050505050565b60008183111561140e575081610b00565b50919050565b81516114208383610fbd565b50610a3683826110f4565b6040805160c08101825260008082526020820181905291810182905260608101919091526080810161145b611460565b905290565b604080518082019091526060815260006020820152905600a165627a7a72305820f9df6dd5fe06dcd5a00ff11f39a369948477034fdefc2b2aed7c0d235147dd810029",
  "source": "pragma solidity ^0.4.24;\r\n\r\nimport \"openzeppelin-solidity/contracts/ownership/Ownable.sol\";\r\nimport \"chainlink/contracts/Chainlinked.sol\";\r\n\r\n/**\r\n    @dev WolframAlpha Short Answers API Docs: https://products.wolframalpha.com/short-answers-api/documentation/\r\n*/\r\ncontract WolframAlphaConsumer is Chainlinked, Ownable {\r\n    // solium-disable-next-line zeppelin/no-arithmetic-operations\r\n    uint256 constant private ORACLE_PAYMENT = 1 * LINK;\r\n    string constant public BASE_URL = \"http://api.wolframalpha.com/v1/result?i=\";\r\n\r\n    bytes32 public jobId;\r\n\r\n    event RequestFulfilled(\r\n        bytes32 indexed requestId,\r\n        bytes32 indexed hash,\r\n        int256 distance\r\n    );\r\n\r\n    event WolframAlphaQuery(\r\n        string url\r\n    );\r\n\r\n    mapping(bytes32 => bytes32) requests;\r\n    mapping(bytes32 => int256) public distances;\r\n\r\n    constructor(address _token, address _oracle, bytes32 _jobId) public {\r\n        setLinkToken(_token);\r\n        setOracle(_oracle);\r\n        jobId = _jobId;\r\n    }\r\n\r\n    /**\r\n        @dev Request the distance between two location in miles\r\n        @param _from The location from, eg: London\r\n        @param _to The location to, eg: Sydney\r\n    */\r\n    function requestDistance(string _from, string _to) public {\r\n        string memory query = string(abi.encodePacked(\"What's the distance between \", _from, \" and \", _to, \"?\"));\r\n        Chainlink.Request memory req = newRequest(jobId, this, this.fulfill.selector);\r\n        req.add(\"query\", query);\r\n        req.addInt(\"index\", 1);\r\n        req.add(\"copyPath\", \"result\");\r\n        bytes32 requestId = chainlinkRequest(req, ORACLE_PAYMENT);\r\n        requests[requestId] = keccak256(abi.encodePacked(_from, _to));\r\n\r\n        emit WolframAlphaQuery(string(abi.encodePacked(BASE_URL, query)));\r\n    }\r\n\r\n    function cancelRequest(\r\n        bytes32 _requestId,\r\n        uint256 _payment,\r\n        bytes4 _callbackFunctionId,\r\n        uint256 _expiration\r\n    )\r\n    public\r\n    onlyOwner\r\n    {\r\n        cancelChainlinkRequest(_requestId, _payment, _callbackFunctionId, _expiration);\r\n    }\r\n\r\n    function fulfill(bytes32 _requestId, int256 _distance)\r\n    public\r\n    recordChainlinkFulfillment(_requestId)\r\n    {\r\n        emit RequestFulfilled(_requestId, requests[_requestId], _distance);\r\n        distances[requests[_requestId]] = _distance;\r\n        delete requests[_requestId];\r\n    }\r\n\r\n}\r\n",
  "sourcePath": "/c/dev/example-chainlinks/contracts/WolframAlphaConsumer.sol",
  "compiler": {
    "name": "solc",
    "version": "0.4.24+commit.e67f0147.Emscripten.clang"
  },
  "schemaVersion": "3.0.8",
  "updatedAt": "2019-07-16T09:13:37.258Z",
  "devdoc": {
    "methods": {
      "renounceOwnership()": {
        "details": "Allows the current owner to relinquish control of the contract."
      },
      "transferOwnership(address)": {
        "details": "Allows the current owner to transfer control of the contract to a newOwner.",
        "params": {
          "_newOwner": "The address to transfer ownership to."
        }
      },
      "requestDistance(string,string)": {
        "details": "Request the distance between two location in miles\r",
        "params": {
          "_from": "The location from, eg: London\r",
          "_to": "The location to, eg: Sydney\r"
        }
      }
    }
  },
  "userdoc": {
    "methods": {
      "renounceOwnership()": {
        "notice": "Renouncing to ownership will leave the contract without an owner. It will not be possible to call the functions with the `onlyOwner` modifier anymore."
      }
    }
  }
}